{"abi":[{"type":"constructor","inputs":[{"name":"name_","type":"string","internalType":"string"},{"name":"symbol_","type":"string","internalType":"string"},{"name":"initialSupply_","type":"uint256","internalType":"uint256"}],"stateMutability":"nonpayable"},{"type":"function","name":"DOMAIN_SEPARATOR","inputs":[],"outputs":[{"name":"","type":"bytes32","internalType":"bytes32"}],"stateMutability":"view"},{"type":"function","name":"allowance","inputs":[{"name":"owner","type":"address","internalType":"address"},{"name":"spender","type":"address","internalType":"address"}],"outputs":[{"name":"","type":"uint256","internalType":"uint256"}],"stateMutability":"view"},{"type":"function","name":"approve","inputs":[{"name":"spender","type":"address","internalType":"address"},{"name":"value","type":"uint256","internalType":"uint256"}],"outputs":[{"name":"","type":"bool","internalType":"bool"}],"stateMutability":"nonpayable"},{"type":"function","name":"balanceOf","inputs":[{"name":"account","type":"address","internalType":"address"}],"outputs":[{"name":"","type":"uint256","internalType":"uint256"}],"stateMutability":"view"},{"type":"function","name":"decimals","inputs":[],"outputs":[{"name":"","type":"uint8","internalType":"uint8"}],"stateMutability":"view"},{"type":"function","name":"eip712Domain","inputs":[],"outputs":[{"name":"fields","type":"bytes1","internalType":"bytes1"},{"name":"name","type":"string","internalType":"string"},{"name":"version","type":"string","internalType":"string"},{"name":"chainId","type":"uint256","internalType":"uint256"},{"name":"verifyingContract","type":"address","internalType":"address"},{"name":"salt","type":"bytes32","internalType":"bytes32"},{"name":"extensions","type":"uint256[]","internalType":"uint256[]"}],"stateMutability":"view"},{"type":"function","name":"isContract","inputs":[{"name":"_addr","type":"address","internalType":"address"}],"outputs":[{"name":"","type":"bool","internalType":"bool"}],"stateMutability":"view"},{"type":"function","name":"mint","inputs":[{"name":"account","type":"address","internalType":"address"},{"name":"amount","type":"uint256","internalType":"uint256"}],"outputs":[],"stateMutability":"nonpayable"},{"type":"function","name":"name","inputs":[],"outputs":[{"name":"","type":"string","internalType":"string"}],"stateMutability":"view"},{"type":"function","name":"nonces","inputs":[{"name":"owner","type":"address","internalType":"address"}],"outputs":[{"name":"","type":"uint256","internalType":"uint256"}],"stateMutability":"view"},{"type":"function","name":"permit","inputs":[{"name":"owner","type":"address","internalType":"address"},{"name":"spender","type":"address","internalType":"address"},{"name":"value","type":"uint256","internalType":"uint256"},{"name":"deadline","type":"uint256","internalType":"uint256"},{"name":"v","type":"uint8","internalType":"uint8"},{"name":"r","type":"bytes32","internalType":"bytes32"},{"name":"s","type":"bytes32","internalType":"bytes32"}],"outputs":[],"stateMutability":"nonpayable"},{"type":"function","name":"symbol","inputs":[],"outputs":[{"name":"","type":"string","internalType":"string"}],"stateMutability":"view"},{"type":"function","name":"totalSupply","inputs":[],"outputs":[{"name":"","type":"uint256","internalType":"uint256"}],"stateMutability":"view"},{"type":"function","name":"transfer","inputs":[{"name":"to","type":"address","internalType":"address"},{"name":"value","type":"uint256","internalType":"uint256"}],"outputs":[{"name":"","type":"bool","internalType":"bool"}],"stateMutability":"nonpayable"},{"type":"function","name":"transferFrom","inputs":[{"name":"from","type":"address","internalType":"address"},{"name":"to","type":"address","internalType":"address"},{"name":"value","type":"uint256","internalType":"uint256"}],"outputs":[{"name":"","type":"bool","internalType":"bool"}],"stateMutability":"nonpayable"},{"type":"function","name":"transferWithCallback","inputs":[{"name":"recipient","type":"address","internalType":"address"},{"name":"amount","type":"uint256","internalType":"uint256"}],"outputs":[{"name":"","type":"bool","internalType":"bool"}],"stateMutability":"nonpayable"},{"type":"event","name":"Approval","inputs":[{"name":"owner","type":"address","indexed":true,"internalType":"address"},{"name":"spender","type":"address","indexed":true,"internalType":"address"},{"name":"value","type":"uint256","indexed":false,"internalType":"uint256"}],"anonymous":false},{"type":"event","name":"EIP712DomainChanged","inputs":[],"anonymous":false},{"type":"event","name":"Transfer","inputs":[{"name":"from","type":"address","indexed":true,"internalType":"address"},{"name":"to","type":"address","indexed":true,"internalType":"address"},{"name":"value","type":"uint256","indexed":false,"internalType":"uint256"}],"anonymous":false},{"type":"event","name":"TransferWithCallback","inputs":[{"name":"from","type":"address","indexed":true,"internalType":"address"},{"name":"to","type":"address","indexed":true,"internalType":"address"},{"name":"value","type":"uint256","indexed":false,"internalType":"uint256"}],"anonymous":false},{"type":"error","name":"ECDSAInvalidSignature","inputs":[]},{"type":"error","name":"ECDSAInvalidSignatureLength","inputs":[{"name":"length","type":"uint256","internalType":"uint256"}]},{"type":"error","name":"ECDSAInvalidSignatureS","inputs":[{"name":"s","type":"bytes32","internalType":"bytes32"}]},{"type":"error","name":"ERC20InsufficientAllowance","inputs":[{"name":"spender","type":"address","internalType":"address"},{"name":"allowance","type":"uint256","internalType":"uint256"},{"name":"needed","type":"uint256","internalType":"uint256"}]},{"type":"error","name":"ERC20InsufficientBalance","inputs":[{"name":"sender","type":"address","internalType":"address"},{"name":"balance","type":"uint256","internalType":"uint256"},{"name":"needed","type":"uint256","internalType":"uint256"}]},{"type":"error","name":"ERC20InvalidApprover","inputs":[{"name":"approver","type":"address","internalType":"address"}]},{"type":"error","name":"ERC20InvalidReceiver","inputs":[{"name":"receiver","type":"address","internalType":"address"}]},{"type":"error","name":"ERC20InvalidSender","inputs":[{"name":"sender","type":"address","internalType":"address"}]},{"type":"error","name":"ERC20InvalidSpender","inputs":[{"name":"spender","type":"address","internalType":"address"}]},{"type":"error","name":"ERC2612ExpiredSignature","inputs":[{"name":"deadline","type":"uint256","internalType":"uint256"}]},{"type":"error","name":"ERC2612InvalidSigner","inputs":[{"name":"signer","type":"address","internalType":"address"},{"name":"owner","type":"address","internalType":"address"}]},{"type":"error","name":"InvalidAccountNonce","inputs":[{"name":"account","type":"address","internalType":"address"},{"name":"currentNonce","type":"uint256","internalType":"uint256"}]},{"type":"error","name":"InvalidShortString","inputs":[]},{"type":"error","name":"StringTooLong","inputs":[{"name":"str","type":"string","internalType":"string"}]}],"bytecode":{"object":"0x610160604052348015610010575f80fd5b50604051612b97380380612b9783398181016040528101906100329190610684565b82806040518060400160405280600181526020017f31000000000000000000000000000000000000000000000000000000000000008152508585816003908161007b9190610910565b50806004908161008b9190610910565b5050506100a260058361015160201b90919060201c565b61012081815250506100be60068261015160201b90919060201c565b6101408181525050818051906020012060e08181525050808051906020012061010081815250504660a081815250506100fb61019e60201b60201c565b608081815250503073ffffffffffffffffffffffffffffffffffffffff1660c08173ffffffffffffffffffffffffffffffffffffffff168152505050505061014933826101f860201b60201c565b505050610c58565b5f6020835110156101725761016b8361027d60201b60201c565b9050610198565b82610182836102e260201b60201c565b5f0190816101909190610910565b5060ff5f1b90505b92915050565b5f7f8b73c3c69bb8fe3d512ecc4cf759cc79239f7b179b0ffacaa9a75d522b39400f60e0516101005146306040516020016101dd959493929190610a45565b60405160208183030381529060405280519060200120905090565b5f73ffffffffffffffffffffffffffffffffffffffff168273ffffffffffffffffffffffffffffffffffffffff1603610268575f6040517fec442f0500000000000000000000000000000000000000000000000000000000815260040161025f9190610a96565b60405180910390fd5b6102795f83836102eb60201b60201c565b5050565b5f80829050601f815111156102c957826040517f305a27a90000000000000000000000000000000000000000000000000000000081526004016102c09190610af7565b60405180910390fd5b8051816102d590610b44565b5f1c175f1b915050919050565b5f819050919050565b5f73ffffffffffffffffffffffffffffffffffffffff168373ffffffffffffffffffffffffffffffffffffffff160361033b578060025f82825461032f9190610bd7565b92505081905550610409565b5f805f8573ffffffffffffffffffffffffffffffffffffffff1673ffffffffffffffffffffffffffffffffffffffff1681526020019081526020015f20549050818110156103c4578381836040517fe450d38c0000000000000000000000000000000000000000000000000000000081526004016103bb93929190610c0a565b60405180910390fd5b8181035f808673ffffffffffffffffffffffffffffffffffffffff1673ffffffffffffffffffffffffffffffffffffffff1681526020019081526020015f2081905550505b5f73ffffffffffffffffffffffffffffffffffffffff168273ffffffffffffffffffffffffffffffffffffffff1603610450578060025f828254039250508190555061049a565b805f808473ffffffffffffffffffffffffffffffffffffffff1673ffffffffffffffffffffffffffffffffffffffff1681526020019081526020015f205f82825401925050819055505b8173ffffffffffffffffffffffffffffffffffffffff168373ffffffffffffffffffffffffffffffffffffffff167fddf252ad1be2c89b69c2b068fc378daa952ba7f163c4a11628f55a4df523b3ef836040516104f79190610c3f565b60405180910390a3505050565b5f604051905090565b5f80fd5b5f80fd5b5f80fd5b5f80fd5b5f601f19601f8301169050919050565b7f4e487b71000000000000000000000000000000000000000000000000000000005f52604160045260245ffd5b6105638261051d565b810181811067ffffffffffffffff821117156105825761058161052d565b5b80604052505050565b5f610594610504565b90506105a0828261055a565b919050565b5f67ffffffffffffffff8211156105bf576105be61052d565b5b6105c88261051d565b9050602081019050919050565b8281835e5f83830152505050565b5f6105f56105f0846105a5565b61058b565b90508281526020810184848401111561061157610610610519565b5b61061c8482856105d5565b509392505050565b5f82601f83011261063857610637610515565b5b81516106488482602086016105e3565b91505092915050565b5f819050919050565b61066381610651565b811461066d575f80fd5b50565b5f8151905061067e8161065a565b92915050565b5f805f6060848603121561069b5761069a61050d565b5b5f84015167ffffffffffffffff8111156106b8576106b7610511565b5b6106c486828701610624565b935050602084015167ffffffffffffffff8111156106e5576106e4610511565b5b6106f186828701610624565b925050604061070286828701610670565b9150509250925092565b5f81519050919050565b7f4e487b71000000000000000000000000000000000000000000000000000000005f52602260045260245ffd5b5f600282049050600182168061075a57607f821691505b60208210810361076d5761076c610716565b5b50919050565b5f819050815f5260205f209050919050565b5f6020601f8301049050919050565b5f82821b905092915050565b5f600883026107cf7fffffffffffffffffffffffffffffffffffffffffffffffffffffffffffffffff82610794565b6107d98683610794565b95508019841693508086168417925050509392505050565b5f819050919050565b5f61081461080f61080a84610651565b6107f1565b610651565b9050919050565b5f819050919050565b61082d836107fa565b6108416108398261081b565b8484546107a0565b825550505050565b5f90565b610855610849565b610860818484610824565b505050565b5b81811015610883576108785f8261084d565b600181019050610866565b5050565b601f8211156108c85761089981610773565b6108a284610785565b810160208510156108b1578190505b6108c56108bd85610785565b830182610865565b50505b505050565b5f82821c905092915050565b5f6108e85f19846008026108cd565b1980831691505092915050565b5f61090083836108d9565b9150826002028217905092915050565b6109198261070c565b67ffffffffffffffff8111156109325761093161052d565b5b61093c8254610743565b610947828285610887565b5f60209050601f831160018114610978575f8415610966578287015190505b61097085826108f5565b8655506109d7565b601f19841661098686610773565b5f5b828110156109ad57848901518255600182019150602085019450602081019050610988565b868310156109ca57848901516109c6601f8916826108d9565b8355505b6001600288020188555050505b505050505050565b5f819050919050565b6109f1816109df565b82525050565b610a0081610651565b82525050565b5f73ffffffffffffffffffffffffffffffffffffffff82169050919050565b5f610a2f82610a06565b9050919050565b610a3f81610a25565b82525050565b5f60a082019050610a585f8301886109e8565b610a6560208301876109e8565b610a7260408301866109e8565b610a7f60608301856109f7565b610a8c6080830184610a36565b9695505050505050565b5f602082019050610aa95f830184610a36565b92915050565b5f82825260208201905092915050565b5f610ac98261070c565b610ad38185610aaf565b9350610ae38185602086016105d5565b610aec8161051d565b840191505092915050565b5f6020820190508181035f830152610b0f8184610abf565b905092915050565b5f81519050919050565b5f819050602082019050919050565b5f610b3b82516109df565b80915050919050565b5f610b4e82610b17565b82610b5884610b21565b9050610b6381610b30565b92506020821015610ba357610b9e7fffffffffffffffffffffffffffffffffffffffffffffffffffffffffffffffff83602003600802610794565b831692505b5050919050565b7f4e487b71000000000000000000000000000000000000000000000000000000005f52601160045260245ffd5b5f610be182610651565b9150610bec83610651565b9250828201905080821115610c0457610c03610baa565b5b92915050565b5f606082019050610c1d5f830186610a36565b610c2a60208301856109f7565b610c3760408301846109f7565b949350505050565b5f602082019050610c525f8301846109f7565b92915050565b60805160a05160c05160e051610100516101205161014051611eee610ca95f395f610ccb01525f610c9001525f6111c401525f6111a301525f610b0f01525f610b6501525f610b8e0152611eee5ff3fe608060405234801561000f575f80fd5b50600436106100fe575f3560e01c806340c10f191161009557806395d89b411161006457806395d89b41146102da578063a9059cbb146102f8578063d505accf14610328578063dd62ed3e14610344576100fe565b806340c10f191461023a57806370a08231146102565780637ecebe001461028657806384b0196e146102b6576100fe565b80631a825b75116100d15780631a825b751461019e57806323b872dd146101ce578063313ce567146101fe5780633644e5151461021c576100fe565b806306fdde0314610102578063095ea7b314610120578063162790551461015057806318160ddd14610180575b5f80fd5b61010a610374565b604051610117919061167a565b60405180910390f35b61013a6004803603810190610135919061172b565b610404565b6040516101479190611783565b60405180910390f35b61016a6004803603810190610165919061179c565b610426565b6040516101779190611783565b60405180910390f35b610188610458565b60405161019591906117d6565b60405180910390f35b6101b860048036038101906101b3919061172b565b610461565b6040516101c59190611783565b60405180910390f35b6101e860048036038101906101e391906117ef565b6105aa565b6040516101f59190611783565b60405180910390f35b6102066105d8565b604051610213919061185a565b60405180910390f35b6102246105e0565b604051610231919061188b565b60405180910390f35b610254600480360381019061024f919061172b565b6105ee565b005b610270600480360381019061026b919061179c565b6105fc565b60405161027d91906117d6565b60405180910390f35b6102a0600480360381019061029b919061179c565b610641565b6040516102ad91906117d6565b60405180910390f35b6102be610652565b6040516102d197969594939291906119a4565b60405180910390f35b6102e26106f7565b6040516102ef919061167a565b60405180910390f35b610312600480360381019061030d919061172b565b610787565b60405161031f9190611783565b60405180910390f35b610342600480360381019061033d9190611a7a565b6107a9565b005b61035e60048036038101906103599190611b17565b6108ee565b60405161036b91906117d6565b60405180910390f35b60606003805461038390611b82565b80601f01602080910402602001604051908101604052809291908181526020018280546103af90611b82565b80156103fa5780601f106103d1576101008083540402835291602001916103fa565b820191905f5260205f20905b8154815290600101906020018083116103dd57829003601f168201915b5050505050905090565b5f8061040e610970565b905061041b818585610977565b600191505092915050565b5f808273ffffffffffffffffffffffffffffffffffffffff163b111561044f5760019050610453565b5f90505b919050565b5f600254905090565b5f8273ffffffffffffffffffffffffffffffffffffffff163373ffffffffffffffffffffffffffffffffffffffff167f7de0a009baa2b8d2c74e4465982379617abbcc18acde37fe728c5d79b7bd052b846040516104bf91906117d6565b60405180910390a36104d083610426565b15610595575f8373ffffffffffffffffffffffffffffffffffffffff166324a756d133856040518363ffffffff1660e01b8152600401610511929190611bb2565b6020604051808303815f875af115801561052d573d5f803e3d5ffd5b505050506040513d601f19601f820116820180604052508101906105519190611c03565b905080610593576040517f08c379a000000000000000000000000000000000000000000000000000000000815260040161058a90611c78565b60405180910390fd5b505b6105a0338484610989565b6001905092915050565b5f806105b4610970565b90506105c1858285610a79565b6105cc858585610989565b60019150509392505050565b5f6012905090565b5f6105e9610b0c565b905090565b6105f88282610bc2565b5050565b5f805f8373ffffffffffffffffffffffffffffffffffffffff1673ffffffffffffffffffffffffffffffffffffffff1681526020019081526020015f20549050919050565b5f61064b82610c41565b9050919050565b5f6060805f805f6060610663610c87565b61066b610cc2565b46305f801b5f67ffffffffffffffff81111561068a57610689611c96565b5b6040519080825280602002602001820160405280156106b85781602001602082028036833780820191505090505b507f0f00000000000000000000000000000000000000000000000000000000000000959493929190965096509650965096509650965090919293949596565b60606004805461070690611b82565b80601f016020809104026020016040519081016040528092919081815260200182805461073290611b82565b801561077d5780601f106107545761010080835404028352916020019161077d565b820191905f5260205f20905b81548152906001019060200180831161076057829003601f168201915b5050505050905090565b5f80610791610970565b905061079e818585610989565b600191505092915050565b834211156107ee57836040517f627913020000000000000000000000000000000000000000000000000000000081526004016107e591906117d6565b60405180910390fd5b5f7f6e71edae12b1b97f4d1f60370fef10105fa2faae0126114a169c64845d6126c988888861081c8c610cfd565b8960405160200161083296959493929190611cc3565b6040516020818303038152906040528051906020012090505f61085482610d50565b90505f61086382878787610d69565b90508973ffffffffffffffffffffffffffffffffffffffff168173ffffffffffffffffffffffffffffffffffffffff16146108d757808a6040517f4b800e460000000000000000000000000000000000000000000000000000000081526004016108ce929190611d22565b60405180910390fd5b6108e28a8a8a610977565b50505050505050505050565b5f60015f8473ffffffffffffffffffffffffffffffffffffffff1673ffffffffffffffffffffffffffffffffffffffff1681526020019081526020015f205f8373ffffffffffffffffffffffffffffffffffffffff1673ffffffffffffffffffffffffffffffffffffffff1681526020019081526020015f2054905092915050565b5f33905090565b6109848383836001610d97565b505050565b5f73ffffffffffffffffffffffffffffffffffffffff168373ffffffffffffffffffffffffffffffffffffffff16036109f9575f6040517f96c6fd1e0000000000000000000000000000000000000000000000000000000081526004016109f09190611d49565b60405180910390fd5b5f73ffffffffffffffffffffffffffffffffffffffff168273ffffffffffffffffffffffffffffffffffffffff1603610a69575f6040517fec442f05000000000000000000000000000000000000000000000000000000008152600401610a609190611d49565b60405180910390fd5b610a74838383610f66565b505050565b5f610a8484846108ee565b90507fffffffffffffffffffffffffffffffffffffffffffffffffffffffffffffffff811015610b065781811015610af7578281836040517ffb8f41b2000000000000000000000000000000000000000000000000000000008152600401610aee93929190611d62565b60405180910390fd5b610b0584848484035f610d97565b5b50505050565b5f7f000000000000000000000000000000000000000000000000000000000000000073ffffffffffffffffffffffffffffffffffffffff163073ffffffffffffffffffffffffffffffffffffffff16148015610b8757507f000000000000000000000000000000000000000000000000000000000000000046145b15610bb4577f00000000000000000000000000000000000000000000000000000000000000009050610bbf565b610bbc61117f565b90505b90565b5f73ffffffffffffffffffffffffffffffffffffffff168273ffffffffffffffffffffffffffffffffffffffff1603610c32575f6040517fec442f05000000000000000000000000000000000000000000000000000000008152600401610c299190611d49565b60405180910390fd5b610c3d5f8383610f66565b5050565b5f60075f8373ffffffffffffffffffffffffffffffffffffffff1673ffffffffffffffffffffffffffffffffffffffff1681526020019081526020015f20549050919050565b6060610cbd60057f000000000000000000000000000000000000000000000000000000000000000061121490919063ffffffff16565b905090565b6060610cf860067f000000000000000000000000000000000000000000000000000000000000000061121490919063ffffffff16565b905090565b5f60075f8373ffffffffffffffffffffffffffffffffffffffff1673ffffffffffffffffffffffffffffffffffffffff1681526020019081526020015f205f815480929190600101919050559050919050565b5f610d62610d5c610b0c565b836112c1565b9050919050565b5f805f80610d7988888888611301565b925092509250610d8982826113e8565b829350505050949350505050565b5f73ffffffffffffffffffffffffffffffffffffffff168473ffffffffffffffffffffffffffffffffffffffff1603610e07575f6040517fe602df05000000000000000000000000000000000000000000000000000000008152600401610dfe9190611d49565b60405180910390fd5b5f73ffffffffffffffffffffffffffffffffffffffff168373ffffffffffffffffffffffffffffffffffffffff1603610e77575f6040517f94280d62000000000000000000000000000000000000000000000000000000008152600401610e6e9190611d49565b60405180910390fd5b8160015f8673ffffffffffffffffffffffffffffffffffffffff1673ffffffffffffffffffffffffffffffffffffffff1681526020019081526020015f205f8573ffffffffffffffffffffffffffffffffffffffff1673ffffffffffffffffffffffffffffffffffffffff1681526020019081526020015f20819055508015610f60578273ffffffffffffffffffffffffffffffffffffffff168473ffffffffffffffffffffffffffffffffffffffff167f8c5be1e5ebec7d5bd14f71427d1e84f3dd0314c0f7b2291e5b200ac8c7c3b92584604051610f5791906117d6565b60405180910390a35b50505050565b5f73ffffffffffffffffffffffffffffffffffffffff168373ffffffffffffffffffffffffffffffffffffffff1603610fb6578060025f828254610faa9190611dc4565b92505081905550611084565b5f805f8573ffffffffffffffffffffffffffffffffffffffff1673ffffffffffffffffffffffffffffffffffffffff1681526020019081526020015f205490508181101561103f578381836040517fe450d38c00000000000000000000000000000000000000000000000000000000815260040161103693929190611d62565b60405180910390fd5b8181035f808673ffffffffffffffffffffffffffffffffffffffff1673ffffffffffffffffffffffffffffffffffffffff1681526020019081526020015f2081905550505b5f73ffffffffffffffffffffffffffffffffffffffff168273ffffffffffffffffffffffffffffffffffffffff16036110cb578060025f8282540392505081905550611115565b805f808473ffffffffffffffffffffffffffffffffffffffff1673ffffffffffffffffffffffffffffffffffffffff1681526020019081526020015f205f82825401925050819055505b8173ffffffffffffffffffffffffffffffffffffffff168373ffffffffffffffffffffffffffffffffffffffff167fddf252ad1be2c89b69c2b068fc378daa952ba7f163c4a11628f55a4df523b3ef8360405161117291906117d6565b60405180910390a3505050565b5f7f8b73c3c69bb8fe3d512ecc4cf759cc79239f7b179b0ffacaa9a75d522b39400f7f00000000000000000000000000000000000000000000000000000000000000007f000000000000000000000000000000000000000000000000000000000000000046306040516020016111f9959493929190611df7565b60405160208183030381529060405280519060200120905090565b606060ff5f1b8314611230576112298361154a565b90506112bb565b81805461123c90611b82565b80601f016020809104026020016040519081016040528092919081815260200182805461126890611b82565b80156112b35780601f1061128a576101008083540402835291602001916112b3565b820191905f5260205f20905b81548152906001019060200180831161129657829003601f168201915b505050505090505b92915050565b5f6040517f190100000000000000000000000000000000000000000000000000000000000081528360028201528260228201526042812091505092915050565b5f805f7f7fffffffffffffffffffffffffffffff5d576e7357a4501ddfe92f46681b20a0845f1c111561133d575f6003859250925092506113de565b5f6001888888886040515f81526020016040526040516113609493929190611e48565b6020604051602081039080840390855afa158015611380573d5f803e3d5ffd5b5050506020604051035190505f73ffffffffffffffffffffffffffffffffffffffff168173ffffffffffffffffffffffffffffffffffffffff16036113d1575f60015f801b935093509350506113de565b805f805f1b935093509350505b9450945094915050565b5f60038111156113fb576113fa611e8b565b5b82600381111561140e5761140d611e8b565b5b0315611546576001600381111561142857611427611e8b565b5b82600381111561143b5761143a611e8b565b5b03611472576040517ff645eedf00000000000000000000000000000000000000000000000000000000815260040160405180910390fd5b6002600381111561148657611485611e8b565b5b82600381111561149957611498611e8b565b5b036114dd57805f1c6040517ffce698f70000000000000000000000000000000000000000000000000000000081526004016114d491906117d6565b60405180910390fd5b6003808111156114f0576114ef611e8b565b5b82600381111561150357611502611e8b565b5b0361154557806040517fd78bce0c00000000000000000000000000000000000000000000000000000000815260040161153c919061188b565b60405180910390fd5b5b5050565b60605f611556836115bc565b90505f602067ffffffffffffffff81111561157457611573611c96565b5b6040519080825280601f01601f1916602001820160405280156115a65781602001600182028036833780820191505090505b5090508181528360208201528092505050919050565b5f8060ff835f1c169050601f811115611601576040517fb3512b0c00000000000000000000000000000000000000000000000000000000815260040160405180910390fd5b80915050919050565b5f81519050919050565b5f82825260208201905092915050565b8281835e5f83830152505050565b5f601f19601f8301169050919050565b5f61164c8261160a565b6116568185611614565b9350611666818560208601611624565b61166f81611632565b840191505092915050565b5f6020820190508181035f8301526116928184611642565b905092915050565b5f80fd5b5f73ffffffffffffffffffffffffffffffffffffffff82169050919050565b5f6116c78261169e565b9050919050565b6116d7816116bd565b81146116e1575f80fd5b50565b5f813590506116f2816116ce565b92915050565b5f819050919050565b61170a816116f8565b8114611714575f80fd5b50565b5f8135905061172581611701565b92915050565b5f80604083850312156117415761174061169a565b5b5f61174e858286016116e4565b925050602061175f85828601611717565b9150509250929050565b5f8115159050919050565b61177d81611769565b82525050565b5f6020820190506117965f830184611774565b92915050565b5f602082840312156117b1576117b061169a565b5b5f6117be848285016116e4565b91505092915050565b6117d0816116f8565b82525050565b5f6020820190506117e95f8301846117c7565b92915050565b5f805f606084860312156118065761180561169a565b5b5f611813868287016116e4565b9350506020611824868287016116e4565b925050604061183586828701611717565b9150509250925092565b5f60ff82169050919050565b6118548161183f565b82525050565b5f60208201905061186d5f83018461184b565b92915050565b5f819050919050565b61188581611873565b82525050565b5f60208201905061189e5f83018461187c565b92915050565b5f7fff0000000000000000000000000000000000000000000000000000000000000082169050919050565b6118d8816118a4565b82525050565b6118e7816116bd565b82525050565b5f81519050919050565b5f82825260208201905092915050565b5f819050602082019050919050565b61191f816116f8565b82525050565b5f6119308383611916565b60208301905092915050565b5f602082019050919050565b5f611952826118ed565b61195c81856118f7565b935061196783611907565b805f5b8381101561199757815161197e8882611925565b97506119898361193c565b92505060018101905061196a565b5085935050505092915050565b5f60e0820190506119b75f83018a6118cf565b81810360208301526119c98189611642565b905081810360408301526119dd8188611642565b90506119ec60608301876117c7565b6119f960808301866118de565b611a0660a083018561187c565b81810360c0830152611a188184611948565b905098975050505050505050565b611a2f8161183f565b8114611a39575f80fd5b50565b5f81359050611a4a81611a26565b92915050565b611a5981611873565b8114611a63575f80fd5b50565b5f81359050611a7481611a50565b92915050565b5f805f805f805f60e0888a031215611a9557611a9461169a565b5b5f611aa28a828b016116e4565b9750506020611ab38a828b016116e4565b9650506040611ac48a828b01611717565b9550506060611ad58a828b01611717565b9450506080611ae68a828b01611a3c565b93505060a0611af78a828b01611a66565b92505060c0611b088a828b01611a66565b91505092959891949750929550565b5f8060408385031215611b2d57611b2c61169a565b5b5f611b3a858286016116e4565b9250506020611b4b858286016116e4565b9150509250929050565b7f4e487b71000000000000000000000000000000000000000000000000000000005f52602260045260245ffd5b5f6002820490506001821680611b9957607f821691505b602082108103611bac57611bab611b55565b5b50919050565b5f604082019050611bc55f8301856118de565b611bd260208301846117c7565b9392505050565b611be281611769565b8114611bec575f80fd5b50565b5f81519050611bfd81611bd9565b92915050565b5f60208284031215611c1857611c1761169a565b5b5f611c2584828501611bef565b91505092915050565b7f4e6f20746f6b656e7352656365697665640000000000000000000000000000005f82015250565b5f611c62601183611614565b9150611c6d82611c2e565b602082019050919050565b5f6020820190508181035f830152611c8f81611c56565b9050919050565b7f4e487b71000000000000000000000000000000000000000000000000000000005f52604160045260245ffd5b5f60c082019050611cd65f83018961187c565b611ce360208301886118de565b611cf060408301876118de565b611cfd60608301866117c7565b611d0a60808301856117c7565b611d1760a08301846117c7565b979650505050505050565b5f604082019050611d355f8301856118de565b611d4260208301846118de565b9392505050565b5f602082019050611d5c5f8301846118de565b92915050565b5f606082019050611d755f8301866118de565b611d8260208301856117c7565b611d8f60408301846117c7565b949350505050565b7f4e487b71000000000000000000000000000000000000000000000000000000005f52601160045260245ffd5b5f611dce826116f8565b9150611dd9836116f8565b9250828201905080821115611df157611df0611d97565b5b92915050565b5f60a082019050611e0a5f83018861187c565b611e17602083018761187c565b611e24604083018661187c565b611e3160608301856117c7565b611e3e60808301846118de565b9695505050505050565b5f608082019050611e5b5f83018761187c565b611e68602083018661184b565b611e75604083018561187c565b611e82606083018461187c565b95945050505050565b7f4e487b71000000000000000000000000000000000000000000000000000000005f52602160045260245ffdfea264697066735822122077977290d0d545e463c4addbc49af2adf636c85b653919bfa185221b17fd097964736f6c634300081a0033","linkReferences":{}},"methodIdentifiers":{"DOMAIN_SEPARATOR()":"3644e515","allowance(address,address)":"dd62ed3e","approve(address,uint256)":"095ea7b3","balanceOf(address)":"70a08231","decimals()":"313ce567","eip712Domain()":"84b0196e","isContract(address)":"16279055","mint(address,uint256)":"40c10f19","name()":"06fdde03","nonces(address)":"7ecebe00","permit(address,address,uint256,uint256,uint8,bytes32,bytes32)":"d505accf","symbol()":"95d89b41","totalSupply()":"18160ddd","transfer(address,uint256)":"a9059cbb","transferFrom(address,address,uint256)":"23b872dd","transferWithCallback(address,uint256)":"1a825b75"},"id":40}