{"abi":[{"type":"constructor","inputs":[{"name":"_tokenAddress","type":"address","internalType":"address"}],"stateMutability":"nonpayable"},{"type":"function","name":"deposit","inputs":[{"name":"_depositAmount","type":"uint256","internalType":"uint256"}],"outputs":[],"stateMutability":"nonpayable"},{"type":"function","name":"permitDeposit","inputs":[{"name":"amount","type":"uint256","internalType":"uint256"},{"name":"deadline","type":"uint256","internalType":"uint256"},{"name":"v","type":"uint8","internalType":"uint8"},{"name":"r","type":"bytes32","internalType":"bytes32"},{"name":"s","type":"bytes32","internalType":"bytes32"}],"outputs":[],"stateMutability":"nonpayable"},{"type":"function","name":"tokenAddress","inputs":[],"outputs":[{"name":"","type":"address","internalType":"address"}],"stateMutability":"view"},{"type":"function","name":"tokenBalances","inputs":[{"name":"","type":"address","internalType":"address"}],"outputs":[{"name":"","type":"uint256","internalType":"uint256"}],"stateMutability":"view"},{"type":"function","name":"tokensReceived","inputs":[{"name":"_sender","type":"address","internalType":"address"},{"name":"_amount","type":"uint256","internalType":"uint256"}],"outputs":[{"name":"","type":"bool","internalType":"bool"}],"stateMutability":"nonpayable"},{"type":"function","name":"withdraw","inputs":[{"name":"_withdrawAmount","type":"uint256","internalType":"uint256"}],"outputs":[],"stateMutability":"nonpayable"},{"type":"event","name":"depositByTokenReceivedLog","inputs":[{"name":"_addr","type":"address","indexed":false,"internalType":"address"},{"name":"balance","type":"uint256","indexed":false,"internalType":"uint256"}],"anonymous":false},{"type":"event","name":"depositLog","inputs":[{"name":"_addr","type":"address","indexed":false,"internalType":"address"},{"name":"balance","type":"uint256","indexed":false,"internalType":"uint256"}],"anonymous":false},{"type":"event","name":"withdrawLog","inputs":[{"name":"_addr","type":"address","indexed":false,"internalType":"address"},{"name":"balance","type":"uint256","indexed":false,"internalType":"uint256"}],"anonymous":false}],"bytecode":{"object":"0x608060405234801561000f575f80fd5b5060405161109e38038061109e833981810160405281019061003191906100d6565b80805f806101000a81548173ffffffffffffffffffffffffffffffffffffffff021916908373ffffffffffffffffffffffffffffffffffffffff1602179055505050610101565b5f80fd5b5f73ffffffffffffffffffffffffffffffffffffffff82169050919050565b5f6100a58261007c565b9050919050565b6100b58161009b565b81146100bf575f80fd5b50565b5f815190506100d0816100ac565b92915050565b5f602082840312156100eb576100ea610078565b5b5f6100f8848285016100c2565b91505092915050565b610f908061010e5f395ff3fe608060405234801561000f575f80fd5b5060043610610060575f3560e01c806324a756d1146100645780632e1a7d4d14610094578063523fba7f146100b05780639d76ea58146100e0578063b6b55f25146100fe578063ce84daad1461011a575b5f80fd5b61007e6004803603810190610079919061097c565b610136565b60405161008b91906109d4565b60405180910390f35b6100ae60048036038101906100a991906109ed565b61029c565b005b6100ca60048036038101906100c59190610a18565b6104c6565b6040516100d79190610a52565b60405180910390f35b6100e86104db565b6040516100f59190610a7a565b60405180910390f35b610118600480360381019061011391906109ed565b6104fe565b005b610134600480360381019061012f9190610afc565b6106aa565b005b5f808211610179576040517f08c379a000000000000000000000000000000000000000000000000000000000815260040161017090610bcd565b60405180910390fd5b5f8054906101000a900473ffffffffffffffffffffffffffffffffffffffff1673ffffffffffffffffffffffffffffffffffffffff163373ffffffffffffffffffffffffffffffffffffffff1614610206576040517f08c379a00000000000000000000000000000000000000000000000000000000081526004016101fd90610c35565b60405180910390fd5b8160015f8573ffffffffffffffffffffffffffffffffffffffff1673ffffffffffffffffffffffffffffffffffffffff1681526020019081526020015f205f8282546102529190610c80565b925050819055507f4bb44a171484c9764bc51ec343b262f2f34d6cd7ee3e59f555270006f42fdc44838360405161028a929190610cb3565b60405180910390a16001905092915050565b5f81116102de576040517f08c379a00000000000000000000000000000000000000000000000000000000081526004016102d590610bcd565b60405180910390fd5b8060015f3373ffffffffffffffffffffffffffffffffffffffff1673ffffffffffffffffffffffffffffffffffffffff1681526020019081526020015f2054101561035e576040517f08c379a000000000000000000000000000000000000000000000000000000000815260040161035590610d24565b60405180910390fd5b5f8054906101000a900473ffffffffffffffffffffffffffffffffffffffff1673ffffffffffffffffffffffffffffffffffffffff1663a9059cbb33836040518363ffffffff1660e01b81526004016103b8929190610cb3565b6020604051808303815f875af11580156103d4573d5f803e3d5ffd5b505050506040513d601f19601f820116820180604052508101906103f89190610d6c565b610437576040517f08c379a000000000000000000000000000000000000000000000000000000000815260040161042e90610de1565b60405180910390fd5b8060015f3373ffffffffffffffffffffffffffffffffffffffff1673ffffffffffffffffffffffffffffffffffffffff1681526020019081526020015f205f8282546104839190610dff565b925050819055507ff74fad994845ef73476114306db4fb3ddeafc0141ecbc906ba670c6d1f037dc633826040516104bb929190610cb3565b60405180910390a150565b6001602052805f5260405f205f915090505481565b5f8054906101000a900473ffffffffffffffffffffffffffffffffffffffff1681565b5f8111610540576040517f08c379a000000000000000000000000000000000000000000000000000000000815260040161053790610bcd565b60405180910390fd5b5f8054906101000a900473ffffffffffffffffffffffffffffffffffffffff1673ffffffffffffffffffffffffffffffffffffffff166323b872dd3330846040518463ffffffff1660e01b815260040161059c93929190610e32565b6020604051808303815f875af11580156105b8573d5f803e3d5ffd5b505050506040513d601f19601f820116820180604052508101906105dc9190610d6c565b61061b576040517f08c379a000000000000000000000000000000000000000000000000000000000815260040161061290610eb1565b60405180910390fd5b8060015f3373ffffffffffffffffffffffffffffffffffffffff1673ffffffffffffffffffffffffffffffffffffffff1681526020019081526020015f205f8282546106679190610c80565b925050819055507fe0fbaffdb15cdfab5c685e516e471beb5234983e0f91c3330c780901fca28c82338260405161069f929190610cb3565b60405180910390a150565b5f8054906101000a900473ffffffffffffffffffffffffffffffffffffffff1673ffffffffffffffffffffffffffffffffffffffff1663d505accf333088888888886040518863ffffffff1660e01b815260040161070e9796959493929190610eed565b5f604051808303815f87803b158015610725575f80fd5b505af1158015610737573d5f803e3d5ffd5b505050505f851161077d576040517f08c379a000000000000000000000000000000000000000000000000000000000815260040161077490610bcd565b60405180910390fd5b5f8054906101000a900473ffffffffffffffffffffffffffffffffffffffff1673ffffffffffffffffffffffffffffffffffffffff166323b872dd3330886040518463ffffffff1660e01b81526004016107d993929190610e32565b6020604051808303815f875af11580156107f5573d5f803e3d5ffd5b505050506040513d601f19601f820116820180604052508101906108199190610d6c565b610858576040517f08c379a000000000000000000000000000000000000000000000000000000000815260040161084f90610eb1565b60405180910390fd5b8460015f3373ffffffffffffffffffffffffffffffffffffffff1673ffffffffffffffffffffffffffffffffffffffff1681526020019081526020015f205f8282546108a49190610c80565b925050819055507fe0fbaffdb15cdfab5c685e516e471beb5234983e0f91c3330c780901fca28c8233866040516108dc929190610cb3565b60405180910390a15050505050565b5f80fd5b5f73ffffffffffffffffffffffffffffffffffffffff82169050919050565b5f610918826108ef565b9050919050565b6109288161090e565b8114610932575f80fd5b50565b5f813590506109438161091f565b92915050565b5f819050919050565b61095b81610949565b8114610965575f80fd5b50565b5f8135905061097681610952565b92915050565b5f8060408385031215610992576109916108eb565b5b5f61099f85828601610935565b92505060206109b085828601610968565b9150509250929050565b5f8115159050919050565b6109ce816109ba565b82525050565b5f6020820190506109e75f8301846109c5565b92915050565b5f60208284031215610a0257610a016108eb565b5b5f610a0f84828501610968565b91505092915050565b5f60208284031215610a2d57610a2c6108eb565b5b5f610a3a84828501610935565b91505092915050565b610a4c81610949565b82525050565b5f602082019050610a655f830184610a43565b92915050565b610a748161090e565b82525050565b5f602082019050610a8d5f830184610a6b565b92915050565b5f60ff82169050919050565b610aa881610a93565b8114610ab2575f80fd5b50565b5f81359050610ac381610a9f565b92915050565b5f819050919050565b610adb81610ac9565b8114610ae5575f80fd5b50565b5f81359050610af681610ad2565b92915050565b5f805f805f60a08688031215610b1557610b146108eb565b5b5f610b2288828901610968565b9550506020610b3388828901610968565b9450506040610b4488828901610ab5565b9350506060610b5588828901610ae8565b9250506080610b6688828901610ae8565b9150509295509295909350565b5f82825260208201905092915050565b7f6d757374203e207a65726f20616d6f756e7400000000000000000000000000005f82015250565b5f610bb7601283610b73565b9150610bc282610b83565b602082019050919050565b5f6020820190508181035f830152610be481610bab565b9050919050565b7f63616e27742072656365697665210000000000000000000000000000000000005f82015250565b5f610c1f600e83610b73565b9150610c2a82610beb565b602082019050919050565b5f6020820190508181035f830152610c4c81610c13565b9050919050565b7f4e487b71000000000000000000000000000000000000000000000000000000005f52601160045260245ffd5b5f610c8a82610949565b9150610c9583610949565b9250828201905080821115610cad57610cac610c53565b5b92915050565b5f604082019050610cc65f830185610a6b565b610cd36020830184610a43565b9392505050565b7f6e6f7420656e6f75676820746f6b656e2062616c616e636521000000000000005f82015250565b5f610d0e601983610b73565b9150610d1982610cda565b602082019050919050565b5f6020820190508181035f830152610d3b81610d02565b9050919050565b610d4b816109ba565b8114610d55575f80fd5b50565b5f81519050610d6681610d42565b92915050565b5f60208284031215610d8157610d806108eb565b5b5f610d8e84828501610d58565b91505092915050565b7f7769746864726177206661696c656421000000000000000000000000000000005f82015250565b5f610dcb601083610b73565b9150610dd682610d97565b602082019050919050565b5f6020820190508181035f830152610df881610dbf565b9050919050565b5f610e0982610949565b9150610e1483610949565b9250828203905081811115610e2c57610e2b610c53565b5b92915050565b5f606082019050610e455f830186610a6b565b610e526020830185610a6b565b610e5f6040830184610a43565b949350505050565b7f7472616e73666572206661696c656421000000000000000000000000000000005f82015250565b5f610e9b601083610b73565b9150610ea682610e67565b602082019050919050565b5f6020820190508181035f830152610ec881610e8f565b9050919050565b610ed881610a93565b82525050565b610ee781610ac9565b82525050565b5f60e082019050610f005f83018a610a6b565b610f0d6020830189610a6b565b610f1a6040830188610a43565b610f276060830187610a43565b610f346080830186610ecf565b610f4160a0830185610ede565b610f4e60c0830184610ede565b9897505050505050505056fea2646970667358221220b2f2111fd81049f60a708a8fa775e701707133b6c4f50d04dd48de751f6edb9364736f6c634300081a0033","linkReferences":{}},"methodIdentifiers":{"deposit(uint256)":"b6b55f25","permitDeposit(uint256,uint256,uint8,bytes32,bytes32)":"ce84daad","tokenAddress()":"9d76ea58","tokenBalances(address)":"523fba7f","tokensReceived(address,uint256)":"24a756d1","withdraw(uint256)":"2e1a7d4d"},"id":3}