{"abi":[{"type":"constructor","inputs":[{"name":"_tokenAddress","type":"address","internalType":"address"}],"stateMutability":"nonpayable"},{"type":"function","name":"deposit","inputs":[{"name":"_depositAmount","type":"uint256","internalType":"uint256"}],"outputs":[],"stateMutability":"nonpayable"},{"type":"function","name":"tokenAddress","inputs":[],"outputs":[{"name":"","type":"address","internalType":"address"}],"stateMutability":"view"},{"type":"function","name":"tokenBalances","inputs":[{"name":"","type":"address","internalType":"address"}],"outputs":[{"name":"","type":"uint256","internalType":"uint256"}],"stateMutability":"view"},{"type":"function","name":"withdraw","inputs":[{"name":"_withdrawAmount","type":"uint256","internalType":"uint256"}],"outputs":[],"stateMutability":"nonpayable"},{"type":"event","name":"depositLog","inputs":[{"name":"_addr","type":"address","indexed":false,"internalType":"address"},{"name":"balance","type":"uint256","indexed":false,"internalType":"uint256"}],"anonymous":false},{"type":"event","name":"withdrawLog","inputs":[{"name":"_addr","type":"address","indexed":false,"internalType":"address"},{"name":"balance","type":"uint256","indexed":false,"internalType":"uint256"}],"anonymous":false}],"bytecode":{"object":"0x608060405234801561000f575f80fd5b50604051610a5a380380610a5a833981810160405281019061003191906100d4565b805f806101000a81548173ffffffffffffffffffffffffffffffffffffffff021916908373ffffffffffffffffffffffffffffffffffffffff160217905550506100ff565b5f80fd5b5f73ffffffffffffffffffffffffffffffffffffffff82169050919050565b5f6100a38261007a565b9050919050565b6100b381610099565b81146100bd575f80fd5b50565b5f815190506100ce816100aa565b92915050565b5f602082840312156100e9576100e8610076565b5b5f6100f6848285016100c0565b91505092915050565b61094e8061010c5f395ff3fe608060405234801561000f575f80fd5b506004361061004a575f3560e01c80632e1a7d4d1461004e578063523fba7f1461006a5780639d76ea581461009a578063b6b55f25146100b8575b5f80fd5b61006860048036038101906100639190610519565b6100d4565b005b610084600480360381019061007f919061059e565b6102fe565b60405161009191906105d8565b60405180910390f35b6100a2610313565b6040516100af9190610600565b60405180910390f35b6100d260048036038101906100cd9190610519565b610336565b005b5f8111610116576040517f08c379a000000000000000000000000000000000000000000000000000000000815260040161010d90610673565b60405180910390fd5b8060015f3373ffffffffffffffffffffffffffffffffffffffff1673ffffffffffffffffffffffffffffffffffffffff1681526020019081526020015f20541015610196576040517f08c379a000000000000000000000000000000000000000000000000000000000815260040161018d906106db565b60405180910390fd5b5f8054906101000a900473ffffffffffffffffffffffffffffffffffffffff1673ffffffffffffffffffffffffffffffffffffffff1663a9059cbb33836040518363ffffffff1660e01b81526004016101f09291906106f9565b6020604051808303815f875af115801561020c573d5f803e3d5ffd5b505050506040513d601f19601f820116820180604052508101906102309190610755565b61026f576040517f08c379a0000000000000000000000000000000000000000000000000000000008152600401610266906107ca565b60405180910390fd5b8060015f3373ffffffffffffffffffffffffffffffffffffffff1673ffffffffffffffffffffffffffffffffffffffff1681526020019081526020015f205f8282546102bb9190610815565b925050819055507ff74fad994845ef73476114306db4fb3ddeafc0141ecbc906ba670c6d1f037dc633826040516102f39291906106f9565b60405180910390a150565b6001602052805f5260405f205f915090505481565b5f8054906101000a900473ffffffffffffffffffffffffffffffffffffffff1681565b5f8111610378576040517f08c379a000000000000000000000000000000000000000000000000000000000815260040161036f90610673565b60405180910390fd5b5f8054906101000a900473ffffffffffffffffffffffffffffffffffffffff1673ffffffffffffffffffffffffffffffffffffffff166323b872dd3330846040518463ffffffff1660e01b81526004016103d493929190610848565b6020604051808303815f875af11580156103f0573d5f803e3d5ffd5b505050506040513d601f19601f820116820180604052508101906104149190610755565b610453576040517f08c379a000000000000000000000000000000000000000000000000000000000815260040161044a906108c7565b60405180910390fd5b8060015f3373ffffffffffffffffffffffffffffffffffffffff1673ffffffffffffffffffffffffffffffffffffffff1681526020019081526020015f205f82825461049f91906108e5565b925050819055507fe0fbaffdb15cdfab5c685e516e471beb5234983e0f91c3330c780901fca28c8233826040516104d79291906106f9565b60405180910390a150565b5f80fd5b5f819050919050565b6104f8816104e6565b8114610502575f80fd5b50565b5f81359050610513816104ef565b92915050565b5f6020828403121561052e5761052d6104e2565b5b5f61053b84828501610505565b91505092915050565b5f73ffffffffffffffffffffffffffffffffffffffff82169050919050565b5f61056d82610544565b9050919050565b61057d81610563565b8114610587575f80fd5b50565b5f8135905061059881610574565b92915050565b5f602082840312156105b3576105b26104e2565b5b5f6105c08482850161058a565b91505092915050565b6105d2816104e6565b82525050565b5f6020820190506105eb5f8301846105c9565b92915050565b6105fa81610563565b82525050565b5f6020820190506106135f8301846105f1565b92915050565b5f82825260208201905092915050565b7f6d757374203e207a65726f20616d6f756e7400000000000000000000000000005f82015250565b5f61065d601283610619565b915061066882610629565b602082019050919050565b5f6020820190508181035f83015261068a81610651565b9050919050565b7f6e6f7420656e6f75676820746f6b656e2062616c616e636521000000000000005f82015250565b5f6106c5601983610619565b91506106d082610691565b602082019050919050565b5f6020820190508181035f8301526106f2816106b9565b9050919050565b5f60408201905061070c5f8301856105f1565b61071960208301846105c9565b9392505050565b5f8115159050919050565b61073481610720565b811461073e575f80fd5b50565b5f8151905061074f8161072b565b92915050565b5f6020828403121561076a576107696104e2565b5b5f61077784828501610741565b91505092915050565b7f7769746864726177206661696c656421000000000000000000000000000000005f82015250565b5f6107b4601083610619565b91506107bf82610780565b602082019050919050565b5f6020820190508181035f8301526107e1816107a8565b9050919050565b7f4e487b71000000000000000000000000000000000000000000000000000000005f52601160045260245ffd5b5f61081f826104e6565b915061082a836104e6565b9250828203905081811115610842576108416107e8565b5b92915050565b5f60608201905061085b5f8301866105f1565b61086860208301856105f1565b61087560408301846105c9565b949350505050565b7f7472616e73666572206661696c656421000000000000000000000000000000005f82015250565b5f6108b1601083610619565b91506108bc8261087d565b602082019050919050565b5f6020820190508181035f8301526108de816108a5565b9050919050565b5f6108ef826104e6565b91506108fa836104e6565b9250828201905080821115610912576109116107e8565b5b9291505056fea2646970667358221220b25a232614342835640e5989910da01cf192c7880f7832fc18ad882451edf6a364736f6c634300081a0033","linkReferences":{}},"methodIdentifiers":{"deposit(uint256)":"b6b55f25","tokenAddress()":"9d76ea58","tokenBalances(address)":"523fba7f","withdraw(uint256)":"2e1a7d4d"},"id":6}