{"abi":[{"type":"constructor","inputs":[],"stateMutability":"nonpayable"},{"type":"receive","stateMutability":"payable"},{"type":"function","name":"allowance","inputs":[{"name":"owner","type":"address","internalType":"address"},{"name":"spender","type":"address","internalType":"address"}],"outputs":[{"name":"","type":"uint256","internalType":"uint256"}],"stateMutability":"view"},{"type":"function","name":"approve","inputs":[{"name":"spender","type":"address","internalType":"address"},{"name":"value","type":"uint256","internalType":"uint256"}],"outputs":[{"name":"","type":"bool","internalType":"bool"}],"stateMutability":"nonpayable"},{"type":"function","name":"balanceOf","inputs":[{"name":"account","type":"address","internalType":"address"}],"outputs":[{"name":"","type":"uint256","internalType":"uint256"}],"stateMutability":"view"},{"type":"function","name":"creator","inputs":[],"outputs":[{"name":"","type":"address","internalType":"address"}],"stateMutability":"view"},{"type":"function","name":"decimals","inputs":[],"outputs":[{"name":"","type":"uint8","internalType":"uint8"}],"stateMutability":"view"},{"type":"function","name":"factory","inputs":[],"outputs":[{"name":"","type":"address","internalType":"address"}],"stateMutability":"view"},{"type":"function","name":"initialize","inputs":[{"name":"tokenSymbol","type":"string","internalType":"string"},{"name":"_totalSupplyLimit","type":"uint256","internalType":"uint256"},{"name":"_perMint","type":"uint256","internalType":"uint256"},{"name":"_price","type":"uint256","internalType":"uint256"},{"name":"_creator","type":"address","internalType":"address"}],"outputs":[],"stateMutability":"nonpayable"},{"type":"function","name":"mintPrice","inputs":[],"outputs":[{"name":"","type":"uint256","internalType":"uint256"}],"stateMutability":"view"},{"type":"function","name":"mintTo","inputs":[{"name":"to","type":"address","internalType":"address"}],"outputs":[],"stateMutability":"payable"},{"type":"function","name":"name","inputs":[],"outputs":[{"name":"","type":"string","internalType":"string"}],"stateMutability":"view"},{"type":"function","name":"owner","inputs":[],"outputs":[{"name":"","type":"address","internalType":"address"}],"stateMutability":"view"},{"type":"function","name":"perMintAmount","inputs":[],"outputs":[{"name":"","type":"uint256","internalType":"uint256"}],"stateMutability":"view"},{"type":"function","name":"renounceOwnership","inputs":[],"outputs":[],"stateMutability":"nonpayable"},{"type":"function","name":"symbol","inputs":[],"outputs":[{"name":"","type":"string","internalType":"string"}],"stateMutability":"view"},{"type":"function","name":"totalMinted","inputs":[],"outputs":[{"name":"","type":"uint256","internalType":"uint256"}],"stateMutability":"view"},{"type":"function","name":"totalSupply","inputs":[],"outputs":[{"name":"","type":"uint256","internalType":"uint256"}],"stateMutability":"view"},{"type":"function","name":"totalSupplyLimit","inputs":[],"outputs":[{"name":"","type":"uint256","internalType":"uint256"}],"stateMutability":"view"},{"type":"function","name":"transfer","inputs":[{"name":"to","type":"address","internalType":"address"},{"name":"value","type":"uint256","internalType":"uint256"}],"outputs":[{"name":"","type":"bool","internalType":"bool"}],"stateMutability":"nonpayable"},{"type":"function","name":"transferFrom","inputs":[{"name":"from","type":"address","internalType":"address"},{"name":"to","type":"address","internalType":"address"},{"name":"value","type":"uint256","internalType":"uint256"}],"outputs":[{"name":"","type":"bool","internalType":"bool"}],"stateMutability":"nonpayable"},{"type":"function","name":"transferOwnership","inputs":[{"name":"newOwner","type":"address","internalType":"address"}],"outputs":[],"stateMutability":"nonpayable"},{"type":"function","name":"withdraw","inputs":[],"outputs":[],"stateMutability":"nonpayable"},{"type":"event","name":"Approval","inputs":[{"name":"owner","type":"address","indexed":true,"internalType":"address"},{"name":"spender","type":"address","indexed":true,"internalType":"address"},{"name":"value","type":"uint256","indexed":false,"internalType":"uint256"}],"anonymous":false},{"type":"event","name":"OwnershipTransferred","inputs":[{"name":"previousOwner","type":"address","indexed":true,"internalType":"address"},{"name":"newOwner","type":"address","indexed":true,"internalType":"address"}],"anonymous":false},{"type":"event","name":"Transfer","inputs":[{"name":"from","type":"address","indexed":true,"internalType":"address"},{"name":"to","type":"address","indexed":true,"internalType":"address"},{"name":"value","type":"uint256","indexed":false,"internalType":"uint256"}],"anonymous":false},{"type":"error","name":"ERC20InsufficientAllowance","inputs":[{"name":"spender","type":"address","internalType":"address"},{"name":"allowance","type":"uint256","internalType":"uint256"},{"name":"needed","type":"uint256","internalType":"uint256"}]},{"type":"error","name":"ERC20InsufficientBalance","inputs":[{"name":"sender","type":"address","internalType":"address"},{"name":"balance","type":"uint256","internalType":"uint256"},{"name":"needed","type":"uint256","internalType":"uint256"}]},{"type":"error","name":"ERC20InvalidApprover","inputs":[{"name":"approver","type":"address","internalType":"address"}]},{"type":"error","name":"ERC20InvalidReceiver","inputs":[{"name":"receiver","type":"address","internalType":"address"}]},{"type":"error","name":"ERC20InvalidSender","inputs":[{"name":"sender","type":"address","internalType":"address"}]},{"type":"error","name":"ERC20InvalidSpender","inputs":[{"name":"spender","type":"address","internalType":"address"}]},{"type":"error","name":"OwnableInvalidOwner","inputs":[{"name":"owner","type":"address","internalType":"address"}]},{"type":"error","name":"OwnableUnauthorizedAccount","inputs":[{"name":"account","type":"address","internalType":"address"}]}],"bytecode":{"object":"0x60a06040523462000343576200001462000347565b6200001e62000347565b8151906001600160401b03908183116200024e576003908154906001948583811c931696871562000338575b6020978885101462000324578190601f94858111620002d1575b5088908583116001146200026e575f9262000262575b50505f1982861b1c191690861b1783555b80519384116200024e5760049586548681811c9116801562000243575b828210146200023057838111620001e8575b50809285116001146200017e57509383949184925f9562000172575b50501b925f19911b1c19161781555b33156200015b5760058054336001600160a01b03198216811790925560405191906001600160a01b03167f8be0079c531659141344cd1fd0a4f28419497f9722a3daafe3b4186f6b6457e05f80a3336080526110bf90816200036b82396080518181816101c9015281816104f601526106900152f35b6024905f60405191631e4fbdf760e01b8352820152fd5b015193505f80620000d6565b92919084601f198116885f52855f20955f905b89838310620001cd5750505010620001b3575b50505050811b018155620000e5565b01519060f8845f19921b161c191690555f808080620001a4565b85870151895590970196948501948893509081019062000191565b875f52815f208480880160051c82019284891062000226575b0160051c019087905b8281106200021a575050620000ba565b5f81550187906200020a565b9250819262000201565b602288634e487b7160e01b5f525260245ffd5b90607f1690620000a8565b634e487b7160e01b5f52604160045260245ffd5b015190505f806200007a565b90889350601f19831691875f528a5f20925f5b8c828210620002ba5750508411620002a2575b505050811b0183556200008b565b01515f1983881b60f8161c191690555f808062000294565b8385015186558c9790950194938401930162000281565b909150855f52885f208580850160051c8201928b86106200031a575b918a91869594930160051c01915b8281106200030b57505062000064565b5f81558594508a9101620002fb565b92508192620002ed565b634e487b7160e01b5f52602260045260245ffd5b92607f16926200004a565b5f80fd5b60405190602082016001600160401b038111838210176200024e576040525f825256fe60806040818152600480361015610020575b505050361561001e575f80fd5b005b5f92833560e01c90816302d05d3f14610ded5750806306fdde0314610d43578063095ea7b314610c9a57806318160ddd14610c7b57806323b872dd14610b89578063313ce56714610b6d5780633ccfd60b14610a4c578063631831fb146105f6578063663fc07b146105d75780636817c76c146105b857806370a0823114610581578063715018a614610521578063755edd17146103715780638da5cb5b1461034857806395d89b4114610267578063a2309ff814610248578063a9059cbb14610217578063bac21a22146101f8578063c45a0155146101b4578063dd62ed3e146101675763f2fde38b03610011573461016357602036600319011261016357610128610e5f565b91610131610ee1565b6001600160a01b0383161561014d578361014a84610f0d565b80f35b51631e4fbdf760e01b8152908101839052602490fd5b8280fd5b5050346101b057806003193601126101b05780602092610185610e5f565b61018d610e79565b6001600160a01b0391821683526001865283832091168252845220549051908152f35b5080fd5b5050346101b057816003193601126101b057517f00000000000000000000000000000000000000000000000000000000000000006001600160a01b03168152602090f35b5050346101b057816003193601126101b0576020906006549051908152f35b5050346101b057806003193601126101b057602090610241610237610e5f565b6024359033610f55565b5160018152f35b5050346101b057816003193601126101b057602090600a549051908152f35b5050346101b057816003193601126101b05780519082600d5461028981611051565b8085529160019180831690811561032057506001146102c3575b5050506102b5826102bf940383610e8f565b5191829182610e33565b0390f35b9450600d85527fd7b6990105719101dabeb77144f2a3385c8033acd3af97e9423a695e81ad1eb55b828610610308575050506102b58260206102bf95820101946102a3565b805460208787018101919091529095019481016102eb565b6102bf9750869350602092506102b594915060ff191682840152151560051b820101946102a3565b5050346101b057816003193601126101b05760055490516001600160a01b039091168152602090f35b50906020908160031936011261051d57610389610e5f565b9060018060a01b038060095416331480156104f2575b156104b157600854341061047757600a5492600754936103bf8582611030565b6006541061043d57846103d191611030565b600a551693841561042857509181859361040e7fddf252ad1be2c89b69c2b068fc378daa952ba7f163c4a11628f55a4df523b3ef94600254611030565b60025585855284835280852082815401905551908152a380f35b85602492519163ec442f0560e01b8352820152fd5b835162461bcd60e51b815280880187905260146024820152734578636565647320746f74616c20737570706c7960601b6044820152606490fd5b815162461bcd60e51b81528086018590526014602482015273125b9cdd59999a58da595b9d081c185e5b595b9d60621b6044820152606490fd5b606485858085519262461bcd60e51b845283015260248201527f4f6e6c792063726561746f72206f7220666163746f72792063616e206d696e746044820152fd5b50807f000000000000000000000000000000000000000000000000000000000000000016331461039f565b8380fd5b833461057e578060031936011261057e5761053a610ee1565b600580546001600160a01b0319811690915581906001600160a01b03167f8be0079c531659141344cd1fd0a4f28419497f9722a3daafe3b4186f6b6457e08280a380f35b80fd5b5050346101b05760203660031901126101b05760209181906001600160a01b036105a9610e5f565b16815280845220549051908152f35b5050346101b057816003193601126101b0576020906008549051908152f35b5050346101b057816003193601126101b0576020906007549051908152f35b508290346101b05760a03660031901126101b05767ffffffffffffffff92813584811161051d573660238201121561051d57808301359261063684610ec5565b9361064384519586610e8f565b8085526020948581019160249436868383010111610a4857818992878a9301863783010152608435956001600160a01b0380881696909490878903610a4457600b549560ff8716610a0d577f00000000000000000000000000000000000000000000000000000000000000001633036109cd576001809660ff191617600b555180946b024b739b1b934b83a34b7b7160a51b848301526106ea85518092602c850190610e12565b810103610701602c600c9283810188520186610e8f565b84518b81116109bb57806107158354611051565b96601f9788811161094c575b5085908d8984116001146108d057926108c5575b50505f19600383901b1c191690871b1790555b8251998a116108b3575061075d600d54611051565b838111610851575b50809289116001146107cd57509680928192889961014a99946107c2575b50501b915f199060031b1c191617600d555b356006556044356007556064356008556bffffffffffffffffffffffff60a01b6009541617600955610f0d565b015192508980610783565b600d8852601f19891698927fd7b6990105719101dabeb77144f2a3385c8033acd3af97e9423a695e81ad1eb592909189905b8b821061083a5750508361014a999a10610822575b505050811b01600d55610795565b01515f1960f88460031b161c19169055878080610814565b8087859682949686015181550195019301906107ff565b600d89527fd7b6990105719101dabeb77144f2a3385c8033acd3af97e9423a695e81ad1eb584808c0160051c820192848d106108aa575b0160051c019085905b82811061089f575050610765565b8a8155018590610891565b92508192610888565b634e487b7160e01b8952604190528488fd5b015190508d80610735565b91908a9450601f1984168684527fdf6966c971051c3d54ec59162606531493a51404a002842f56009d7e5cf4a8c7935b89828210610936575050841161091e575b505050811b019055610748565b01515f1960f88460031b161c191690558d8080610911565b8385015186558d97909501949384019301610900565b909150838d527fdf6966c971051c3d54ec59162606531493a51404a002842f56009d7e5cf4a8c78880850160051c8201928886106109b2575b859493910160051c909101908a908f5b8382106109a457505050610721565b81558594508b91018f610995565b92508192610985565b634e487b7160e01b8b5260418352878bfd5b86606493601b92519362461bcd60e51b85528401528201527f4f6e6c7920666163746f72792063616e20696e697469616c697a6500000000006044820152fd5b5086606493601392519362461bcd60e51b855284015282015272105b1c9958591e481a5b9a5d1a585b1a5e9959606a1b6044820152fd5b8980fd5b8880fd5b5090346101635782600319360112610163576009546001600160a01b031633819003610b2a5747908115610aee578480809381935af13d15610ae9573d610a9281610ec5565b90610a9f84519283610e8f565b81528460203d92013e5b15610ab2578280f35b906020606492519162461bcd60e51b8352820152601160248201527015da5d1a191c985dd85b0819985a5b1959607a1b6044820152fd5b610aa9565b825162461bcd60e51b815260208186015260166024820152754e6f2062616c616e636520746f20776974686472617760501b6044820152606490fd5b815162461bcd60e51b8152602081850152601960248201527f4f6e6c792063726561746f722063616e207769746864726177000000000000006044820152606490fd5b5050346101b057816003193601126101b0576020905160128152f35b50823461057e57606036600319011261057e57610ba4610e5f565b610bac610e79565b916044359360018060a01b038316808352600160205286832033845260205286832054915f198310610be7575b602088610241898989610f55565b868310610c4f578115610c38573315610c215750825260016020908152868320338452815291869020908590039055829061024187610bd9565b8751634a1406b160e11b8152908101849052602490fd5b875163e602df0560e01b8152908101849052602490fd5b8751637dc7a0d960e11b8152339181019182526020820193909352604081018790528291506060010390fd5b5050346101b057816003193601126101b0576020906002549051908152f35b5034610163578160031936011261016357610cb3610e5f565b602435903315610d2c576001600160a01b0316918215610d1557508083602095338152600187528181208582528752205582519081527f8c5be1e5ebec7d5bd14f71427d1e84f3dd0314c0f7b2291e5b200ac8c7c3b925843392a35160018152f35b8351634a1406b160e11b8152908101859052602490fd5b835163e602df0560e01b8152808401869052602490fd5b5050346101b057816003193601126101b05780519082600c54610d6581611051565b808552916001918083169081156103205750600114610d90575050506102b5826102bf940383610e8f565b9450600c85527fdf6966c971051c3d54ec59162606531493a51404a002842f56009d7e5cf4a8c75b828610610dd5575050506102b58260206102bf95820101946102a3565b80546020878701810191909152909501948101610db8565b8490346101b057816003193601126101b0576009546001600160a01b03168152602090f35b5f5b838110610e235750505f910152565b8181015183820152602001610e14565b60409160208252610e538151809281602086015260208686019101610e12565b601f01601f1916010190565b600435906001600160a01b0382168203610e7557565b5f80fd5b602435906001600160a01b0382168203610e7557565b90601f8019910116810190811067ffffffffffffffff821117610eb157604052565b634e487b7160e01b5f52604160045260245ffd5b67ffffffffffffffff8111610eb157601f01601f191660200190565b6005546001600160a01b03163303610ef557565b60405163118cdaa760e01b8152336004820152602490fd5b600580546001600160a01b039283166001600160a01b0319821681179092559091167f8be0079c531659141344cd1fd0a4f28419497f9722a3daafe3b4186f6b6457e05f80a3565b916001600160a01b038084169283156110185716928315611000575f9083825281602052604082205490838210610fce575091604082827fddf252ad1be2c89b69c2b068fc378daa952ba7f163c4a11628f55a4df523b3ef958760209652828652038282205586815220818154019055604051908152a3565b60405163391434e360e21b81526001600160a01b03919091166004820152602481019190915260448101839052606490fd5b60405163ec442f0560e01b81525f6004820152602490fd5b604051634b637e8f60e11b81525f6004820152602490fd5b9190820180921161103d57565b634e487b7160e01b5f52601160045260245ffd5b90600182811c9216801561107f575b602083101461106b57565b634e487b7160e01b5f52602260045260245ffd5b91607f169161106056fea264697066735822122085a87831318b72799f5b77c5821dd9de0dac8efc30235f49f774e7a5e3c369a964736f6c63430008140033","linkReferences":{}},"methodIdentifiers":{"allowance(address,address)":"dd62ed3e","approve(address,uint256)":"095ea7b3","balanceOf(address)":"70a08231","creator()":"02d05d3f","decimals()":"313ce567","factory()":"c45a0155","initialize(string,uint256,uint256,uint256,address)":"631831fb","mintPrice()":"6817c76c","mintTo(address)":"755edd17","name()":"06fdde03","owner()":"8da5cb5b","perMintAmount()":"663fc07b","renounceOwnership()":"715018a6","symbol()":"95d89b41","totalMinted()":"a2309ff8","totalSupply()":"18160ddd","totalSupplyLimit()":"bac21a22","transfer(address,uint256)":"a9059cbb","transferFrom(address,address,uint256)":"23b872dd","transferOwnership(address)":"f2fde38b","withdraw()":"3ccfd60b"},"id":41}