{"abi":[{"type":"constructor","inputs":[],"stateMutability":"nonpayable"},{"type":"receive","stateMutability":"payable"},{"type":"function","name":"allowance","inputs":[{"name":"owner","type":"address","internalType":"address"},{"name":"spender","type":"address","internalType":"address"}],"outputs":[{"name":"","type":"uint256","internalType":"uint256"}],"stateMutability":"view"},{"type":"function","name":"approve","inputs":[{"name":"spender","type":"address","internalType":"address"},{"name":"value","type":"uint256","internalType":"uint256"}],"outputs":[{"name":"","type":"bool","internalType":"bool"}],"stateMutability":"nonpayable"},{"type":"function","name":"balanceOf","inputs":[{"name":"account","type":"address","internalType":"address"}],"outputs":[{"name":"","type":"uint256","internalType":"uint256"}],"stateMutability":"view"},{"type":"function","name":"creator","inputs":[],"outputs":[{"name":"","type":"address","internalType":"address"}],"stateMutability":"view"},{"type":"function","name":"decimals","inputs":[],"outputs":[{"name":"","type":"uint8","internalType":"uint8"}],"stateMutability":"view"},{"type":"function","name":"factory","inputs":[],"outputs":[{"name":"","type":"address","internalType":"address"}],"stateMutability":"view"},{"type":"function","name":"initialize","inputs":[{"name":"tokenSymbol","type":"string","internalType":"string"},{"name":"_totalSupplyLimit","type":"uint256","internalType":"uint256"},{"name":"_perMint","type":"uint256","internalType":"uint256"},{"name":"_price","type":"uint256","internalType":"uint256"},{"name":"_creator","type":"address","internalType":"address"}],"outputs":[],"stateMutability":"nonpayable"},{"type":"function","name":"mintPrice","inputs":[],"outputs":[{"name":"","type":"uint256","internalType":"uint256"}],"stateMutability":"view"},{"type":"function","name":"mintTo","inputs":[{"name":"to","type":"address","internalType":"address"}],"outputs":[],"stateMutability":"payable"},{"type":"function","name":"name","inputs":[],"outputs":[{"name":"","type":"string","internalType":"string"}],"stateMutability":"view"},{"type":"function","name":"owner","inputs":[],"outputs":[{"name":"","type":"address","internalType":"address"}],"stateMutability":"view"},{"type":"function","name":"perMintAmount","inputs":[],"outputs":[{"name":"","type":"uint256","internalType":"uint256"}],"stateMutability":"view"},{"type":"function","name":"renounceOwnership","inputs":[],"outputs":[],"stateMutability":"nonpayable"},{"type":"function","name":"symbol","inputs":[],"outputs":[{"name":"","type":"string","internalType":"string"}],"stateMutability":"view"},{"type":"function","name":"totalMinted","inputs":[],"outputs":[{"name":"","type":"uint256","internalType":"uint256"}],"stateMutability":"view"},{"type":"function","name":"totalSupply","inputs":[],"outputs":[{"name":"","type":"uint256","internalType":"uint256"}],"stateMutability":"view"},{"type":"function","name":"totalSupplyLimit","inputs":[],"outputs":[{"name":"","type":"uint256","internalType":"uint256"}],"stateMutability":"view"},{"type":"function","name":"transfer","inputs":[{"name":"to","type":"address","internalType":"address"},{"name":"value","type":"uint256","internalType":"uint256"}],"outputs":[{"name":"","type":"bool","internalType":"bool"}],"stateMutability":"nonpayable"},{"type":"function","name":"transferFrom","inputs":[{"name":"from","type":"address","internalType":"address"},{"name":"to","type":"address","internalType":"address"},{"name":"value","type":"uint256","internalType":"uint256"}],"outputs":[{"name":"","type":"bool","internalType":"bool"}],"stateMutability":"nonpayable"},{"type":"function","name":"transferOwnership","inputs":[{"name":"newOwner","type":"address","internalType":"address"}],"outputs":[],"stateMutability":"nonpayable"},{"type":"function","name":"withdraw","inputs":[],"outputs":[],"stateMutability":"nonpayable"},{"type":"event","name":"Approval","inputs":[{"name":"owner","type":"address","indexed":true,"internalType":"address"},{"name":"spender","type":"address","indexed":true,"internalType":"address"},{"name":"value","type":"uint256","indexed":false,"internalType":"uint256"}],"anonymous":false},{"type":"event","name":"OwnershipTransferred","inputs":[{"name":"previousOwner","type":"address","indexed":true,"internalType":"address"},{"name":"newOwner","type":"address","indexed":true,"internalType":"address"}],"anonymous":false},{"type":"event","name":"Transfer","inputs":[{"name":"from","type":"address","indexed":true,"internalType":"address"},{"name":"to","type":"address","indexed":true,"internalType":"address"},{"name":"value","type":"uint256","indexed":false,"internalType":"uint256"}],"anonymous":false},{"type":"error","name":"ERC20InsufficientAllowance","inputs":[{"name":"spender","type":"address","internalType":"address"},{"name":"allowance","type":"uint256","internalType":"uint256"},{"name":"needed","type":"uint256","internalType":"uint256"}]},{"type":"error","name":"ERC20InsufficientBalance","inputs":[{"name":"sender","type":"address","internalType":"address"},{"name":"balance","type":"uint256","internalType":"uint256"},{"name":"needed","type":"uint256","internalType":"uint256"}]},{"type":"error","name":"ERC20InvalidApprover","inputs":[{"name":"approver","type":"address","internalType":"address"}]},{"type":"error","name":"ERC20InvalidReceiver","inputs":[{"name":"receiver","type":"address","internalType":"address"}]},{"type":"error","name":"ERC20InvalidSender","inputs":[{"name":"sender","type":"address","internalType":"address"}]},{"type":"error","name":"ERC20InvalidSpender","inputs":[{"name":"spender","type":"address","internalType":"address"}]},{"type":"error","name":"OwnableInvalidOwner","inputs":[{"name":"owner","type":"address","internalType":"address"}]},{"type":"error","name":"OwnableUnauthorizedAccount","inputs":[{"name":"account","type":"address","internalType":"address"}]}],"bytecode":{"object":"0x60a06040523462000343576200001462000347565b6200001e62000347565b8151906001600160401b03908183116200024e576003908154906001948583811c931696871562000338575b6020978885101462000324578190601f94858111620002d1575b5088908583116001146200026e575f9262000262575b50505f1982861b1c191690861b1783555b80519384116200024e5760049586548681811c9116801562000243575b828210146200023057838111620001e8575b50809285116001146200017e57509383949184925f9562000172575b50501b925f19911b1c19161781555b33156200015b5760058054336001600160a01b03198216811790925560405191906001600160a01b03167f8be0079c531659141344cd1fd0a4f28419497f9722a3daafe3b4186f6b6457e05f80a33360805261103190816200036b82396080518181816101c9015281816104f2015261068b0152f35b6024905f60405191631e4fbdf760e01b8352820152fd5b015193505f80620000d6565b92919084601f198116885f52855f20955f905b89838310620001cd5750505010620001b3575b50505050811b018155620000e5565b01519060f8845f19921b161c191690555f808080620001a4565b85870151895590970196948501948893509081019062000191565b875f52815f208480880160051c82019284891062000226575b0160051c019087905b8281106200021a575050620000ba565b5f81550187906200020a565b9250819262000201565b602288634e487b7160e01b5f525260245ffd5b90607f1690620000a8565b634e487b7160e01b5f52604160045260245ffd5b015190505f806200007a565b90889350601f19831691875f528a5f20925f5b8c828210620002ba5750508411620002a2575b505050811b0183556200008b565b01515f1983881b60f8161c191690555f808062000294565b8385015186558c9790950194938401930162000281565b909150855f52885f208580850160051c8201928b86106200031a575b918a91869594930160051c01915b8281106200030b57505062000064565b5f81558594508a9101620002fb565b92508192620002ed565b634e487b7160e01b5f52602260045260245ffd5b92607f16926200004a565b5f80fd5b60405190602082016001600160401b038111838210176200024e576040525f825256fe60806040818152600480361015610020575b505050361561001e575f80fd5b005b5f92833560e01c90816302d05d3f14610d585750806306fdde0314610cb2578063095ea7b314610c0957806318160ddd14610bea57806323b872dd14610b02578063313ce56714610ae65780633ccfd60b146109c9578063631831fb146105f2578063663fc07b146105d35780636817c76c146105b457806370a082311461057d578063715018a61461051d578063755edd171461036d5780638da5cb5b1461034457806395d89b4114610267578063a2309ff814610248578063a9059cbb14610217578063bac21a22146101f8578063c45a0155146101b4578063dd62ed3e146101675763f2fde38b03610011573461016357602036600319011261016357610128610dca565b91610131610e4a565b6001600160a01b0383161561014d578361014a84610e76565b80f35b51631e4fbdf760e01b8152908101839052602490fd5b8280fd5b5050346101b057806003193601126101b05780602092610185610dca565b61018d610de4565b6001600160a01b0391821683526001865283832091168252845220549051908152f35b5080fd5b5050346101b057816003193601126101b057517f00000000000000000000000000000000000000000000000000000000000000006001600160a01b03168152602090f35b5050346101b057816003193601126101b0576020906006549051908152f35b5050346101b057806003193601126101b057602090610241610237610dca565b6024359033610ebe565b5160018152f35b5050346101b057816003193601126101b057602090600a549051908152f35b5050346101b057816003193601126101b05780519082600d5461028981610fc3565b8085529060019081811690811561031c57506001146102c3575b5050506102b5826102bf940383610dfa565b5191829182610d9e565b0390f35b600d8352602095507fd7b6990105719101dabeb77144f2a3385c8033acd3af97e9423a695e81ad1eb55b82841061030957505050826102bf946102b592820101946102a3565b80548685018801529286019281016102ed565b6102bf97506102b59450602092508693915060ff191682840152151560051b820101946102a3565b5050346101b057816003193601126101b05760055490516001600160a01b039091168152602090f35b50906020908160031936011261051957610385610dca565b9060018060a01b038060095416331480156104ee575b156104ad57600854341061047357600a5492600754936103bb8582610fa2565b6006541061043957846103cd91610fa2565b600a551693841561042457509181859361040a7fddf252ad1be2c89b69c2b068fc378daa952ba7f163c4a11628f55a4df523b3ef94600254610fa2565b60025585855284835280852082815401905551908152a380f35b85602492519163ec442f0560e01b8352820152fd5b835162461bcd60e51b815280880187905260146024820152734578636565647320746f74616c20737570706c7960601b6044820152606490fd5b815162461bcd60e51b81528086018590526014602482015273125b9cdd59999a58da595b9d081c185e5b595b9d60621b6044820152606490fd5b606485858085519262461bcd60e51b845283015260248201527f4f6e6c792063726561746f72206f7220666163746f72792063616e206d696e746044820152fd5b50807f000000000000000000000000000000000000000000000000000000000000000016331461039b565b8380fd5b833461057a578060031936011261057a57610536610e4a565b600580546001600160a01b0319811690915581906001600160a01b03167f8be0079c531659141344cd1fd0a4f28419497f9722a3daafe3b4186f6b6457e08280a380f35b80fd5b5050346101b05760203660031901126101b05760209181906001600160a01b036105a5610dca565b16815280845220549051908152f35b5050346101b057816003193601126101b0576020906008549051908152f35b5050346101b057816003193601126101b0576020906007549051908152f35b508290346101b05760a03660031901126101b0576001600160401b03928135848111610519573660238201121561051957808301359261063184610e2f565b9361063e84519586610dfa565b80855260209485810191602494368683830101116109c557818992878a9301863783010152608435956001600160a01b03808816969094908789036109c157600b549560ff871661098a577f000000000000000000000000000000000000000000000000000000000000000016330361094c576001809660ff191617600b555180946b024b739b1b934b83a34b7b7160a51b848301526106e585518092602c850190610d7d565b8101036106fc602c600c9283810188520186610dfa565b84518b811161093a57806107108354610fc3565b96601f978881116108e9575b5085908d89841160011461088b5792610880575b50505f19600383901b1c191690871b1790555b8251998a1161086e5750610758600d54610fc3565b83811161082a575b50809289116001146107c457509680928192889961014a99946107b9575b50501b915f199060031b1c191617600d555b35600655604435600755606435600855600980546001600160a01b031916919091179055610e76565b01519250898061077e565b909791601f19831698600d89528289209289905b8b82106108135750508361014a999a106107fb575b505050811b01600d55610790565b01515f1960f88460031b161c191690558780806107ed565b8087859682949686015181550195019301906107d8565b600d895281892084808c0160051c820192848d10610865575b0160051c019085905b82811061085a575050610760565b8a815501859061084c565b92508192610843565b634e487b7160e01b8952604190528488fd5b015190508d80610730565b91908a9450601f198416868452888420935b898282106108d357505084116108bb575b505050811b019055610743565b01515f1960f88460031b161c191690558d80806108ae565b8385015186558d9790950194938401930161089d565b909150838d52858d208880850160051c820192888610610931575b859493910160051c909101908a908f5b8382106109235750505061071c565b81558594508b91018f610914565b92508192610904565b634e487b7160e01b8b5260418352878bfd5b86606493601b92519362461bcd60e51b85528401528201527a4f6e6c7920666163746f72792063616e20696e697469616c697a6560281b6044820152fd5b5086606493601392519362461bcd60e51b855284015282015272105b1c9958591e481a5b9a5d1a585b1a5e9959606a1b6044820152fd5b8980fd5b8880fd5b5090346101635782600319360112610163576009546001600160a01b031633819003610aa75747908115610a6b578480809381935af13d15610a66573d610a0f81610e2f565b90610a1c84519283610dfa565b81528460203d92013e5b15610a2f578280f35b906020606492519162461bcd60e51b8352820152601160248201527015da5d1a191c985dd85b0819985a5b1959607a1b6044820152fd5b610a26565b825162461bcd60e51b815260208186015260166024820152754e6f2062616c616e636520746f20776974686472617760501b6044820152606490fd5b815162461bcd60e51b815260208185015260196024820152784f6e6c792063726561746f722063616e20776974686472617760381b6044820152606490fd5b5050346101b057816003193601126101b0576020905160128152f35b50823461057a57606036600319011261057a57610b1d610dca565b610b25610de4565b916044359360018060a01b038316808352600160205286832033845260205286832054915f198310610b60575b602088610241898989610ebe565b868310610bc8578115610bb1573315610b9a5750825260016020908152868320338452815291869020908590039055829061024187610b52565b8751634a1406b160e11b8152908101849052602490fd5b875163e602df0560e01b8152908101849052602490fd5b9050610be6868851938493637dc7a0d960e11b855233908501610f84565b0390fd5b5050346101b057816003193601126101b0576020906002549051908152f35b5034610163578160031936011261016357610c22610dca565b602435903315610c9b576001600160a01b0316918215610c8457508083602095338152600187528181208582528752205582519081527f8c5be1e5ebec7d5bd14f71427d1e84f3dd0314c0f7b2291e5b200ac8c7c3b925843392a35160018152f35b8351634a1406b160e11b8152908101859052602490fd5b835163e602df0560e01b8152808401869052602490fd5b5050346101b057816003193601126101b05780519082600c54610cd481610fc3565b8085529060019081811690811561031c5750600114610cff575050506102b5826102bf940383610dfa565b600c8352602095507fdf6966c971051c3d54ec59162606531493a51404a002842f56009d7e5cf4a8c75b828410610d4557505050826102bf946102b592820101946102a3565b8054868501880152928601928101610d29565b8490346101b057816003193601126101b0576009546001600160a01b03168152602090f35b5f5b838110610d8e5750505f910152565b8181015183820152602001610d7f565b60409160208252610dbe8151809281602086015260208686019101610d7d565b601f01601f1916010190565b600435906001600160a01b0382168203610de057565b5f80fd5b602435906001600160a01b0382168203610de057565b90601f801991011681019081106001600160401b03821117610e1b57604052565b634e487b7160e01b5f52604160045260245ffd5b6001600160401b038111610e1b57601f01601f191660200190565b6005546001600160a01b03163303610e5e57565b60405163118cdaa760e01b8152336004820152602490fd5b600580546001600160a01b039283166001600160a01b0319821681179092559091167f8be0079c531659141344cd1fd0a4f28419497f9722a3daafe3b4186f6b6457e05f80a3565b916001600160a01b03808416928315610f6c5716928315610f54575f9083825281602052604082205490838210610f37575091604082827fddf252ad1be2c89b69c2b068fc378daa952ba7f163c4a11628f55a4df523b3ef958760209652828652038282205586815220818154019055604051908152a3565b610be68460405193849363391434e360e21b855260048501610f84565b60405163ec442f0560e01b81525f6004820152602490fd5b604051634b637e8f60e11b81525f6004820152602490fd5b604091949392606082019560018060a01b0316825260208201520152565b91908201809211610faf57565b634e487b7160e01b5f52601160045260245ffd5b90600182811c92168015610ff1575b6020831014610fdd57565b634e487b7160e01b5f52602260045260245ffd5b91607f1691610fd256fea2646970667358221220ed3327b0b17a40cdf21f03ce16173d11107b7f289311d22fbbc3f2046ed9ff1264736f6c63430008140033","linkReferences":{}},"methodIdentifiers":{"allowance(address,address)":"dd62ed3e","approve(address,uint256)":"095ea7b3","balanceOf(address)":"70a08231","creator()":"02d05d3f","decimals()":"313ce567","factory()":"c45a0155","initialize(string,uint256,uint256,uint256,address)":"631831fb","mintPrice()":"6817c76c","mintTo(address)":"755edd17","name()":"06fdde03","owner()":"8da5cb5b","perMintAmount()":"663fc07b","renounceOwnership()":"715018a6","symbol()":"95d89b41","totalMinted()":"a2309ff8","totalSupply()":"18160ddd","totalSupplyLimit()":"bac21a22","transfer(address,uint256)":"a9059cbb","transferFrom(address,address,uint256)":"23b872dd","transferOwnership(address)":"f2fde38b","withdraw()":"3ccfd60b"},"id":47}