{"abi":[{"type":"constructor","inputs":[],"stateMutability":"nonpayable"},{"type":"function","name":"DOMAIN_SEPARATOR","inputs":[],"outputs":[{"name":"","type":"bytes32","internalType":"bytes32"}],"stateMutability":"view"},{"type":"function","name":"PERMIT_TYPEHASH","inputs":[],"outputs":[{"name":"","type":"bytes32","internalType":"bytes32"}],"stateMutability":"view"},{"type":"function","name":"allowance","inputs":[{"name":"","type":"address","internalType":"address"},{"name":"","type":"address","internalType":"address"}],"outputs":[{"name":"","type":"uint256","internalType":"uint256"}],"stateMutability":"view"},{"type":"function","name":"approve","inputs":[{"name":"spender","type":"address","internalType":"address"},{"name":"value","type":"uint256","internalType":"uint256"}],"outputs":[{"name":"","type":"bool","internalType":"bool"}],"stateMutability":"nonpayable"},{"type":"function","name":"balanceOf","inputs":[{"name":"","type":"address","internalType":"address"}],"outputs":[{"name":"","type":"uint256","internalType":"uint256"}],"stateMutability":"view"},{"type":"function","name":"decimals","inputs":[],"outputs":[{"name":"","type":"uint8","internalType":"uint8"}],"stateMutability":"view"},{"type":"function","name":"name","inputs":[],"outputs":[{"name":"","type":"string","internalType":"string"}],"stateMutability":"view"},{"type":"function","name":"nonces","inputs":[{"name":"","type":"address","internalType":"address"}],"outputs":[{"name":"","type":"uint256","internalType":"uint256"}],"stateMutability":"view"},{"type":"function","name":"permit","inputs":[{"name":"owner","type":"address","internalType":"address"},{"name":"spender","type":"address","internalType":"address"},{"name":"value","type":"uint256","internalType":"uint256"},{"name":"deadline","type":"uint256","internalType":"uint256"},{"name":"v","type":"uint8","internalType":"uint8"},{"name":"r","type":"bytes32","internalType":"bytes32"},{"name":"s","type":"bytes32","internalType":"bytes32"}],"outputs":[],"stateMutability":"nonpayable"},{"type":"function","name":"symbol","inputs":[],"outputs":[{"name":"","type":"string","internalType":"string"}],"stateMutability":"view"},{"type":"function","name":"totalSupply","inputs":[],"outputs":[{"name":"","type":"uint256","internalType":"uint256"}],"stateMutability":"view"},{"type":"function","name":"transfer","inputs":[{"name":"to","type":"address","internalType":"address"},{"name":"value","type":"uint256","internalType":"uint256"}],"outputs":[{"name":"","type":"bool","internalType":"bool"}],"stateMutability":"nonpayable"},{"type":"function","name":"transferFrom","inputs":[{"name":"from","type":"address","internalType":"address"},{"name":"to","type":"address","internalType":"address"},{"name":"value","type":"uint256","internalType":"uint256"}],"outputs":[{"name":"","type":"bool","internalType":"bool"}],"stateMutability":"nonpayable"},{"type":"event","name":"Approval","inputs":[{"name":"owner","type":"address","indexed":true,"internalType":"address"},{"name":"spender","type":"address","indexed":true,"internalType":"address"},{"name":"value","type":"uint256","indexed":false,"internalType":"uint256"}],"anonymous":false},{"type":"event","name":"Transfer","inputs":[{"name":"from","type":"address","indexed":true,"internalType":"address"},{"name":"to","type":"address","indexed":true,"internalType":"address"},{"name":"value","type":"uint256","indexed":false,"internalType":"uint256"}],"anonymous":false}],"bytecode":{"object":"0x608080604052346100d057602081610018600a936100d4565b82815201692ab734b9bbb0b8102b1960b11b8152206001602060405161003d816100d4565b82815201603160f81b815220906040519160208301917f8b73c3c69bb8fe3d512ecc4cf759cc79239f7b179b0ffacaa9a75d522b39400f8352604084015260608301524660808301523060a083015260a0825260c082019180831060018060401b038411176100bc57826040525190206003556107ca90816100f08239f35b634e487b7160e01b5f52604160045260245ffd5b5f80fd5b604081019081106001600160401b038211176100bc5760405256fe6080604081815260049182361015610015575f80fd5b5f92833560e01c91826306fdde031461055d57508163095ea7b31461053357816318160ddd1461051657816323b872dd1461048757816330adf81f1461044c578163313ce567146104305781633644e5151461041157816370a08231146103d95781637ecebe001461039f57816395d89b411461035d578163a9059cbb1461032c578163d505accf146100fc575063dd62ed3e146100b1575f80fd5b346100f857806003193601126100f857806020926100cd610615565b6100d561062f565b6001600160a01b0391821683526002865283832091168252845220549051908152f35b5080fd5b839150346100f85760e03660031901126100f857610118610615565b61012061062f565b906044359260643560843560ff8116809103610328574282106102f0576003549160018060a01b039182861693848a52856020528a8a20928354935f1985146102dd57908493929160018e960190558451938760208601967f6e71edae12b1b97f4d1f60370fef10105fa2faae0126114a169c64845d6126c98852860152868b1660608601528b608086015260a085015260c084015260c0835260e083016001600160401b0394848210868311176102ca57818e528451902061010085019261190160f01b845261010286015261012285015260428152610160840194818610908611176102b757848d52519020835261018082015260a4356101a082015260c4356101c090910152878052602090889060809060015afa156102ad578651169081151591826102a3575b505015610261575061025e939450610645565b80f35b606490602087519162461bcd60e51b8352820152601c60248201527b556e697377617056323a20494e56414c49445f5349474e415455524560201b6044820152fd5b149050878061024b565b87513d88823e3d90fd5b634e487b7160e01b8c526041885260248cfd5b634e487b7160e01b8d526041895260248dfd5b634e487b7160e01b8c526011885260248cfd5b875162461bcd60e51b81526020818501526012602482015271155b9a5cddd85c158c8e881156141254915160721b6044820152606490fd5b8680fd5b5050346100f857806003193601126100f85760209061035661034c610615565b6024359033610698565b5160018152f35b5050346100f857816003193601126100f857805161039b9161037e8261059f565b60068252652aa72496ab1960d11b602083015251918291826105ce565b0390f35b9050346103d55760203660031901126103d55760209282916001600160a01b036103c7610615565b168252845220549051908152f35b8280fd5b5050346100f85760203660031901126100f85760209181906001600160a01b03610401610615565b1681526001845220549051908152f35b5050346100f857816003193601126100f8576020906003549051908152f35b5050346100f857816003193601126100f8576020905160128152f35b5050346100f857816003193601126100f857602090517f6e71edae12b1b97f4d1f60370fef10105fa2faae0126114a169c64845d6126c98152f35b5050346100f85760603660031901126100f8576103566104a5610615565b6104ad61062f565b6044359160018060a01b038116808752856020976002895281812033825289525f1982822054036104e1575b505050610698565b8281526002895281812033825289526104fd8683832054610773565b92815260028952818120338252895220555f85816104d9565b5050346100f857816003193601126100f857602091549051908152f35b5050346100f857806003193601126100f857602090610356610553610615565b6024359033610645565b849084346103d557826003193601126103d55761039b925061057e8261059f565b600a8252692ab734b9bbb0b8102b1960b11b602083015251918291826105ce565b604081019081106001600160401b038211176105ba57604052565b634e487b7160e01b5f52604160045260245ffd5b602080825282518183018190529093925f5b82811061060157505060409293505f838284010152601f8019910116010190565b8181018601518482016040015285016105e0565b600435906001600160a01b038216820361062b57565b5f80fd5b602435906001600160a01b038216820361062b57565b909160207f8c5be1e5ebec7d5bd14f71427d1e84f3dd0314c0f7b2291e5b200ac8c7c3b9259160018060a01b0380941693845f526002835260405f20951694855f5282528060405f2055604051908152a3565b9160018060a01b03809316915f9383855260016020526040916106be8484882054610773565b858752600160205283872055169384815281812054908382019182811161075f57821061071d57917fddf252ad1be2c89b69c2b068fc378daa952ba7f163c4a11628f55a4df523b3ef93918184886020965260018652205551908152a3565b825162461bcd60e51b815260206004820152601b60248201527a536166654d6174683a206164646974696f6e206f766572666c6f7760281b6044820152606490fd5b634e487b7160e01b82526011600452602482fd5b9081039081116107805790565b634e487b7160e01b5f52601160045260245ffdfea26469706673582212201846f58d76d0e7ccd18d32cd35fc1dfe0c827ca0fccb069988368ed392ddab8b64736f6c63430008140033","linkReferences":{}},"methodIdentifiers":{"DOMAIN_SEPARATOR()":"3644e515","PERMIT_TYPEHASH()":"30adf81f","allowance(address,address)":"dd62ed3e","approve(address,uint256)":"095ea7b3","balanceOf(address)":"70a08231","decimals()":"313ce567","name()":"06fdde03","nonces(address)":"7ecebe00","permit(address,address,uint256,uint256,uint8,bytes32,bytes32)":"d505accf","symbol()":"95d89b41","totalSupply()":"18160ddd","transfer(address,uint256)":"a9059cbb","transferFrom(address,address,uint256)":"23b872dd"},"id":31}