{"abi":[{"type":"constructor","inputs":[{"name":"_factory","type":"address","internalType":"address"},{"name":"_weth","type":"address","internalType":"address"}],"stateMutability":"nonpayable"},{"type":"function","name":"WETH","inputs":[],"outputs":[{"name":"","type":"address","internalType":"address"}],"stateMutability":"view"},{"type":"function","name":"addLiquidityETH","inputs":[{"name":"token","type":"address","internalType":"address"},{"name":"amountTokenDesired","type":"uint256","internalType":"uint256"},{"name":"amountTokenMin","type":"uint256","internalType":"uint256"},{"name":"amountETHMin","type":"uint256","internalType":"uint256"},{"name":"to","type":"address","internalType":"address"},{"name":"deadline","type":"uint256","internalType":"uint256"}],"outputs":[{"name":"amountToken","type":"uint256","internalType":"uint256"},{"name":"amountETH","type":"uint256","internalType":"uint256"},{"name":"liquidity","type":"uint256","internalType":"uint256"}],"stateMutability":"payable"},{"type":"function","name":"factory","inputs":[],"outputs":[{"name":"","type":"address","internalType":"address"}],"stateMutability":"view"},{"type":"function","name":"getAmountsOut","inputs":[{"name":"amountIn","type":"uint256","internalType":"uint256"},{"name":"path","type":"address[]","internalType":"address[]"}],"outputs":[{"name":"amounts","type":"uint256[]","internalType":"uint256[]"}],"stateMutability":"view"},{"type":"function","name":"setTokenAmountOut","inputs":[{"name":"token","type":"address","internalType":"address"},{"name":"amount","type":"uint256","internalType":"uint256"}],"outputs":[],"stateMutability":"nonpayable"},{"type":"function","name":"swapExactETHForTokens","inputs":[{"name":"amountOutMin","type":"uint256","internalType":"uint256"},{"name":"path","type":"address[]","internalType":"address[]"},{"name":"to","type":"address","internalType":"address"},{"name":"deadline","type":"uint256","internalType":"uint256"}],"outputs":[{"name":"amounts","type":"uint256[]","internalType":"uint256[]"}],"stateMutability":"payable"},{"type":"function","name":"tokenAmountsOut","inputs":[{"name":"","type":"address","internalType":"address"}],"outputs":[{"name":"","type":"uint256","internalType":"uint256"}],"stateMutability":"view"}],"bytecode":{"object":"0x60c03461008d57601f6108c038819003918201601f19168301916001600160401b0383118484101761009157808492604094855283398101031261008d57610052602061004b836100a5565b92016100a5565b9060805260a05260405161080690816100ba823960805181818160dd0152610306015260a05181818160ae0152818161034e01526103e30152f35b5f80fd5b634e487b7160e01b5f52604160045260245ffd5b51906001600160a01b038216820361008d5756fe60806040818152600480361015610014575f80fd5b5f92833560e01c9081631b2216f6146105f4575080636dc87b03146105c15780637ff36ab51461037d578063ad5c464814610339578063c45a0155146102f1578063d06ca61f146101d05763f305d7191461006d575f80fd5b60c03660031901126101cc57610081610627565b6001600160a01b036084358181169392908490036101b65784516364e329cb60e11b8152908216838201527f000000000000000000000000000000000000000000000000000000000000000082166024820152602081604481897f000000000000000000000000000000000000000000000000000000000000000087165af19081156101c2578691610184575b501691823b15610180578351916340c10f1960e01b835282015283816044818368056bc75e2d63100000968760248401525af180156101735760609450610164575b508151916024358352346020840152820152f35b61016d906106ab565b5f610150565b50505051903d90823e3d90fd5b8480fd5b90506020813d82116101ba575b8161019e602093836106d2565b810103126101b6575181811681036101b6575f61010e565b8580fd5b3d9150610191565b85513d88823e3d90fd5b8280fd5b5090346101cc57806003193601126101cc578135916024356001600160401b038111610180576102039036908301610641565b61021360028296939610156106f3565b61021c81610745565b948261022787610777565b525f198201938285116102de576001600160a01b03938461025161024c8887876107ac565b6107bc565b1689526020899052868920541561029b5750509561028b9261027b61024c8688956102979b6107ac565b1681528060205220549184610798565b525b5191829182610671565b0390f35b949350969150508260011b92808404600214901517156102cb575061029794506102c59084610798565b5261028d565b634e487b7160e01b815260118652602490fd5b634e487b7160e01b885260119052602487fd5b505034610335578160031936011261033557517f00000000000000000000000000000000000000000000000000000000000000006001600160a01b03168152602090f35b5080fd5b505034610335578160031936011261033557517f00000000000000000000000000000000000000000000000000000000000000006001600160a01b03168152602090f35b509060803660031901126101cc57602480356001600160401b038111610180576103aa9036908501610641565b936044356001600160a01b038181169392918490036105bd576103d060028810156106f3565b86156105ab576103df836107bc565b81807f00000000000000000000000000000000000000000000000000000000000000001691160361056d5761041387610745565b963461041e89610777565b525f1981019080821180610530578361043b61024c85858a6107ac565b168b5260208b9052888b205415610542575089948361045e61024c8585856107ac565b168b528a602052888b2054955b610530578561047a848c610798565b52843586106104f1578a96959493926104969261024c926107ac565b1691823b15610180576044928591885197889687956340c10f1960e01b87528601528401525af180156104e75761029794506104d8575b505191829182610671565b6104e1906106ab565b5f6104cd565b82513d86823e3d90fd5b885162461bcd60e51b8152602081870152601a818a015279125b9cdd59999a58da595b9d081bdd5d1c1d5d08185b5bdd5b9d60321b6044820152606490fd5b634e487b7160e01b8b5260118552878bfd5b943460011b3481046002143415171561055b579561046b565b634e487b7160e01b8c5260118652888cfd5b855162461bcd60e51b8152602081840152601981870152780a0c2e8d040daeae6e840e6e8c2e4e840eed2e8d040ae8aa89603b1b6044820152606490fd5b634e487b7160e01b8852603282528488fd5b8780fd5b5050346103355780600319360112610335576001600160a01b036105e3610627565b168252816020526024359082205580f35b849084346101cc5760203660031901126101cc576020926001600160a01b0361061b610627565b16815280845220548152f35b600435906001600160a01b038216820361063d57565b5f80fd5b9181601f8401121561063d578235916001600160401b03831161063d576020808501948460051b01011161063d57565b602090816040818301928281528551809452019301915f5b828110610697575050505090565b835185529381019392810192600101610689565b6001600160401b0381116106be57604052565b634e487b7160e01b5f52604160045260245ffd5b90601f801991011681019081106001600160401b038211176106be57604052565b156106fa57565b60405162461bcd60e51b815260206004820152600c60248201526b092dcecc2d8d2c840e0c2e8d60a31b6044820152606490fd5b6001600160401b0381116106be5760051b60200190565b9061074f8261072e565b61075c60405191826106d2565b828152809261076d601f199161072e565b0190602036910137565b8051156107845760200190565b634e487b7160e01b5f52603260045260245ffd5b80518210156107845760209160051b010190565b91908110156107845760051b0190565b356001600160a01b038116810361063d579056fea2646970667358221220bc7c4586b19ca1dafda93a3ee419bbe0b733b1aec92df8c9d520efb835f0f32c64736f6c63430008140033","linkReferences":{}},"methodIdentifiers":{"WETH()":"ad5c4648","addLiquidityETH(address,uint256,uint256,uint256,address,uint256)":"f305d719","factory()":"c45a0155","getAmountsOut(uint256,address[])":"d06ca61f","setTokenAmountOut(address,uint256)":"6dc87b03","swapExactETHForTokens(uint256,address[],address,uint256)":"7ff36ab5","tokenAmountsOut(address)":"1b2216f6"},"id":34}