{"abi":[{"type":"constructor","inputs":[{"name":"_factory","type":"address","internalType":"address"},{"name":"_WETH","type":"address","internalType":"address"}],"stateMutability":"nonpayable"},{"type":"receive","stateMutability":"payable"},{"type":"function","name":"WETH","inputs":[],"outputs":[{"name":"","type":"address","internalType":"address"}],"stateMutability":"view"},{"type":"function","name":"addLiquidity","inputs":[{"name":"tokenA","type":"address","internalType":"address"},{"name":"tokenB","type":"address","internalType":"address"},{"name":"amountADesired","type":"uint256","internalType":"uint256"},{"name":"amountBDesired","type":"uint256","internalType":"uint256"},{"name":"amountAMin","type":"uint256","internalType":"uint256"},{"name":"amountBMin","type":"uint256","internalType":"uint256"},{"name":"to","type":"address","internalType":"address"},{"name":"deadline","type":"uint256","internalType":"uint256"}],"outputs":[{"name":"amountA","type":"uint256","internalType":"uint256"},{"name":"amountB","type":"uint256","internalType":"uint256"},{"name":"liquidity","type":"uint256","internalType":"uint256"}],"stateMutability":"nonpayable"},{"type":"function","name":"addLiquidityETH","inputs":[{"name":"token","type":"address","internalType":"address"},{"name":"amountTokenDesired","type":"uint256","internalType":"uint256"},{"name":"amountTokenMin","type":"uint256","internalType":"uint256"},{"name":"amountETHMin","type":"uint256","internalType":"uint256"},{"name":"to","type":"address","internalType":"address"},{"name":"deadline","type":"uint256","internalType":"uint256"}],"outputs":[{"name":"amountToken","type":"uint256","internalType":"uint256"},{"name":"amountETH","type":"uint256","internalType":"uint256"},{"name":"liquidity","type":"uint256","internalType":"uint256"}],"stateMutability":"payable"},{"type":"function","name":"factory","inputs":[],"outputs":[{"name":"","type":"address","internalType":"address"}],"stateMutability":"view"},{"type":"function","name":"getAmountIn","inputs":[{"name":"amountOut","type":"uint256","internalType":"uint256"},{"name":"reserveIn","type":"uint256","internalType":"uint256"},{"name":"reserveOut","type":"uint256","internalType":"uint256"}],"outputs":[{"name":"amountIn","type":"uint256","internalType":"uint256"}],"stateMutability":"pure"},{"type":"function","name":"getAmountOut","inputs":[{"name":"amountIn","type":"uint256","internalType":"uint256"},{"name":"reserveIn","type":"uint256","internalType":"uint256"},{"name":"reserveOut","type":"uint256","internalType":"uint256"}],"outputs":[{"name":"amountOut","type":"uint256","internalType":"uint256"}],"stateMutability":"pure"},{"type":"function","name":"getAmountsIn","inputs":[{"name":"amountOut","type":"uint256","internalType":"uint256"},{"name":"path","type":"address[]","internalType":"address[]"}],"outputs":[{"name":"amounts","type":"uint256[]","internalType":"uint256[]"}],"stateMutability":"view"},{"type":"function","name":"getAmountsOut","inputs":[{"name":"amountIn","type":"uint256","internalType":"uint256"},{"name":"path","type":"address[]","internalType":"address[]"}],"outputs":[{"name":"amounts","type":"uint256[]","internalType":"uint256[]"}],"stateMutability":"view"},{"type":"function","name":"quote","inputs":[{"name":"amountA","type":"uint256","internalType":"uint256"},{"name":"reserveA","type":"uint256","internalType":"uint256"},{"name":"reserveB","type":"uint256","internalType":"uint256"}],"outputs":[{"name":"amountB","type":"uint256","internalType":"uint256"}],"stateMutability":"pure"},{"type":"function","name":"removeLiquidity","inputs":[{"name":"tokenA","type":"address","internalType":"address"},{"name":"tokenB","type":"address","internalType":"address"},{"name":"liquidity","type":"uint256","internalType":"uint256"},{"name":"amountAMin","type":"uint256","internalType":"uint256"},{"name":"amountBMin","type":"uint256","internalType":"uint256"},{"name":"to","type":"address","internalType":"address"},{"name":"deadline","type":"uint256","internalType":"uint256"}],"outputs":[{"name":"amountA","type":"uint256","internalType":"uint256"},{"name":"amountB","type":"uint256","internalType":"uint256"}],"stateMutability":"nonpayable"},{"type":"function","name":"removeLiquidityETH","inputs":[{"name":"token","type":"address","internalType":"address"},{"name":"liquidity","type":"uint256","internalType":"uint256"},{"name":"amountTokenMin","type":"uint256","internalType":"uint256"},{"name":"amountETHMin","type":"uint256","internalType":"uint256"},{"name":"to","type":"address","internalType":"address"},{"name":"deadline","type":"uint256","internalType":"uint256"}],"outputs":[{"name":"amountToken","type":"uint256","internalType":"uint256"},{"name":"amountETH","type":"uint256","internalType":"uint256"}],"stateMutability":"nonpayable"},{"type":"function","name":"removeLiquidityETHSupportingFeeOnTransferTokens","inputs":[{"name":"token","type":"address","internalType":"address"},{"name":"liquidity","type":"uint256","internalType":"uint256"},{"name":"amountTokenMin","type":"uint256","internalType":"uint256"},{"name":"amountETHMin","type":"uint256","internalType":"uint256"},{"name":"to","type":"address","internalType":"address"},{"name":"deadline","type":"uint256","internalType":"uint256"}],"outputs":[{"name":"amountETH","type":"uint256","internalType":"uint256"}],"stateMutability":"nonpayable"},{"type":"function","name":"removeLiquidityETHWithPermit","inputs":[{"name":"token","type":"address","internalType":"address"},{"name":"liquidity","type":"uint256","internalType":"uint256"},{"name":"amountTokenMin","type":"uint256","internalType":"uint256"},{"name":"amountETHMin","type":"uint256","internalType":"uint256"},{"name":"to","type":"address","internalType":"address"},{"name":"deadline","type":"uint256","internalType":"uint256"},{"name":"approveMax","type":"bool","internalType":"bool"},{"name":"v","type":"uint8","internalType":"uint8"},{"name":"r","type":"bytes32","internalType":"bytes32"},{"name":"s","type":"bytes32","internalType":"bytes32"}],"outputs":[{"name":"amountToken","type":"uint256","internalType":"uint256"},{"name":"amountETH","type":"uint256","internalType":"uint256"}],"stateMutability":"nonpayable"},{"type":"function","name":"removeLiquidityETHWithPermitSupportingFeeOnTransferTokens","inputs":[{"name":"token","type":"address","internalType":"address"},{"name":"liquidity","type":"uint256","internalType":"uint256"},{"name":"amountTokenMin","type":"uint256","internalType":"uint256"},{"name":"amountETHMin","type":"uint256","internalType":"uint256"},{"name":"to","type":"address","internalType":"address"},{"name":"deadline","type":"uint256","internalType":"uint256"},{"name":"approveMax","type":"bool","internalType":"bool"},{"name":"v","type":"uint8","internalType":"uint8"},{"name":"r","type":"bytes32","internalType":"bytes32"},{"name":"s","type":"bytes32","internalType":"bytes32"}],"outputs":[{"name":"amountETH","type":"uint256","internalType":"uint256"}],"stateMutability":"nonpayable"},{"type":"function","name":"removeLiquidityWithPermit","inputs":[{"name":"tokenA","type":"address","internalType":"address"},{"name":"tokenB","type":"address","internalType":"address"},{"name":"liquidity","type":"uint256","internalType":"uint256"},{"name":"amountAMin","type":"uint256","internalType":"uint256"},{"name":"amountBMin","type":"uint256","internalType":"uint256"},{"name":"to","type":"address","internalType":"address"},{"name":"deadline","type":"uint256","internalType":"uint256"},{"name":"approveMax","type":"bool","internalType":"bool"},{"name":"v","type":"uint8","internalType":"uint8"},{"name":"r","type":"bytes32","internalType":"bytes32"},{"name":"s","type":"bytes32","internalType":"bytes32"}],"outputs":[{"name":"amountA","type":"uint256","internalType":"uint256"},{"name":"amountB","type":"uint256","internalType":"uint256"}],"stateMutability":"nonpayable"},{"type":"function","name":"swapETHForExactTokens","inputs":[{"name":"amountOut","type":"uint256","internalType":"uint256"},{"name":"path","type":"address[]","internalType":"address[]"},{"name":"to","type":"address","internalType":"address"},{"name":"deadline","type":"uint256","internalType":"uint256"}],"outputs":[{"name":"amounts","type":"uint256[]","internalType":"uint256[]"}],"stateMutability":"payable"},{"type":"function","name":"swapExactETHForTokens","inputs":[{"name":"amountOutMin","type":"uint256","internalType":"uint256"},{"name":"path","type":"address[]","internalType":"address[]"},{"name":"to","type":"address","internalType":"address"},{"name":"deadline","type":"uint256","internalType":"uint256"}],"outputs":[{"name":"amounts","type":"uint256[]","internalType":"uint256[]"}],"stateMutability":"payable"},{"type":"function","name":"swapExactETHForTokensSupportingFeeOnTransferTokens","inputs":[{"name":"amountOutMin","type":"uint256","internalType":"uint256"},{"name":"path","type":"address[]","internalType":"address[]"},{"name":"to","type":"address","internalType":"address"},{"name":"deadline","type":"uint256","internalType":"uint256"}],"outputs":[],"stateMutability":"payable"},{"type":"function","name":"swapExactTokensForETH","inputs":[{"name":"amountIn","type":"uint256","internalType":"uint256"},{"name":"amountOutMin","type":"uint256","internalType":"uint256"},{"name":"path","type":"address[]","internalType":"address[]"},{"name":"to","type":"address","internalType":"address"},{"name":"deadline","type":"uint256","internalType":"uint256"}],"outputs":[{"name":"amounts","type":"uint256[]","internalType":"uint256[]"}],"stateMutability":"nonpayable"},{"type":"function","name":"swapExactTokensForETHSupportingFeeOnTransferTokens","inputs":[{"name":"amountIn","type":"uint256","internalType":"uint256"},{"name":"amountOutMin","type":"uint256","internalType":"uint256"},{"name":"path","type":"address[]","internalType":"address[]"},{"name":"to","type":"address","internalType":"address"},{"name":"deadline","type":"uint256","internalType":"uint256"}],"outputs":[],"stateMutability":"nonpayable"},{"type":"function","name":"swapExactTokensForTokens","inputs":[{"name":"amountIn","type":"uint256","internalType":"uint256"},{"name":"amountOutMin","type":"uint256","internalType":"uint256"},{"name":"path","type":"address[]","internalType":"address[]"},{"name":"to","type":"address","internalType":"address"},{"name":"deadline","type":"uint256","internalType":"uint256"}],"outputs":[{"name":"amounts","type":"uint256[]","internalType":"uint256[]"}],"stateMutability":"nonpayable"},{"type":"function","name":"swapExactTokensForTokensSupportingFeeOnTransferTokens","inputs":[{"name":"amountIn","type":"uint256","internalType":"uint256"},{"name":"amountOutMin","type":"uint256","internalType":"uint256"},{"name":"path","type":"address[]","internalType":"address[]"},{"name":"to","type":"address","internalType":"address"},{"name":"deadline","type":"uint256","internalType":"uint256"}],"outputs":[],"stateMutability":"nonpayable"},{"type":"function","name":"swapTokensForExactETH","inputs":[{"name":"amountOut","type":"uint256","internalType":"uint256"},{"name":"amountInMax","type":"uint256","internalType":"uint256"},{"name":"path","type":"address[]","internalType":"address[]"},{"name":"to","type":"address","internalType":"address"},{"name":"deadline","type":"uint256","internalType":"uint256"}],"outputs":[{"name":"amounts","type":"uint256[]","internalType":"uint256[]"}],"stateMutability":"nonpayable"},{"type":"function","name":"swapTokensForExactTokens","inputs":[{"name":"amountOut","type":"uint256","internalType":"uint256"},{"name":"amountInMax","type":"uint256","internalType":"uint256"},{"name":"path","type":"address[]","internalType":"address[]"},{"name":"to","type":"address","internalType":"address"},{"name":"deadline","type":"uint256","internalType":"uint256"}],"outputs":[{"name":"amounts","type":"uint256[]","internalType":"uint256[]"}],"stateMutability":"nonpayable"}],"bytecode":{"object":"0x60c0346200016257601f6200375638819003918201601f19168301916001600160401b038311848410176200016657808492604094855283398101031262000162576200005a602062000052836200017a565b92016200017a565b9060805260a0526040516135c690816200019082396080518181816101d3015281816104160152818161063f0152818161071a015281816109e301528181610a2901528181610a9a01528181610cad01528181610f85015281816110b901528181611486015281816115b001528181611731015281816117e50152818161191c015281816119ad01528181611b2f0152818161240501528181612d00015281816130d3015261336b015260a0518181816027015281816101a0015281816103df0152818161073c01528181610c2601528181610f29015281816110890152818161120601528181611464015281816115790152818161197901528181611aff015261333f0152f35b5f80fd5b634e487b7160e01b5f52604160045260245ffd5b51906001600160a01b0382168203620001625756fe60806040815260a0604052600480361015610057575b50503615610021575f80fd5b610055337f00000000000000000000000000000000000000000000000000000000000000006001600160a01b031614611fcd565b005b5f91823560e01c806302751cec14611ad7578063054d50d414611abb57806318cbafe5146119405780631f00ca74146119025780632195995c1461179257806338ed1739146117185780634a25d94a1461152f5780635b0d5984146114415780635c11d7951461139b578063791ac947146111bf5780637ff36ab51461106357806385f8c259146110475780638803dbee14610f58578063ad5c464814610f13578063ad615dec14610ef7578063af2979eb14610ecd578063b6f9de9514610beb578063baa2abde14610a58578063c45a015514610a13578063d06ca61f146109c9578063ded9382a146106fa578063e8e33700146105c0578063f305d719146103ba5763fb3bdb411461016b5750610015565b61018761017736611f81565b9691929396949094421115611fe8565b81156103a75761019683612a5b565b6001600160a01b037f00000000000000000000000000000000000000000000000000000000000000008116916101ce91168214612e5e565b6102057f0000000000000000000000000000000000000000000000000000000000000000976101fe368688611e79565b9089612faf565b9661021b610212896129b6565b51341015613075565b88610225896129b6565b51833b156103a3578185918a515192838092630d0e30db60e41b8252885af1801561039857610380575b505061025a85612a5b565b846001101561036d57916102806102bd949260209461027a868a01612a5b565b91612177565b8a61028a8b6129b6565b518a515163a9059cbb60e01b81526001600160a01b03909316948301948552602085015290948593849291839160400190565b03925af190811561036257916102e66102f39594926102ed9461030f9a91610334575b50611fcd565b3691611e79565b84612cfe565b6102fc826129b6565b513411610313575b515191829182611dc1565b0390f35b61032f610329610322846129b6565b513461282a565b33612837565b610304565b610355915060203d811161035b575b61034d8183611e3f565b810190612073565b5f6102e0565b503d610343565b8551513d89823e3d90fd5b634e487b7160e01b8a526032845260248afd5b61038990611dfb565b61039457885f61024f565b8880fd5b8951513d84823e3d90fd5b5080fd5b634e487b7160e01b875260329052602486fd5b6104086103dd8486856103cc36611ce7565b999399989098929192421115611fe8565b7f00000000000000000000000000000000000000000000000000000000000000009834908a866123d8565b9690956104438761043a84867f0000000000000000000000000000000000000000000000000000000000000000612177565b8095339061208b565b6001600160a01b03918216803b156105bc57845151630d0e30db60e41b8152868189818d865af1801561059657859288928a926105a1575b5087515163a9059cbb60e01b81526001600160a01b0390971691870191825260208281018d9052969287928492918391829060400103925af190811561059657846024936104d4889796948b9485916105795750611fcd565b8851519a8b9687956335313c2160e11b87521690850152165af192831561056d5792610537575b5061030f9250843411610525575b5151938493846040919493926060820195825260208201520152565b610532610329863461282a565b610509565b90915082813d8311610566575b61054e8183611e3f565b810103126105625761030f915190856104fb565b5f80fd5b503d610544565b825151903d90823e3d90fd5b6105909150893d8b1161035b5761034d8183611e3f565b8f6102e0565b8651513d89823e3d90fd5b9093506105ae9150611dfb565b6105bc57858785928c61047b565b8580fd5b50346106f6576101003660031901126106f6576105db611ca5565b926105e4611cbb565b6001600160a01b039390929060c4358581169081900361056257602460209285610675986106164260e4351015611fe8565b61062e60a4356084358d606435908d604435916123d8565b8c8b61066e839f859f959e610663917f0000000000000000000000000000000000000000000000000000000000000000612177565b9d8e8094339061208b565b339061208b565b86515198899586946335313c2160e11b8652850152165af19182156106ea57916106b5575b51519283526020830193909352506040810191909152606090f35b90506020823d82116106e2575b816106cf60209383611e3f565b810103126105625761030f91519061069a565b3d91506106c2565b905151903d90823e3d90fd5b8280fd5b5090346106f65761070a36611f1b565b91889c98959994919a979a9693967f0000000000000000000000000000000000000000000000000000000000000000937f000000000000000000000000000000000000000000000000000000000000000097610767898988612177565b99156109c357505f19905b6001600160a01b03998a1692833b156109bf57918f8c6107b08f9694899688945151998a988997889663d505accf60e01b885230903390890161297a565b03925af180156109b457918986928894610994575b50504211156107d381611fe8565b6107dc90611fe8565b6107e592612177565b8951516323b872dd60e01b8152338782019081526001600160a01b0383166020820152604081019c909c529085169a8b908290819060600103818a5a94602095f180156109895761096b575b508851519963226bf2d160e21b8b5230868c01528a602481898d51945af1998a15610960578690879b610925575b50826108949b92899287610876886108a19861223c565b5016888416145f14610916579061089c919d8e959c5b861015612322565b8b101561237d565b6128ae565b1690813b156106f6578460248492838951519586948593632e1a7d4d60e01b85528401525af1801561090b57908492916108f0575b50506108e191612837565b81515192835260208301525190f35b8192506108fc90611dfb565b610908578083916108d6565b80fd5b8551513d84823e3d90fd5b939061089c919d8e959c61088c565b9a505088513d8111610959575b61093c818c611e3f565b8a8a5191810103126105bc5789516020909a0151996108a161085f565b503d610932565b8951513d88823e3d90fd5b6109829060203d811161035b5761034d8183611e3f565b505f610831565b8a51513d89823e3d90fd5b9092506109a2919350611dfb565b6109b057838591895f6107c5565b8780fd5b8c51513d8b823e3d90fd5b8c80fd5b90610772565b8382346103a35761030f90610a076109e036611ed7565b907f0000000000000000000000000000000000000000000000000000000000000000612afb565b90515191829182611dc1565b8382346103a357816003193601126103a35751517f00000000000000000000000000000000000000000000000000000000000000006001600160a01b03168152602090f35b5082346109085760e036600319011261090857610a73611ca5565b610a7b611cbb565b93610a84611cd1565b92610a934260c4351015611fe8565b610abe86847f0000000000000000000000000000000000000000000000000000000000000000612177565b8551516323b872dd60e01b8152338185019081526001600160a01b039283166020828101829052604435604084015293959093909291829081906060015b038187875af18015610be057610bc2575b50838751519663226bf2d160e21b8852169086015284602481848951945af1958615610bb55781948297610b79575b5090610b4983928561223c565b509050169116145f14610b7457915b610b66606435841015612322565b6108e160843582101561237d565b610b58565b9450955084513d8111610bae575b610b918186611e3f565b848651918101031261090857835160209094015195610b49610b3c565b503d610b87565b50845151903d90823e3d90fd5b610bd99060203d811161035b5761034d8183611e3f565b5088610b0d565b8851513d86823e3d90fd5b50610c0990610bf936611f81565b9692969590919395421115611fe8565b8215610eba57610c51610c1b87612a5b565b6001600160a01b03917f000000000000000000000000000000000000000000000000000000000000000083169183168214612e5e565b803b1561039457855151630d0e30db60e41b815289908181878134875af18015610eaf57610e9b575b5050610c8588612a5b565b8560011015610e885788610d05610caa96959493610cd18d946020998a809601612a5b565b907f0000000000000000000000000000000000000000000000000000000000000000612177565b8a515163a9059cbb60e01b81526001600160a01b039091168882019081523460208201529094859384928391604090910190565b03925af1908115610e7d5790610d21918b91610e665750611fcd565b5f198501858111610e535781610d40610d3b83898d612a4b565b612a5b565b1695875151996370a0823160e01b94858c52878c6024818885169c8d8c8301525afa9b8c15610e48578d9c610e0b575b508796959360249593610d9993610d94610d3b94610d8f368585611e79565b6130d1565b612a4b565b16875151968794859384528301525afa928315610e0157508592610dd1575b5050610dce92610dc79161282a565b10156129eb565b80f35b90809250813d8311610dfa575b610de88183611e3f565b81010312610562575182610dc7610db8565b503d610dde565b51513d87823e3d90fd5b909b50878181989795989694963d8311610e41575b610e2a8183611e3f565b8101031261056257519a9495929491939187610d70565b503d610e20565b8a51513d8f823e3d90fd5b634e487b7160e01b8a526011845260248afd5b6103559150863d881161035b5761034d8183611e3f565b8751513d8c823e3d90fd5b634e487b7160e01b8a526032855260248afd5b610ea490611dfb565b61039457885f610c7a565b8851513d84823e3d90fd5b634e487b7160e01b875260328252602487fd5b8382346103a357602090610eef610ee336611ce7565b94939093929192613326565b905151908152f35b8382346103a357602090610eef610f0d36611d27565b916126c7565b8382346103a357816003193601126103a35751517f00000000000000000000000000000000000000000000000000000000000000006001600160a01b03168152602090f35b508290346103a357610f7d610f6c36611d72565b979294919397959095421115611fe8565b610fc9610fb77f000000000000000000000000000000000000000000000000000000000000000092610fb0368789611e79565b9084612faf565b97610fc1896129b6565b511115613075565b821561103457610fd884612a5b565b91610fe285612a5b565b9084600110156110215761030f89896103048a6102ed8b8b6102e68c61100f8d8d61027a60208801612a5b565b6110188a6129b6565b5191339061208b565b634e487b7160e01b815260328a52602490fd5b634e487b7160e01b825260328852602482fd5b8382346103a357602090610eef61105d36611d27565b91612eaa565b5061107061017736611f81565b81156103a75761107f83612a5b565b6001600160a01b037f00000000000000000000000000000000000000000000000000000000000000008116916110b791168214612e5e565b7f00000000000000000000000000000000000000000000000000000000000000006110ed6110e6368688611e79565b3483612afb565b9788515f1981019081116111ac5790611109611111928b6129d7565b5110156129eb565b8861111b896129b6565b51833b156103a3578185918a515192838092630d0e30db60e41b8252885af1801561039857611198575b505061115085612a5b565b846001101561036d5791610280611170949260209461027a868a01612a5b565b03925af190811561036257916102e66103049594926102ed9461030f9a916103345750611fcd565b6111a190611dfb565b61039457885f611145565b634e487b7160e01b8b526011855260248bfd5b508290346103a3576111e36111d336611d72565b9693959096929192421115611fe8565b5f19820182811161138857610d3b6111fc918484612a4b565b6001600160a01b037f00000000000000000000000000000000000000000000000000000000000000008116959161123591168614612e5e565b82156113755761124482612a5b565b61124d83612a5b565b84600110156113625783611280611289948c999897946112788f9895610caa6020610d8f9801612a5b565b90339061208b565b30923691611e79565b8151516370a0823160e01b8152308282015294602086602481875afa95861561135757859661131e575b506112c0908610156129eb565b823b1561131a578460248592838551519687948593632e1a7d4d60e01b85528401525af190811561131057506112fc575b5050610dce91612837565b61130590611dfb565b6106f65782846112f1565b51513d84823e3d90fd5b8380fd5b945094506020843d821161134f575b8161133a60209383611e3f565b81010312610562576112c087945195906112b3565b3d915061132d565b8351513d87823e3d90fd5b634e487b7160e01b8a5260328b5260248afd5b634e487b7160e01b885260328952602488fd5b634e487b7160e01b885260118952602488fd5b50346106f6576113bf906113ae36611d72565b979297969091949396421115611fe8565b831561142e576113ce87612a5b565b926113d888612a5b565b93856001101561036d57906113f891611278602096610caa888d01612a5b565b5f19840184811161141b576001600160a01b039081610d40610d3b83898d612a4b565b634e487b7160e01b895260118352602489fd5b634e487b7160e01b885260328252602488fd5b5090346106f65761145136611f1b565b6114aa9c959a919392949c9996999897987f0000000000000000000000000000000000000000000000000000000000000000887f0000000000000000000000000000000000000000000000000000000000000000612177565b9215611528575f19925b6001600160a01b031693843b15611524578694926114f08f95938f9388945151998a988997889663d505accf60e01b885230903390890161297a565b03925af18015610eaf57611510575b602088610eef8b8a8a8a8a8a613326565b61151a8291611dfb565b61090857806114ff565b8680fd5b87926114b4565b508290346103a35761155461154336611d72565b979397959095949294421115611fe8565b5f199381850182811161170557610d3b61156f918484612a4b565b6001600160a01b037f0000000000000000000000000000000000000000000000000000000000000000811694916115a891168514612e5e565b6115e56115db7f000000000000000000000000000000000000000000000000000000000000000092610fb0368787611e79565b99610fc18b6129b6565b82156116f2576115f482612a5b565b906115fe83612a5b565b84600110156116df5761162d9261162485936112809361027a60206116339a9901612a5b565b6110188d6129b6565b88612cfe565b85518381019081116116cc5761164990876129d7565b51813b156106f6578291602483928851519485938492632e1a7d4d60e01b84528d8401525af1801561090b579082916116b8575b505084519182019182116116a55761030f85856103048661169e87856129d7565b5190612837565b634e487b7160e01b815260118652602490fd5b6116c190611dfb565b61090857808761167d565b634e487b7160e01b835260118852602483fd5b634e487b7160e01b875260328c52602487fd5b634e487b7160e01b855260328a52602485fd5b634e487b7160e01b855260118a52602485fd5b508290346103a35761172c610f6c36611d72565b6117637f00000000000000000000000000000000000000000000000000000000000000009161175c368688611e79565b9083612afb565b9687515f19810190811161177f5790611109610fc9928a6129d7565b634e487b7160e01b845260118a52602484fd5b50823461090857610160366003190112610908576117ae611ca5565b6117b6611cbb565b93604435926117c3611cd1565b9360e4359260c435841515850361056257610104359060ff82168203610562577f0000000000000000000000000000000000000000000000000000000000000000916118108b8985612177565b96156118fb575f19905b6001600160a01b0397881690813b156109b0579187918683611860958f51519687958694859363d505accf60e01b85528b6101443593610124359330903390890161297a565b03925af180156118f057918689928d946118d0575b50509161189391610afc9461188e602095421115611fe8565b612177565b8951516323b872dd60e01b8152338582019081526001600160a01b0383166020820152604081019690965290871694909283918291606090910190565b9092506118de919350611dfb565b6118ec57868a91868d611875565b8480fd5b8a51513d88823e3d90fd5b849061181a565b8382346103a35761030f90610a0761191936611ed7565b907f0000000000000000000000000000000000000000000000000000000000000000612faf565b508290346103a35761195461154336611d72565b5f199381850182811161170557610d3b61196f918484612a4b565b6001600160a01b037f0000000000000000000000000000000000000000000000000000000000000000811694916119a891168514612e5e565b6119d87f00000000000000000000000000000000000000000000000000000000000000009161175c368686611e79565b988951878101908111611aa857906111096119f3928c6129d7565b82156116f257611a0282612a5b565b90611a0c83612a5b565b84600110156116df5761162d9261162485936112809361027a6020611a329a9901612a5b565b85518381019081116116cc57611a4890876129d7565b51813b156106f6578291602483928851519485938492632e1a7d4d60e01b84528d8401525af1801561090b57611a99575b5084519182019182116116a55761030f85856103048661169e87856129d7565b611aa290611dfb565b86611a79565b634e487b7160e01b875260118c52602487fd5b8382346103a357602090610eef611ad136611d27565b91612ba3565b50823461090857611ae736611ce7565b97939795929594909442111590611afd82611fe8565b7f000000000000000000000000000000000000000000000000000000000000000091611b2890611fe8565b611b5382827f0000000000000000000000000000000000000000000000000000000000000000612177565b8851516323b872dd60e01b8152338782019081526001600160a01b0392831660208201819052604082019c909c529194918b90829081906060010381895a94602095f180156118f057611c87575b508851519963226bf2d160e21b8b5230878c01528a602481888d51945af1998a15611c7c578590869b611c41575b50826108949b9289928761087688611be69861223c565b1691823b156103a3578460248392838951519687948593632e1a7d4d60e01b85528401525af1908115611c3557509183916108e193611c26575b50612837565b611c2f90611dfb565b86611c20565b855151903d90823e3d90fd5b9a505088513d8111611c75575b611c58818c611e3f565b8a8a5191810103126118ec5789516020909a015199611be6611bcf565b503d611c4e565b8951513d87823e3d90fd5b611c9e9060203d811161035b5761034d8183611e3f565b508a611ba1565b600435906001600160a01b038216820361056257565b602435906001600160a01b038216820361056257565b60a435906001600160a01b038216820361056257565b60c0906003190112610562576001600160a01b03600435818116810361056257916024359160443591606435916084359081168103610562579060a43590565b606090600319011261056257600435906024359060443590565b9181601f840112156105625782359167ffffffffffffffff8311610562576020808501948460051b01011161056257565b60a06003198201126105625760043591602435916044359067ffffffffffffffff821161056257611da591600401611d41565b90916064356001600160a01b0381168103610562579060843590565b602090816040818301928281528551809452019301915f5b828110611de7575050505090565b835185529381019392810192600101611dd9565b67ffffffffffffffff8111611e0f57604052565b634e487b7160e01b5f52604160045260245ffd5b6020810190811067ffffffffffffffff821117611e0f57604052565b90601f8019910116810190811067ffffffffffffffff821117611e0f57604052565b67ffffffffffffffff8111611e0f5760051b60200190565b9291611e8482611e61565b91611e926040519384611e3f565b829481845260208094019160051b810192831161056257905b828210611eb85750505050565b81356001600160a01b0381168103610562578152908301908301611eab565b90604060031983011261056257600435916024359067ffffffffffffffff8211610562578060238301121561056257816024611f1893600401359101611e79565b90565b610140906003190112610562576001600160a01b03600435818116810361056257916024359160443591606435916084359081168103610562579060a4359060c4358015158103610562579060e43560ff81168103610562579061010435906101243590565b90608060031983011261056257600435916024359067ffffffffffffffff821161056257611fb191600401611d41565b90916044356001600160a01b0381168103610562579060643590565b15611fd457565b634e487b7160e01b5f52600160045260245ffd5b15611fef57565b60405162461bcd60e51b815260206004820152601860248201527f556e69737761705632526f757465723a204558504952454400000000000000006044820152606490fd5b3d1561206e573d9067ffffffffffffffff8211611e0f5760405191612063601f8201601f191660200184611e3f565b82523d5f602084013e565b606090565b90816020910312610562575180151581036105625790565b6040516323b872dd60e01b602082019081526001600160a01b03938416602483015293909216604483015260648201939093525f928392909183906120dd81608481015b03601f198101835282611e3f565b51925af16120e9612034565b81612148575b50156120f757565b60405162461bcd60e51b8152602060048201526024808201527f5472616e7366657248656c7065723a205452414e534645525f46524f4d5f46416044820152631253115160e21b6064820152608490fd5b805180159250821561215d575b50505f6120ef565b6121709250602080918301019101612073565b5f80612155565b916121819161223c565b6040929192519260208401906bffffffffffffffffffffffff199283809260601b16835260601b16603485015260288452606084019367ffffffffffffffff9281861084871117611e0f5760e092866040528251902090608083019560ff60f81b875260601b16608183015260958201527fa38f56ab2512906b1160e8a4974c297e041e252c4417aba03d3cce71bc39b0d160b582015260558552019083821090821117611e0f57604052905190206001600160a01b031690565b90916001600160a01b03918284168382168082146122b05710156122ab57925b9183161561226657565b60405162461bcd60e51b815260206004820152601e60248201527f556e697377617056324c6962726172793a205a45524f5f4144445245535300006044820152606490fd5b61225c565b60405162461bcd60e51b815260206004820152602560248201527f556e697377617056324c6962726172793a204944454e544943414c5f41444452604482015264455353455360d81b6064820152608490fd5b9081602091031261056257516001600160a01b03811681036105625790565b1561232957565b60405162461bcd60e51b815260206004820152602660248201527f556e69737761705632526f757465723a20494e53554646494349454e545f415f604482015265105353d5539560d21b6064820152608490fd5b1561238457565b60405162461bcd60e51b815260206004820152602660248201527f556e69737761705632526f757465723a20494e53554646494349454e545f425f604482015265105353d5539560d21b6064820152608490fd5b60405163e6a4390560e01b81526001600160a01b03828116600483015283811660248301529396949594937f0000000000000000000000000000000000000000000000000000000000000000808216949392909160209182816044818a5afa908115612540575f9161254b575b5016156124ca575b5061245893506125b2565b92908015806124c2575b1561246f57505050509091565b61247e848288979596976126c7565b9483861161249a57505050506124969082101561237d565b9091565b8395506124969450906124b1916124ba93946126c7565b94851115611fcd565b831015612322565b508315612462565b6040516364e329cb60e11b81526001600160a01b03848116600483015285166024820152948190869060449082905f905af19485156125405761245895612512575b5061244d565b8161253192903d10612539575b6125298183611e3f565b810190612303565b505f8061250c565b503d61251f565b6040513d5f823e3d90fd5b6125629150833d8511612539576125298183611e3f565b5f612445565b51906001600160701b038216820361056257565b908160609103126105625761259081612568565b91604061259f60208401612568565b92015163ffffffff811681036105625790565b908060606004936125d86125c6878561223c565b50966001600160a01b03948593612177565b1660405194858092630240bc6b60e21b82525afa928315612540575f90819461261a575b5081906001600160701b03809116941694169116145f146124965791565b82945061263e915060603d8111612645575b6126368183611e3f565b81019061257c565b50936125fc565b503d61262c565b1561265357565b60405162461bcd60e51b815260206004820152602860248201527f556e697377617056324c6962726172793a20494e53554646494349454e545f4c604482015267495155494449545960c01b6064820152608490fd5b81156126b3570490565b634e487b7160e01b5f52601260045260245ffd5b80156126fa57611f18926126ec91831515806126f1575b6126e79061264c565b6127ee565b6126a9565b508115156126de565b60405162461bcd60e51b815260206004820152602560248201527f556e697377617056324c6962726172793a20494e53554646494349454e545f416044820152641353d5539560da1b6064820152608490fd5b906103e591828102928184048114821517156127bb5783040361276c57565b60405162461bcd60e51b815260206004820152602160248201527f536166654d6174683a206d756c7469706c69636174696f6e206f766572666c6f6044820152607760f81b6064820152608490fd5b634e487b7160e01b5f52601160045260245ffd5b906103e891828102928184048114821517156127bb5783040361276c57565b5f92918015918215612804575b50501561276c57565b808202945091508115828504821417156127bb5761282290846126a9565b145f806127fb565b919082039182116127bb57565b5f80809381938260405161284a81611e23565b525af1612855612034565b501561285d57565b60405162461bcd60e51b815260206004820152602360248201527f5472616e7366657248656c7065723a204554485f5452414e534645525f46414960448201526213115160ea1b6064820152608490fd5b60405163a9059cbb60e01b602082019081526001600160a01b03909316602482015260448101939093525f9283929083906128ec81606481016120cf565b51925af16128f8612034565b8161294b575b501561290657565b60405162461bcd60e51b815260206004820152601f60248201527f5472616e7366657248656c7065723a205452414e534645525f4641494c4544006044820152606490fd5b8051801592508215612960575b50505f6128fe565b6129739250602080918301019101612073565b5f80612958565b9360ff929897969360c0969260e087019a60018060a01b0380921688521660208701526040860152606085015216608083015260a08201520152565b8051156129c35760200190565b634e487b7160e01b5f52603260045260245ffd5b80518210156129c35760209160051b010190565b156129f257565b60405162461bcd60e51b815260206004820152602b60248201527f556e69737761705632526f757465723a20494e53554646494349454e545f4f5560448201526a1514155517d05353d5539560aa1b6064820152608490fd5b91908110156129c35760051b0190565b356001600160a01b03811681036105625790565b15612a7657565b60405162461bcd60e51b815260206004820152601e60248201527f556e697377617056324c6962726172793a20494e56414c49445f5041544800006044820152606490fd5b90612ac582611e61565b612ad26040519182611e3f565b8281528092612ae3601f1991611e61565b0190602036910137565b5f1981146127bb5760010190565b9291612b0b600282511015612a6f565b612b158151612abb565b91612b1f836129b6565b525f5b81515f1981019081116127bb57811015612b9d576001600160a01b039081612b4a82856129d7565b51169160018201908183116127bb57612b8b612b7a612b9895612b9293612b71868a6129d7565b5116908b6125b2565b90612b85868a6129d7565b51612ba3565b91866129d7565b52612aed565b612b22565b50509150565b9190918015612c4257612bd4612bcd612bda9285151580612c39575b612bc89061264c565b61274d565b92836127ee565b926127cf565b908101908181116127bb578110612bf457611f18916126a9565b60405162461bcd60e51b815260206004820152601b60248201527f536166654d6174683a206164646974696f6e206f766572666c6f7700000000006044820152606490fd5b50841515612bbf565b60405162461bcd60e51b815260206004820152602b60248201527f556e697377617056324c6962726172793a20494e53554646494349454e545f4960448201526a1394155517d05353d5539560aa1b6064820152608490fd5b92909493919483526020948584015260018060a01b03166040830152608060608301528051908160808401525f5b828110612cea57505060a09293505f838284010152601f8019910116010190565b81810186015184820160a001528501612cc9565b7f00000000000000000000000000000000000000000000000000000000000000009392915f5b81515f1981019081116127bb57811015612e56576001600160a01b0380612d4b83856129d7565b5116600183018084116127bb5782612d6382876129d7565b51169280612d7c612d74868661223c565b5093896129d7565b5192168303612e4f575f91935b865160011981019081116127bb57861015612e445760028601908187116127bb57612dc58c8285612dbd612dcd968d6129d7565b511691612177565b945b8c612177565b1691604092835194612dde86611e23565b5f8652813b15610562575f8094612e0a87519889968795869463022c0d9f60e01b865260048601612c9b565b03925af1908115612e3b575090612e279291612e2c575b50612aed565b612d24565b612e3590611dfb565b5f612e21565b513d5f823e3d90fd5b612dcd908994612dc7565b5f93612d89565b505050509050565b15612e6557565b60405162461bcd60e51b815260206004820152601d60248201527f556e69737761705632526f757465723a20494e56414c49445f504154480000006044820152606490fd5b908115612f5557612ed2612ecd8383612ed994151580612f4c576126e79061264c565b6127cf565b918361282a565b918211612f0757612eec612ef29261274d565b906126a9565b60018101908181116127bb578110612bf45790565b60405162461bcd60e51b815260206004820152601f60248201527f536166654d6174683a207375627472616374696f6e20756e646572666c6f77006044820152606490fd5b508615156126de565b60405162461bcd60e51b815260206004820152602c60248201527f556e697377617056324c6962726172793a20494e53554646494349454e545f4f60448201526b155514155517d05353d5539560a21b6064820152608490fd5b929192612fc0600285511015612a6f565b612fca8451612abb565b938451925f19938481019081116127bb57612fe590876129d7565b5280518381019081116127bb57805b612ffe5750505050565b8381018181116130615761305261304b61303a6001600160a01b038061302486896129d7565b51169061303187896129d7565b511690886125b2565b90613045868c6129d7565b51612eaa565b91886129d7565b52801561306157830180612ff4565b60245f634e487b7160e01b81526011600452fd5b1561307c57565b60405162461bcd60e51b815260206004820152602760248201527f556e69737761705632526f757465723a204558434553534956455f494e50555460448201526617d05353d5539560ca1b6064820152608490fd5b7f000000000000000000000000000000000000000000000000000000000000000092915f5b82515f1981019081116127bb5781101561331f576001600160a01b038061311d83866129d7565b5116600183018084116127bb576131358391876129d7565b511690613142828261223c565b508361314f84848c612177565b16604093845195630240bc6b60e21b875260609460049580898881885afa988915613315575f91829a6132f4575b50509482168114976001600160701b03908116951688156132ef57945b8751958680936370a0823160e01b8252878a830152602094859160249a8b915afa9081156132e5575f916132b1575b506131de9350816131d99161282a565b612ba3565b96156132aa575f96935b8a5160011981019081116132975789101561328d576002890190818a1161327b57509061321961322293928c6129d7565b5116908c612177565b945b845161322f81611e23565b5f8152823b15610562575f9461325a86928851998a978896879563022c0d9f60e01b87528601612c9b565b03925af1908115612e3b5750906132769291612e2c5750612aed565b6130f6565b634e487b7160e01b5f90815260118852fd5b5050508694613224565b50634e487b7160e01b5f90815260118752fd5b5f936131e8565b91929382813d83116132de575b6132c88183611e3f565b810103126109085750516131de929190816131c9565b503d6132be565b8a513d5f823e3d90fd5b61319a565b849a5061330d9250803d10612645576126368183611e3f565b50985f61317d565b88513d5f823e3d90fd5b5050509050565b6133d0939192954211159061333a82611fe8565b6133647f000000000000000000000000000000000000000000000000000000000000000092611fe8565b61338f82827f0000000000000000000000000000000000000000000000000000000000000000612177565b604080516323b872dd60e01b81523360048201526001600160a01b039283166024820181905260448201979097529690959194602092909188906064820190565b039783815f9a818c865af18015613586579188918a9493613569575b50602482518095819363226bf2d160e21b83523060048401525af1998a1561355f578892899b613529575b50613422868661223c565b508588169390881684036135165784926134456024959361344d935b1015612322565b8c101561237d565b87516370a0823160e01b815230600482015292839182905afa91821561350c5790889188936134da575b5050613482926128ae565b16803b156106f6578280916024845180968193632e1a7d4d60e01b83528a60048401525af19182156134d0575050918391611f18936134c15750612837565b6134ca90611dfb565b5f611c20565b51903d90823e3d90fd5b8193508092503d8311613505575b6134f28183611e3f565b810103126105bc5751866134825f613477565b503d6134e8565b86513d89823e3d90fd5b9a84926134456024959361344d9361343e565b8880929c508194503d8311613558575b6135438183611e3f565b810103126109b057828251920151995f613417565b503d613539565b87513d8a823e3d90fd5b61357f90863d881161035b5761034d8183611e3f565b505f6133ec565b88513d8b823e3d90fdfea2646970667358221220a5b5fe56151538d94eb2351167b6c2affd844b724f65eace45b9bbd05864342a64736f6c63430008140033","linkReferences":{}},"methodIdentifiers":{"WETH()":"ad5c4648","addLiquidity(address,address,uint256,uint256,uint256,uint256,address,uint256)":"e8e33700","addLiquidityETH(address,uint256,uint256,uint256,address,uint256)":"f305d719","factory()":"c45a0155","getAmountIn(uint256,uint256,uint256)":"85f8c259","getAmountOut(uint256,uint256,uint256)":"054d50d4","getAmountsIn(uint256,address[])":"1f00ca74","getAmountsOut(uint256,address[])":"d06ca61f","quote(uint256,uint256,uint256)":"ad615dec","removeLiquidity(address,address,uint256,uint256,uint256,address,uint256)":"baa2abde","removeLiquidityETH(address,uint256,uint256,uint256,address,uint256)":"02751cec","removeLiquidityETHSupportingFeeOnTransferTokens(address,uint256,uint256,uint256,address,uint256)":"af2979eb","removeLiquidityETHWithPermit(address,uint256,uint256,uint256,address,uint256,bool,uint8,bytes32,bytes32)":"ded9382a","removeLiquidityETHWithPermitSupportingFeeOnTransferTokens(address,uint256,uint256,uint256,address,uint256,bool,uint8,bytes32,bytes32)":"5b0d5984","removeLiquidityWithPermit(address,address,uint256,uint256,uint256,address,uint256,bool,uint8,bytes32,bytes32)":"2195995c","swapETHForExactTokens(uint256,address[],address,uint256)":"fb3bdb41","swapExactETHForTokens(uint256,address[],address,uint256)":"7ff36ab5","swapExactETHForTokensSupportingFeeOnTransferTokens(uint256,address[],address,uint256)":"b6f9de95","swapExactTokensForETH(uint256,uint256,address[],address,uint256)":"18cbafe5","swapExactTokensForETHSupportingFeeOnTransferTokens(uint256,uint256,address[],address,uint256)":"791ac947","swapExactTokensForTokens(uint256,uint256,address[],address,uint256)":"38ed1739","swapExactTokensForTokensSupportingFeeOnTransferTokens(uint256,uint256,address[],address,uint256)":"5c11d795","swapTokensForExactETH(uint256,uint256,address[],address,uint256)":"4a25d94a","swapTokensForExactTokens(uint256,uint256,address[],address,uint256)":"8803dbee"},"id":9}