{"abi":[{"type":"constructor","inputs":[{"name":"_factoryA","type":"address","internalType":"address"},{"name":"_factoryB","type":"address","internalType":"address"}],"stateMutability":"nonpayable"},{"type":"receive","stateMutability":"payable"},{"type":"function","name":"checkArbitrageOpportunity","inputs":[{"name":"tokenA","type":"address","internalType":"address"},{"name":"tokenB","type":"address","internalType":"address"}],"outputs":[{"name":"","type":"bool","internalType":"bool"},{"name":"","type":"uint256","internalType":"uint256"},{"name":"","type":"uint256","internalType":"uint256"}],"stateMutability":"view"},{"type":"function","name":"executeArbitrage","inputs":[{"name":"_token","type":"address","internalType":"address"},{"name":"_weth","type":"address","internalType":"address"},{"name":"_amountToken","type":"uint256","internalType":"uint256"}],"outputs":[],"stateMutability":"nonpayable"},{"type":"function","name":"factoryA","inputs":[],"outputs":[{"name":"","type":"address","internalType":"address"}],"stateMutability":"view"},{"type":"function","name":"factoryB","inputs":[],"outputs":[{"name":"","type":"address","internalType":"address"}],"stateMutability":"view"},{"type":"function","name":"uniswapV2Call","inputs":[{"name":"_sender","type":"address","internalType":"address"},{"name":"_amount0","type":"uint256","internalType":"uint256"},{"name":"_amount1","type":"uint256","internalType":"uint256"},{"name":"_data","type":"bytes","internalType":"bytes"}],"outputs":[],"stateMutability":"nonpayable"},{"type":"event","name":"Arbitrage","inputs":[{"name":"token","type":"address","indexed":true,"internalType":"address"},{"name":"weth","type":"address","indexed":true,"internalType":"address"},{"name":"amountBorrowed","type":"uint256","indexed":false,"internalType":"uint256"},{"name":"amountToRepay","type":"uint256","indexed":false,"internalType":"uint256"},{"name":"profit","type":"uint256","indexed":false,"internalType":"uint256"}],"anonymous":false}],"bytecode":{"object":"0x60c0346200011a57601f620018c438819003918201601f19168301916001600160401b038311848410176200011e5780849260409485528339810103126200011a576200005a6020620000528362000132565b920162000132565b906001600160a01b03808216151590816200010d575b5015620000c85760805260a05260405161177c908162000148823960805181818160700152818161010d0152818161071401526112bc015260a0518181816101390152818161062d01528181610b9401526113250152f35b60405162461bcd60e51b815260206004820152601760248201527f496e76616c696420666163746f727920616464726573730000000000000000006044820152606490fd5b9050821615155f62000070565b5f80fd5b634e487b7160e01b5f52604160045260245ffd5b51906001600160a01b03821682036200011a5756fe608080604052600436101561001c575b50361561001a575f80fd5b005b5f90813560e01c90816310d1e85c1461065c575080635eb1c57114610617578063650f84be146100e4578063bf7c10d9146100a25763fd6916450361000f573461009f578060031936011261009f576040517f00000000000000000000000000000000000000000000000000000000000000006001600160a01b03168152602090f35b80fd5b503461009f57604036600319011261009f5760606100cf6100c1610c09565b6100c9610c23565b9061127d565b90604051921515835260208301526040820152f35b503461009f57606036600319011261009f576100fe610c09565b610106610c23565b61013181837f0000000000000000000000000000000000000000000000000000000000000000610d94565b9161015d82827f0000000000000000000000000000000000000000000000000000000000000000610d94565b926001600160a01b038116151580610605575b156105cb57604051630240bc6b60e21b8082529092906060846004816001600160a01b0387165afa93841561046d57879088956105a6575b506040519182526060826004816001600160a01b038b165afa9081156104415788928992610571575b50604051630dfe168160e01b8152956020876004816001600160a01b038a165afa968715610566578a97610545575b50604051630dfe168160e01b8152946020866004816001600160a01b038e165afa95861561053a578b96610519575b506001600160a01b03908116971687036104df57670de0b6b3a76400006001600160701b03918216818102939181159185041417156104cb57916102769188931690610d13565b935b6001600160a01b03160361049457670de0b6b3a76400006001600160701b0391821681810293918115918504141715610480576102b792911690610d13565b11156104785792906001935b604051630dfe168160e01b8152946001600160a01b03919091169290602086600481875afa95861561046d57879661044c575b5060405163d21220a760e01b815295602087600481885afa968715610441578897610410575b506001600160a01b0316830361040957604435955b6001600160a01b0316830361040257604435945b60405193602085015260018060a01b031660408401521515606083015260018060a01b031660808201526080815260a081019381851067ffffffffffffffff8611176103ee57908593929185604052823b156103ea5763022c0d9f60e01b8652859384928692609f19926103c0918391309160a48401610d31565b0301925af180156103df576103d3575080f35b6103dc90610c39565b80f35b6040513d84823e3d90fd5b8480fd5b634e487b7160e01b86526041600452602486fd5b8694610345565b8695610331565b61043391975060203d60201161043a575b61042b8183610c61565b810190610ccd565b955f61031c565b503d610421565b6040513d8a823e3d90fd5b61046691965060203d60201161043a5761042b8183610c61565b945f6102f6565b6040513d89823e3d90fd5b9084936102c3565b634e487b7160e01b89526011600452602489fd5b670de0b6b3a76400006001600160701b039283168181029392918115918504141715610480576104c692911690610d13565b6102b7565b634e487b7160e01b8b52601160045260248bfd5b670de0b6b3a76400006001600160701b0392831681810293929181159185041417156104cb57916105139188931690610d13565b93610278565b61053391965060203d60201161043a5761042b8183610c61565b945f61022f565b6040513d8d823e3d90fd5b61055f91975060203d60201161043a5761042b8183610c61565b955f610200565b6040513d8c823e3d90fd5b909250610596915060603d60601161059f575b61058e8183610c61565b810190610c97565b5090915f6101d1565b503d610584565b90506105c291945060603d60601161059f5761058e8183610c61565b5093905f6101a8565b60405162461bcd60e51b815260206004820152601260248201527114185a5c9cc8191bc81b9bdd08195e1a5cdd60721b6044820152606490fd5b506001600160a01b0384161515610170565b503461009f578060031936011261009f576040517f00000000000000000000000000000000000000000000000000000000000000006001600160a01b03168152602090f35b905034610c05576080366003190112610c0557610677610c09565b60249081359060649081359467ffffffffffffffff808711610c015736602388011215610c01578660040135908111610c01578601903686830111610c01576001600160a01b03923090841603610bc15750856080910312610bbd576106de848601610f08565b6106ea60448701610f08565b9483870135968715158803610bb957836107076084829301610f08565b93169616965f14610b92577f0000000000000000000000000000000000000000000000000000000000000000935b604051630dfe168160e01b80825290966020968789600481335afa988915610b87578c99610b68575b508b6040519163d21220a760e01b9a8b84528a84600481335afa918215610b5d578a946107919493610b3e575b50610d94565b163303610b03578015610af957945b600386029186830460031487151715610a6d576103e48301809311610a6d57908b916107e08b898e856107d86103e5809a0484610f1c565b9b1692610f4e565b996040519182528982600481335afa918215610ab2578492610ada575b506040519081528981600481335afa8015610ab257610abd575b50604051630240bc6b60e21b815291606083600481335afa908115610ab25761086d9385908693610a8e575b506001600160701b03809116921692168c14805f14610a875781945b5015610a8057505b86610cec565b906103e891828102928184041490151715610a6d578561088c91610f41565b828102928184041490151715610a5a57906108a691610d13565b9160018301809311610a485782871115610a0757836108c733858b8d610f4e565b106109b757505060405163a9059cbb60e01b808252336004830152602482018490529590919085836044818d8c5af19283156105665761090c9361099a575b50610f41565b604051948552326004860152602485018190529083856044818b8b5af1938415610441577fed48b13f1dfbf804523fbe02c20d9dcdff92b5c15ebdc9d5e0296be98307d2c39560609561096d575b506040519384528301526040820152a380f35b61098c90823d8411610993575b6109848183610c61565b810190610f29565b505f61095a565b503d61097a565b6109b090873d8911610993576109848183610c61565b505f610906565b64726570617960d81b608492602588936040519462461bcd60e51b865260048601528401527f496e73756666696369656e7420746f6b656e20726563656976656420666f72206044840152820152fd5b601886916040519262461bcd60e51b845260048401528201527f4e6f20617262697472616765206f70706f7274756e69747900000000000000006044820152fd5b634e487b7160e01b8a52601160045289fd5b634e487b7160e01b8b526011600452838bfd5b634e487b7160e01b8c526011600452848cfd5b9050610867565b829461085f565b9050610aa991925060603d811161059f5761058e8183610c61565b5091905f610843565b6040513d86823e3d90fd5b610ad3908a3d8c1161043a5761042b8183610c61565b505f610817565b610af29192508a3d8c1161043a5761042b8183610c61565b905f6107fd565b50604435946107a0565b60405162461bcd60e51b81526004810188905260158186015274556e617574686f72697a65642063616c6c6261636b60581b60448201528390fd5b610b569193508c8d3d1061043a5761042b8183610c61565b915f61078b565b6040513d85823e3d90fd5b610b80919950883d8a1161043a5761042b8183610c61565b975f61075e565b6040513d8e823e3d90fd5b7f000000000000000000000000000000000000000000000000000000000000000093610735565b8880fd5b8580fd5b62461bcd60e51b8152602060048201526019868201527f496e76616c696420666c617368206c6f616e2073656e6465720000000000000060448201528390fd5b8780fd5b5080fd5b600435906001600160a01b0382168203610c1f57565b5f80fd5b602435906001600160a01b0382168203610c1f57565b67ffffffffffffffff8111610c4d57604052565b634e487b7160e01b5f52604160045260245ffd5b90601f8019910116810190811067ffffffffffffffff821117610c4d57604052565b51906001600160701b0382168203610c1f57565b90816060910312610c1f57610cab81610c83565b916040610cba60208401610c83565b92015163ffffffff81168103610c1f5790565b90816020910312610c1f57516001600160a01b0381168103610c1f5790565b81810292918115918404141715610cff57565b634e487b7160e01b5f52601160045260245ffd5b8115610d1d570490565b634e487b7160e01b5f52601260045260245ffd5b92909493919483526020948584015260018060a01b03166040830152608060608301528051908160808401525f5b828110610d8057505060a09293505f838284010152601f8019910116010190565b81810186015184820160a001528501610d5f565b6001600160a01b03929091838216848216808214610eb5571015610eb057905b83821615610e6b576040519160208301906bffffffffffffffffffffffff199283809260601b16835260601b16603484015260288352606083019267ffffffffffffffff9281851084861117610c4d5760e092856040528251902090608083019660ff60f81b885260601b16608183015260958201527fa38f56ab2512906b1160e8a4974c297e041e252c4417aba03d3cce71bc39b0d160b582015260558452019082821090821117610c4d576040525190201690565b60405162461bcd60e51b815260206004820152601e60248201527f556e697377617056324c6962726172793a205a45524f5f4144445245535300006044820152606490fd5b610db4565b60405162461bcd60e51b815260206004820152602560248201527f556e697377617056324c6962726172793a204944454e544943414c5f41444452604482015264455353455360d81b6064820152608490fd5b35906001600160a01b0382168203610c1f57565b91908201809211610cff57565b90816020910312610c1f57518015158103610c1f5790565b91908203918211610cff57565b604080516370a0823160e01b808252306004808401919091526001600160a01b0395861697929693956020955f959294929190878a6024818e5afa998a1561127357879a611244575b50885163a9059cbb60e01b81526001600160a01b03851687820190815260208101859052918316949189908290819060400103818b895af1801561121d5790839291611227575b501691885193630dfe168160e01b855288858881875afa94851561121d5788956111fe575b508951630240bc6b60e21b8152926060848981885afa9384156111f45789908a956111d0575b50951614936001600160701b03908116921684156111c957825b85156111c257505b6103e5918281029281840414901517156111af576110699082610cec565b916103e8908181029181830414901517156111af57611092929161108c91610f1c565b90610d13565b82156111a85785925b156111a057915b87519287840184811067ffffffffffffffff82111761118d578952868452823b1561118957916110ed93918780948b519687958694859363022c0d9f60e01b855230918d8601610d31565b03925af1801561117f57908593929161116b575b5060249086519889938492835230908301525afa928315611161575091611131575b5061112e9250610f41565b90565b905082813d831161115a575b6111478183610c61565b81010312610c1f5761112e91515f611123565b503d61113d565b51903d90823e3d90fd5b9361117860249295610c39565b9390611101565b86513d86823e3d90fd5b8680fd5b634e487b7160e01b885260418752602488fd5b5084916110a2565b809261109b565b634e487b7160e01b885260118752602488fd5b905061104b565b8092611043565b90506111eb91945060603d811161059f5761058e8183610c61565b5093905f611029565b8b513d8b823e3d90fd5b611216919550893d8b1161043a5761042b8183610c61565b935f611003565b8a513d8a823e3d90fd5b61123d908a3d8c11610993576109848183610c61565b505f610fde565b9099508781813d831161126c575b61125c8183610c61565b8101031261118957519881610f97565b503d611252565b89513d89823e3d90fd5b6040805163e6a4390560e01b8082526001600160a01b0384811660048085019190915286821660248501529590946020949093909290919085836044817f00000000000000000000000000000000000000000000000000000000000000008b165afa92831561173c5791869161132094935f9461171d575b5085519081526001600160a01b038088168b8301908152921660208301529384918291604090910190565b0381897f0000000000000000000000000000000000000000000000000000000000000000165afa918215611713579086915f936116f4575b501690811580156116ea575b6116db578251630240bc6b60e21b80825294606080838b81885afa9283156116d1575f9081946116ae575b50896001600160701b03808093169516951691875198895280898d81865afa988915611683575f91829a61168d575b5050811697169786519281848d81630dfe168160e01b9a8b82525afa93841561168357908b915f95611660575b5090829116968c89518095819382525afa96871561165757505f96611638575b505083885f9216145f146115fa575090670de0b6b3a7640000908181029181830414901517156115e7579061143f91610d13565b945b5f9216036115aa575090670de0b6b3a764000090818102918183041490151715611597579061146f91610d13565b80821191821561156d576103e580820290828204148215171561155a576103e8839104111561154e575b5f92156114fd576114aa9250610f41565b90670de0b6b3a7640000828102048092036114ea576103e5918281029281840414901517156114ea57506103e890045b600191670de0b6b3a76400009190565b601190634e487b7160e01b5f525260245ffd5b61150691610f41565b91670de0b6b3a76400008381020480930361153b576103e59283810293818504149015171561153b5750506103e890046114da565b634e487b7160e01b825260119052602490fd5b505050505f905f905f90565b601185634e487b7160e01b5f525260245ffd5b6103e580830290838204148315171561155a576103e88291041161149957505050505f905f905f90565b601184634e487b7160e01b5f525260245ffd5b670de0b6b3a7640000918281029281840414901517156115d45750906115cf91610d13565b61146f565b634e487b7160e01b815260118552602490fd5b601188634e487b7160e01b5f525260245ffd5b670de0b6b3a76400009182810292818404149015171561162557509061161f91610d13565b94611441565b634e487b7160e01b815260118952602490fd5b61164f929650803d1061043a5761042b8183610c61565b935f8061140b565b513d5f823e3d90fd5b839291955061167b90833d851161043a5761042b8183610c61565b9490916113eb565b88513d5f823e3d90fd5b839a506116a69250803d1061059f5761058e8183610c61565b50985f6113be565b9050816116c89294503d851161059f5761058e8183610c61565b5092905f61138f565b86513d5f823e3d90fd5b505050505050505f905f905f90565b5085811615611364565b61170c919350863d881161043a5761042b8183610c61565b915f611358565b83513d5f823e3d90fd5b611735919450833d851161043a5761042b8183610c61565b925f6112f5565b84513d5f823e3d90fdfea2646970667358221220b4c8fd2792891c477570ce99abd76c24da7d5e8b8a5e862182b3b0bef4d6858364736f6c63430008140033","linkReferences":{}},"methodIdentifiers":{"checkArbitrageOpportunity(address,address)":"bf7c10d9","executeArbitrage(address,address,uint256)":"650f84be","factoryA()":"fd691645","factoryB()":"5eb1c571","uniswapV2Call(address,uint256,uint256,bytes)":"10d1e85c"},"id":32}