{"abi":[{"type":"constructor","inputs":[{"name":"_factory","type":"address","internalType":"address"},{"name":"_weth","type":"address","internalType":"address"}],"stateMutability":"nonpayable"},{"type":"function","name":"MAX_OBSERVATIONS","inputs":[],"outputs":[{"name":"","type":"uint256","internalType":"uint256"}],"stateMutability":"view"},{"type":"function","name":"clearObservations","inputs":[{"name":"token","type":"address","internalType":"address"}],"outputs":[],"stateMutability":"nonpayable"},{"type":"function","name":"factory","inputs":[],"outputs":[{"name":"","type":"address","internalType":"contract IUniswapV2Factory"}],"stateMutability":"view"},{"type":"function","name":"getObservation","inputs":[{"name":"token","type":"address","internalType":"address"},{"name":"index","type":"uint256","internalType":"uint256"}],"outputs":[{"name":"timestamp","type":"uint256","internalType":"uint256"},{"name":"price0Cumulative","type":"uint256","internalType":"uint256"},{"name":"price1Cumulative","type":"uint256","internalType":"uint256"}],"stateMutability":"view"},{"type":"function","name":"getObservationsCount","inputs":[{"name":"token","type":"address","internalType":"address"}],"outputs":[{"name":"","type":"uint256","internalType":"uint256"}],"stateMutability":"view"},{"type":"function","name":"getTokenSpotPrice","inputs":[{"name":"token","type":"address","internalType":"address"}],"outputs":[{"name":"spotPriceInWeth","type":"uint256","internalType":"uint256"},{"name":"success","type":"bool","internalType":"bool"}],"stateMutability":"view"},{"type":"function","name":"getTokenTWAP","inputs":[{"name":"token","type":"address","internalType":"address"},{"name":"period","type":"uint256","internalType":"uint256"}],"outputs":[{"name":"twapInWeth","type":"uint256","internalType":"uint256"},{"name":"success","type":"bool","internalType":"bool"}],"stateMutability":"view"},{"type":"function","name":"hasSufficientPriceHistory","inputs":[{"name":"token","type":"address","internalType":"address"},{"name":"requiredPeriod","type":"uint256","internalType":"uint256"}],"outputs":[{"name":"","type":"bool","internalType":"bool"}],"stateMutability":"view"},{"type":"function","name":"observations","inputs":[{"name":"","type":"address","internalType":"address"},{"name":"","type":"uint256","internalType":"uint256"}],"outputs":[{"name":"timestamp","type":"uint256","internalType":"uint256"},{"name":"price0Cumulative","type":"uint256","internalType":"uint256"},{"name":"price1Cumulative","type":"uint256","internalType":"uint256"}],"stateMutability":"view"},{"type":"function","name":"owner","inputs":[],"outputs":[{"name":"","type":"address","internalType":"address"}],"stateMutability":"view"},{"type":"function","name":"renounceOwnership","inputs":[],"outputs":[],"stateMutability":"nonpayable"},{"type":"function","name":"transferOwnership","inputs":[{"name":"newOwner","type":"address","internalType":"address"}],"outputs":[],"stateMutability":"nonpayable"},{"type":"function","name":"updatePrice","inputs":[{"name":"token","type":"address","internalType":"address"}],"outputs":[{"name":"","type":"bool","internalType":"bool"}],"stateMutability":"nonpayable"},{"type":"function","name":"weth","inputs":[],"outputs":[{"name":"","type":"address","internalType":"address"}],"stateMutability":"view"},{"type":"event","name":"OwnershipTransferred","inputs":[{"name":"previousOwner","type":"address","indexed":true,"internalType":"address"},{"name":"newOwner","type":"address","indexed":true,"internalType":"address"}],"anonymous":false},{"type":"event","name":"PriceObservationUpdated","inputs":[{"name":"token","type":"address","indexed":true,"internalType":"address"},{"name":"timestamp","type":"uint256","indexed":false,"internalType":"uint256"},{"name":"price0Cumulative","type":"uint256","indexed":false,"internalType":"uint256"},{"name":"price1Cumulative","type":"uint256","indexed":false,"internalType":"uint256"}],"anonymous":false},{"type":"error","name":"OwnableInvalidOwner","inputs":[{"name":"owner","type":"address","internalType":"address"}]},{"type":"error","name":"OwnableUnauthorizedAccount","inputs":[{"name":"account","type":"address","internalType":"address"}]}],"bytecode":{"object":"0x60c0346101a3576113ba90601f38839003908101601f19168201906001600160401b038211838310176101a757808391604095869485528339810103126101a357610055602061004e836101bb565b92016101bb565b90331561018c575f8054336001600160a01b03198216811783558551936001600160a01b039384939192918416907f8be0079c531659141344cd1fd0a4f28419497f9722a3daafe3b4186f6b6457e09080a31691821561014a57508216156101065760805260a052516111ea90816101d082396080518181816101930152818161068801528181610bc90152610ee1015260a0518181816104590152818161065301528181610b9a0152610eaf0152f35b825162461bcd60e51b815260206004820152601460248201527f496e76616c6964205745544820616464726573730000000000000000000000006044820152606490fd5b62461bcd60e51b815260206004820152601760248201527f496e76616c696420666163746f727920616464726573730000000000000000006044820152606490fd5b8251631e4fbdf760e01b81525f6004820152602490fd5b5f80fd5b634e487b7160e01b5f52604160045260245ffd5b51906001600160a01b03821682036101a35756fe6040608081526004361015610012575f80fd5b5f90813560e01c806302459966146104a35780633ca52526146104885780633fc8cef31461044557806353d1e07e1461041c578063715018a6146103c257806376fb7b521461032b5780637d92ab5314610276578063852227481461024e5780638da5cb5b1461022757806396e85ced146101f9578063c14ce674146101c2578063c45a01551461017f578063e1a381ec1461013e5763f2fde38b146100b6575f80fd5b3461013a57602036600319011261013a576100cf6104eb565b6100d7610532565b6001600160a01b03908116918215610123575082546001600160a01b0319811683178455167f8be0079c531659141344cd1fd0a4f28419497f9722a3daafe3b4186f6b6457e08380a380f35b51631e4fbdf760e01b815260048101849052602490fd5b5080fd5b503461013a57602036600319011261013a5761017b9061016461015f6104eb565b610e8f565b915190815290151560208201529081906040820190565b0390f35b503461013a578160031936011261013a57517f00000000000000000000000000000000000000000000000000000000000000006001600160a01b03168152602090f35b503461013a57602036600319011261013a5760209181906001600160a01b036101e96104eb565b1681526001845220549051908152f35b503461013a57602036600319011261013a5760209061021e6102196104eb565b61062f565b90519015158152f35b503461013a578160031936011261013a57905490516001600160a01b039091168152602090f35b503461013a578060031936011261013a5760209061021e61026d6104eb565b60243590611074565b5090346103285781600319360112610328576102906104eb565b6001600160a01b03168082526001602052828220546024359291908310156102ee578184916102c6949352600160205220610505565b5080546001820154600290920154925190815260208101919091526040810191909152606090f35b835162461bcd60e51b8152602060048201526013602482015272496e646578206f7574206f6620626f756e647360681b6044820152606490fd5b80fd5b503461013a57602036600319011261013a576103456104eb565b61034d610532565b6001600160a01b03168252600160208190529082208054838255909181610372578380f35b60039282840292848404036103ae57845260208420918201915b82811061039857508380f35b808585925585838201558560028201550161038c565b634e487b7160e01b85526011600452602485fd5b82346103285780600319360112610328576103db610532565b80546001600160a01b03198116825581906001600160a01b03167f8be0079c531659141344cd1fd0a4f28419497f9722a3daafe3b4186f6b6457e08280a380f35b503461013a578060031936011261013a5761017b9061016461043c6104eb565b60243590610af0565b503461013a578160031936011261013a57517f00000000000000000000000000000000000000000000000000000000000000006001600160a01b03168152602090f35b503461013a578160031936011261013a5760209051600a8152f35b503461013a578060031936011261013a576104bc6104eb565b6001600160a01b031682526001602052808220805460243591908210156104e757906102c691610505565b8380fd5b600435906001600160a01b038216820361050157565b5f80fd5b805482101561051e575f52600360205f20910201905f90565b634e487b7160e01b5f52603260045260245ffd5b5f546001600160a01b0316330361054557565b60405163118cdaa760e01b8152336004820152602490fd5b6020810190811067ffffffffffffffff82111761057957604052565b634e487b7160e01b5f52604160045260245ffd5b90601f8019910116810190811067ffffffffffffffff82111761057957604052565b9081602091031261050157516001600160a01b03811681036105015790565b91906105ee57604081600292518455602081015160018501550151910155565b634e487b7160e01b5f525f60045260245ffd5b9190820391821161060e57565b634e487b7160e01b5f52601160045260245ffd5b9190820180921161060e57565b6040805163e6a4390560e01b81526001600160a01b038381166004808401919091527f000000000000000000000000000000000000000000000000000000000000000082166024840152939290916020919082816044817f000000000000000000000000000000000000000000000000000000000000000088165afa908115610ac8579084915f91610a9b575b5016918215610a91575f9063ffffffff94854216958451635909c0d560e01b815283818b818a5afa948515610a86578095610a54575b50508451635a3d549360e01b81528484828c818b5afa918215610a4a575f92610a1b575b508a60608399895192838092630240bc6b60e21b82525afa938415610a11575f94859286916109d8575b5081168b8103610932575b5050505050508351966060880188811067ffffffffffffffff82111761091f578552868852838389015285858901521695865f52600197888352845f208054600a8110155f146108b957505f8a5b61080c575b5080545f198101929083116107f9575060609694926107e47f14995b7b36f23cc69c26d29b9a65835b6d788e1189d68ba9adb17cf0a95b6ad8999795936107ea93610505565b906105ce565b8251948552840152820152a290565b601190634e487b7160e01b5f525260245ffd5b81545f1981019081116108a1578110156108b4578a81018082116108a1576108349083610505565b5061083f8284610505565b91909161088f57808203610873575b50505f198114610860578a018a610799565b601183634e487b7160e01b5f525260245ffd5b805482558c8101548d8301556002809101549101555f8061084e565b5f85634e487b7160e01b82525260245ffd5b601184634e487b7160e01b5f525260245ffd5b61079e565b916801000000000000000083101561090c575060609694926107e483610907938d7f14995b7b36f23cc69c26d29b9a65835b6d788e1189d68ba9adb17cf0a95b6ad89c9a9896018155610505565b6107ea565b604190634e487b7160e01b5f525260245ffd5b60418a634e487b7160e01b5f525260245ffd5b8b038181116109c5571691821515806109b3575b806109a1575b610957575b8061074b565b94985092955061099693919261098a926001600160e01b03916109839161099090868686868e876110f7565b5116610e7c565b90610622565b986110f7565b935f80808080610951565b506001600160701b038216151561094c565b506001600160701b0385161515610946565b60118e634e487b7160e01b5f525260245ffd5b90508195506109ff91925060603d8111610a0a575b6109f7818361058d565b810190610e46565b929195909290610740565b503d6109ed565b88513d5f823e3d90fd5b90918582813d8311610a43575b610a32818361058d565b81010312610328575051905f610716565b503d610a28565b87513d5f823e3d90fd5b909194508382813d8311610a7f575b610a6d818361058d565b81010312610328575051925f806106f2565b503d610a63565b8651903d90823e3d90fd5b5050505050505f90565b610abb9150843d8611610ac1575b610ab3818361058d565b8101906105af565b5f6106bc565b503d610aa9565b82513d5f823e3d90fd5b8115610adc570490565b634e487b7160e01b5f52601260045260245ffd5b6001600160a01b038181165f818152600160209081526040822080549295949093919060028410610e24575f1997848901948511610e1057879885805b610da0575b5050610b55610b418688610505565b5054610b4d8b89610505565b505490610601565b10610d97575b610b74610b688587610505565b5054610b4d8a88610505565b958615610d885760405163e6a4390560e01b81526001600160a01b0382811660048301527f000000000000000000000000000000000000000000000000000000000000000090811660248301529084816044817f000000000000000000000000000000000000000000000000000000000000000088165afa8015610d7d57610d60575b50828116808614610d0f57851015610d0857505b16908115610cc457501494610c579392610c529290918715610caf57610c3360019184610505565b500154915b8715610ca357600191610c4a91610505565b500154610601565b610ad2565b9115610c65575b5090600190565b8115610c9d578115610c8957506ec097ce7bc90715b34b9f1000000000045f610c5e565b634e487b7160e01b81526012600452602490fd5b91829150565b600291610c4a91610505565b610cbb60029184610505565b50015491610c38565b6064906040519062461bcd60e51b82526004820152601c60248201527f4d656d65545741504f7261636c653a205a45524f5f41444452455353000000006044820152fd5b9050610c0b565b60405162461bcd60e51b815260048101869052602360248201527f4d656d65545741504f7261636c653a204944454e544943414c5f41444452455360448201526253455360e81b6064820152608490fd5b610d7690853d8711610ac157610ab3818361058d565b505f610bf7565b6040513d8c823e3d90fd5b50505050505050809291509190565b96508596610b5b565b610daa8789610505565b505482820190828211610dfc57610dc68591610b4d848d610505565b1015610def57508015610ddb57810180610b2d565b634e487b7160e01b8a52601160045260248afd5b929a505050975f80610b32565b634e487b7160e01b8c52601160045260248cfd5b634e487b7160e01b88526011600452602488fd5b505050505050809291509190565b51906001600160701b038216820361050157565b9081606091031261050157610e5a81610e32565b916040610e6960208401610e32565b92015163ffffffff811681036105015790565b8181029291811591840414171561060e57565b6040805163e6a4390560e01b81526001600160a01b0383811660048301527f000000000000000000000000000000000000000000000000000000000000000081166024830152602093929184816044817f000000000000000000000000000000000000000000000000000000000000000086165afa90811561106a579082915f9161104d575b5016928315611042578251630240bc6b60e21b815294606086600481885afa948515611038575f96879661100b575b509080600492865193848092630dfe168160e01b82525afa94851561100257505f94610fdf575b505081169116145f14610fae57670de0b6b3a76400006001600160701b039182168181029291811591840414171561060e57610fa8921690610ad2565b90600190565b90670de0b6b3a76400006001600160701b039182168181029291811591840414171561060e57610fa8921690610ad2565b839294509081610ffa92903d10610ac157610ab3818361058d565b92905f610f6b565b513d5f823e3d90fd5b82975060049291965061102b9060603d8111610a0a576109f7818361058d565b5097909796919250610f44565b84513d5f823e3d90fd5b50505050505f905f90565b6110649150863d8811610ac157610ab3818361058d565b5f610f15565b83513d5f823e3d90fd5b6001600160a01b03165f90815260016020526040812080549190600283106110f0575f1983018381116110dc576110ab9082610505565b505492156110c857815260209020546110c391610601565b101590565b634e487b7160e01b82526032600452602482fd5b634e487b7160e01b83526011600452602483fd5b5091505090565b905f6040516111058161055d565b526001600160701b0380911690811561116f5782161561115b576001600160e01b0391611148919060701b6dffffffffffffffffffffffffffff60701b16610ad2565b16604051906111568261055d565b815290565b50506040516111698161055d565b5f815290565b60405162461bcd60e51b815260206004820152601760248201527f4669786564506f696e743a204449565f42595f5a45524f0000000000000000006044820152606490fdfea26469706673582212206134f0cd0c67b15f3cbb0d347ed6d74b5d75ae0d9795a0350b89d3b82737186164736f6c63430008140033","linkReferences":{}},"methodIdentifiers":{"MAX_OBSERVATIONS()":"3ca52526","clearObservations(address)":"76fb7b52","factory()":"c45a0155","getObservation(address,uint256)":"7d92ab53","getObservationsCount(address)":"c14ce674","getTokenSpotPrice(address)":"e1a381ec","getTokenTWAP(address,uint256)":"53d1e07e","hasSufficientPriceHistory(address,uint256)":"85222748","observations(address,uint256)":"02459966","owner()":"8da5cb5b","renounceOwnership()":"715018a6","transferOwnership(address)":"f2fde38b","updatePrice(address)":"96e85ced","weth()":"3fc8cef3"},"id":42}