{"abi":[{"type":"constructor","inputs":[{"name":"name_","type":"string","internalType":"string"},{"name":"symbol_","type":"string","internalType":"string"},{"name":"initialSupply_","type":"uint256","internalType":"uint256"}],"stateMutability":"nonpayable"},{"type":"function","name":"allowance","inputs":[{"name":"owner","type":"address","internalType":"address"},{"name":"spender","type":"address","internalType":"address"}],"outputs":[{"name":"","type":"uint256","internalType":"uint256"}],"stateMutability":"view"},{"type":"function","name":"approve","inputs":[{"name":"spender","type":"address","internalType":"address"},{"name":"value","type":"uint256","internalType":"uint256"}],"outputs":[{"name":"","type":"bool","internalType":"bool"}],"stateMutability":"nonpayable"},{"type":"function","name":"balanceOf","inputs":[{"name":"account","type":"address","internalType":"address"}],"outputs":[{"name":"","type":"uint256","internalType":"uint256"}],"stateMutability":"view"},{"type":"function","name":"decimals","inputs":[],"outputs":[{"name":"","type":"uint8","internalType":"uint8"}],"stateMutability":"view"},{"type":"function","name":"isContract","inputs":[{"name":"_addr","type":"address","internalType":"address"}],"outputs":[{"name":"","type":"bool","internalType":"bool"}],"stateMutability":"view"},{"type":"function","name":"mint","inputs":[{"name":"account","type":"address","internalType":"address"},{"name":"amount","type":"uint256","internalType":"uint256"}],"outputs":[],"stateMutability":"nonpayable"},{"type":"function","name":"name","inputs":[],"outputs":[{"name":"","type":"string","internalType":"string"}],"stateMutability":"view"},{"type":"function","name":"symbol","inputs":[],"outputs":[{"name":"","type":"string","internalType":"string"}],"stateMutability":"view"},{"type":"function","name":"totalSupply","inputs":[],"outputs":[{"name":"","type":"uint256","internalType":"uint256"}],"stateMutability":"view"},{"type":"function","name":"transfer","inputs":[{"name":"to","type":"address","internalType":"address"},{"name":"value","type":"uint256","internalType":"uint256"}],"outputs":[{"name":"","type":"bool","internalType":"bool"}],"stateMutability":"nonpayable"},{"type":"function","name":"transferFrom","inputs":[{"name":"from","type":"address","internalType":"address"},{"name":"to","type":"address","internalType":"address"},{"name":"value","type":"uint256","internalType":"uint256"}],"outputs":[{"name":"","type":"bool","internalType":"bool"}],"stateMutability":"nonpayable"},{"type":"function","name":"transferWithCallback","inputs":[{"name":"recipient","type":"address","internalType":"address"},{"name":"amount","type":"uint256","internalType":"uint256"}],"outputs":[{"name":"","type":"bool","internalType":"bool"}],"stateMutability":"nonpayable"},{"type":"event","name":"Approval","inputs":[{"name":"owner","type":"address","indexed":true,"internalType":"address"},{"name":"spender","type":"address","indexed":true,"internalType":"address"},{"name":"value","type":"uint256","indexed":false,"internalType":"uint256"}],"anonymous":false},{"type":"event","name":"Transfer","inputs":[{"name":"from","type":"address","indexed":true,"internalType":"address"},{"name":"to","type":"address","indexed":true,"internalType":"address"},{"name":"value","type":"uint256","indexed":false,"internalType":"uint256"}],"anonymous":false},{"type":"error","name":"ERC20InsufficientAllowance","inputs":[{"name":"spender","type":"address","internalType":"address"},{"name":"allowance","type":"uint256","internalType":"uint256"},{"name":"needed","type":"uint256","internalType":"uint256"}]},{"type":"error","name":"ERC20InsufficientBalance","inputs":[{"name":"sender","type":"address","internalType":"address"},{"name":"balance","type":"uint256","internalType":"uint256"},{"name":"needed","type":"uint256","internalType":"uint256"}]},{"type":"error","name":"ERC20InvalidApprover","inputs":[{"name":"approver","type":"address","internalType":"address"}]},{"type":"error","name":"ERC20InvalidReceiver","inputs":[{"name":"receiver","type":"address","internalType":"address"}]},{"type":"error","name":"ERC20InvalidSender","inputs":[{"name":"sender","type":"address","internalType":"address"}]},{"type":"error","name":"ERC20InvalidSpender","inputs":[{"name":"spender","type":"address","internalType":"address"}]}],"bytecode":{"object":"0x608060405234801561000f575f80fd5b50604051611a0e380380611a0e8339818101604052810190610031919061048b565b828281600390816100429190610717565b5080600490816100529190610717565b505050610065338261006d60201b60201c565b5050506108fb565b5f73ffffffffffffffffffffffffffffffffffffffff168273ffffffffffffffffffffffffffffffffffffffff16036100dd575f6040517fec442f050000000000000000000000000000000000000000000000000000000081526004016100d49190610825565b60405180910390fd5b6100ee5f83836100f260201b60201c565b5050565b5f73ffffffffffffffffffffffffffffffffffffffff168373ffffffffffffffffffffffffffffffffffffffff1603610142578060025f828254610136919061086b565b92505081905550610210565b5f805f8573ffffffffffffffffffffffffffffffffffffffff1673ffffffffffffffffffffffffffffffffffffffff1681526020019081526020015f20549050818110156101cb578381836040517fe450d38c0000000000000000000000000000000000000000000000000000000081526004016101c2939291906108ad565b60405180910390fd5b8181035f808673ffffffffffffffffffffffffffffffffffffffff1673ffffffffffffffffffffffffffffffffffffffff1681526020019081526020015f2081905550505b5f73ffffffffffffffffffffffffffffffffffffffff168273ffffffffffffffffffffffffffffffffffffffff1603610257578060025f82825403925050819055506102a1565b805f808473ffffffffffffffffffffffffffffffffffffffff1673ffffffffffffffffffffffffffffffffffffffff1681526020019081526020015f205f82825401925050819055505b8173ffffffffffffffffffffffffffffffffffffffff168373ffffffffffffffffffffffffffffffffffffffff167fddf252ad1be2c89b69c2b068fc378daa952ba7f163c4a11628f55a4df523b3ef836040516102fe91906108e2565b60405180910390a3505050565b5f604051905090565b5f80fd5b5f80fd5b5f80fd5b5f80fd5b5f601f19601f8301169050919050565b7f4e487b71000000000000000000000000000000000000000000000000000000005f52604160045260245ffd5b61036a82610324565b810181811067ffffffffffffffff8211171561038957610388610334565b5b80604052505050565b5f61039b61030b565b90506103a78282610361565b919050565b5f67ffffffffffffffff8211156103c6576103c5610334565b5b6103cf82610324565b9050602081019050919050565b8281835e5f83830152505050565b5f6103fc6103f7846103ac565b610392565b90508281526020810184848401111561041857610417610320565b5b6104238482856103dc565b509392505050565b5f82601f83011261043f5761043e61031c565b5b815161044f8482602086016103ea565b91505092915050565b5f819050919050565b61046a81610458565b8114610474575f80fd5b50565b5f8151905061048581610461565b92915050565b5f805f606084860312156104a2576104a1610314565b5b5f84015167ffffffffffffffff8111156104bf576104be610318565b5b6104cb8682870161042b565b935050602084015167ffffffffffffffff8111156104ec576104eb610318565b5b6104f88682870161042b565b925050604061050986828701610477565b9150509250925092565b5f81519050919050565b7f4e487b71000000000000000000000000000000000000000000000000000000005f52602260045260245ffd5b5f600282049050600182168061056157607f821691505b6020821081036105745761057361051d565b5b50919050565b5f819050815f5260205f209050919050565b5f6020601f8301049050919050565b5f82821b905092915050565b5f600883026105d67fffffffffffffffffffffffffffffffffffffffffffffffffffffffffffffffff8261059b565b6105e0868361059b565b95508019841693508086168417925050509392505050565b5f819050919050565b5f61061b61061661061184610458565b6105f8565b610458565b9050919050565b5f819050919050565b61063483610601565b61064861064082610622565b8484546105a7565b825550505050565b5f90565b61065c610650565b61066781848461062b565b505050565b5b8181101561068a5761067f5f82610654565b60018101905061066d565b5050565b601f8211156106cf576106a08161057a565b6106a98461058c565b810160208510156106b8578190505b6106cc6106c48561058c565b83018261066c565b50505b505050565b5f82821c905092915050565b5f6106ef5f19846008026106d4565b1980831691505092915050565b5f61070783836106e0565b9150826002028217905092915050565b61072082610513565b67ffffffffffffffff81111561073957610738610334565b5b610743825461054a565b61074e82828561068e565b5f60209050601f83116001811461077f575f841561076d578287015190505b61077785826106fc565b8655506107de565b601f19841661078d8661057a565b5f5b828110156107b45784890151825560018201915060208501945060208101905061078f565b868310156107d157848901516107cd601f8916826106e0565b8355505b6001600288020188555050505b505050505050565b5f73ffffffffffffffffffffffffffffffffffffffff82169050919050565b5f61080f826107e6565b9050919050565b61081f81610805565b82525050565b5f6020820190506108385f830184610816565b92915050565b7f4e487b71000000000000000000000000000000000000000000000000000000005f52601160045260245ffd5b5f61087582610458565b915061088083610458565b92508282019050808211156108985761089761083e565b5b92915050565b6108a781610458565b82525050565b5f6060820190506108c05f830186610816565b6108cd602083018561089e565b6108da604083018461089e565b949350505050565b5f6020820190506108f55f83018461089e565b92915050565b611106806109085f395ff3fe608060405234801561000f575f80fd5b50600436106100b2575f3560e01c8063313ce5671161006f578063313ce567146101b257806340c10f19146101d057806370a08231146101ec57806395d89b411461021c578063a9059cbb1461023a578063dd62ed3e1461026a576100b2565b806306fdde03146100b6578063095ea7b3146100d4578063162790551461010457806318160ddd146101345780631a825b751461015257806323b872dd14610182575b5f80fd5b6100be61029a565b6040516100cb9190610c9b565b60405180910390f35b6100ee60048036038101906100e99190610d4c565b61032a565b6040516100fb9190610da4565b60405180910390f35b61011e60048036038101906101199190610dbd565b61034c565b60405161012b9190610da4565b60405180910390f35b61013c61037e565b6040516101499190610df7565b60405180910390f35b61016c60048036038101906101679190610d4c565b610387565b6040516101799190610da4565b60405180910390f35b61019c60048036038101906101979190610e10565b61046b565b6040516101a99190610da4565b60405180910390f35b6101ba610499565b6040516101c79190610e7b565b60405180910390f35b6101ea60048036038101906101e59190610d4c565b6104a1565b005b61020660048036038101906102019190610dbd565b6104af565b6040516102139190610df7565b60405180910390f35b6102246104f4565b6040516102319190610c9b565b60405180910390f35b610254600480360381019061024f9190610d4c565b610584565b6040516102619190610da4565b60405180910390f35b610284600480360381019061027f9190610e94565b6105a6565b6040516102919190610df7565b60405180910390f35b6060600380546102a990610eff565b80601f01602080910402602001604051908101604052809291908181526020018280546102d590610eff565b80156103205780601f106102f757610100808354040283529160200191610320565b820191905f5260205f20905b81548152906001019060200180831161030357829003601f168201915b5050505050905090565b5f80610334610628565b905061034181858561062f565b600191505092915050565b5f808273ffffffffffffffffffffffffffffffffffffffff163b11156103755760019050610379565b5f90505b919050565b5f600254905090565b5f6103918361034c565b15610456575f8373ffffffffffffffffffffffffffffffffffffffff166324a756d133856040518363ffffffff1660e01b81526004016103d2929190610f3e565b6020604051808303815f875af11580156103ee573d5f803e3d5ffd5b505050506040513d601f19601f820116820180604052508101906104129190610f8f565b905080610454576040517f08c379a000000000000000000000000000000000000000000000000000000000815260040161044b90611004565b60405180910390fd5b505b610461338484610641565b6001905092915050565b5f80610475610628565b9050610482858285610731565b61048d858585610641565b60019150509392505050565b5f6012905090565b6104ab82826107c4565b5050565b5f805f8373ffffffffffffffffffffffffffffffffffffffff1673ffffffffffffffffffffffffffffffffffffffff1681526020019081526020015f20549050919050565b60606004805461050390610eff565b80601f016020809104026020016040519081016040528092919081815260200182805461052f90610eff565b801561057a5780601f106105515761010080835404028352916020019161057a565b820191905f5260205f20905b81548152906001019060200180831161055d57829003601f168201915b5050505050905090565b5f8061058e610628565b905061059b818585610641565b600191505092915050565b5f60015f8473ffffffffffffffffffffffffffffffffffffffff1673ffffffffffffffffffffffffffffffffffffffff1681526020019081526020015f205f8373ffffffffffffffffffffffffffffffffffffffff1673ffffffffffffffffffffffffffffffffffffffff1681526020019081526020015f2054905092915050565b5f33905090565b61063c8383836001610843565b505050565b5f73ffffffffffffffffffffffffffffffffffffffff168373ffffffffffffffffffffffffffffffffffffffff16036106b1575f6040517f96c6fd1e0000000000000000000000000000000000000000000000000000000081526004016106a89190611022565b60405180910390fd5b5f73ffffffffffffffffffffffffffffffffffffffff168273ffffffffffffffffffffffffffffffffffffffff1603610721575f6040517fec442f050000000000000000000000000000000000000000000000000000000081526004016107189190611022565b60405180910390fd5b61072c838383610a12565b505050565b5f61073c84846105a6565b90507fffffffffffffffffffffffffffffffffffffffffffffffffffffffffffffffff8110156107be57818110156107af578281836040517ffb8f41b20000000000000000000000000000000000000000000000000000000081526004016107a69392919061103b565b60405180910390fd5b6107bd84848484035f610843565b5b50505050565b5f73ffffffffffffffffffffffffffffffffffffffff168273ffffffffffffffffffffffffffffffffffffffff1603610834575f6040517fec442f0500000000000000000000000000000000000000000000000000000000815260040161082b9190611022565b60405180910390fd5b61083f5f8383610a12565b5050565b5f73ffffffffffffffffffffffffffffffffffffffff168473ffffffffffffffffffffffffffffffffffffffff16036108b3575f6040517fe602df050000000000000000000000000000000000000000000000000000000081526004016108aa9190611022565b60405180910390fd5b5f73ffffffffffffffffffffffffffffffffffffffff168373ffffffffffffffffffffffffffffffffffffffff1603610923575f6040517f94280d6200000000000000000000000000000000000000000000000000000000815260040161091a9190611022565b60405180910390fd5b8160015f8673ffffffffffffffffffffffffffffffffffffffff1673ffffffffffffffffffffffffffffffffffffffff1681526020019081526020015f205f8573ffffffffffffffffffffffffffffffffffffffff1673ffffffffffffffffffffffffffffffffffffffff1681526020019081526020015f20819055508015610a0c578273ffffffffffffffffffffffffffffffffffffffff168473ffffffffffffffffffffffffffffffffffffffff167f8c5be1e5ebec7d5bd14f71427d1e84f3dd0314c0f7b2291e5b200ac8c7c3b92584604051610a039190610df7565b60405180910390a35b50505050565b5f73ffffffffffffffffffffffffffffffffffffffff168373ffffffffffffffffffffffffffffffffffffffff1603610a62578060025f828254610a56919061109d565b92505081905550610b30565b5f805f8573ffffffffffffffffffffffffffffffffffffffff1673ffffffffffffffffffffffffffffffffffffffff1681526020019081526020015f2054905081811015610aeb578381836040517fe450d38c000000000000000000000000000000000000000000000000000000008152600401610ae29392919061103b565b60405180910390fd5b8181035f808673ffffffffffffffffffffffffffffffffffffffff1673ffffffffffffffffffffffffffffffffffffffff1681526020019081526020015f2081905550505b5f73ffffffffffffffffffffffffffffffffffffffff168273ffffffffffffffffffffffffffffffffffffffff1603610b77578060025f8282540392505081905550610bc1565b805f808473ffffffffffffffffffffffffffffffffffffffff1673ffffffffffffffffffffffffffffffffffffffff1681526020019081526020015f205f82825401925050819055505b8173ffffffffffffffffffffffffffffffffffffffff168373ffffffffffffffffffffffffffffffffffffffff167fddf252ad1be2c89b69c2b068fc378daa952ba7f163c4a11628f55a4df523b3ef83604051610c1e9190610df7565b60405180910390a3505050565b5f81519050919050565b5f82825260208201905092915050565b8281835e5f83830152505050565b5f601f19601f8301169050919050565b5f610c6d82610c2b565b610c778185610c35565b9350610c87818560208601610c45565b610c9081610c53565b840191505092915050565b5f6020820190508181035f830152610cb38184610c63565b905092915050565b5f80fd5b5f73ffffffffffffffffffffffffffffffffffffffff82169050919050565b5f610ce882610cbf565b9050919050565b610cf881610cde565b8114610d02575f80fd5b50565b5f81359050610d1381610cef565b92915050565b5f819050919050565b610d2b81610d19565b8114610d35575f80fd5b50565b5f81359050610d4681610d22565b92915050565b5f8060408385031215610d6257610d61610cbb565b5b5f610d6f85828601610d05565b9250506020610d8085828601610d38565b9150509250929050565b5f8115159050919050565b610d9e81610d8a565b82525050565b5f602082019050610db75f830184610d95565b92915050565b5f60208284031215610dd257610dd1610cbb565b5b5f610ddf84828501610d05565b91505092915050565b610df181610d19565b82525050565b5f602082019050610e0a5f830184610de8565b92915050565b5f805f60608486031215610e2757610e26610cbb565b5b5f610e3486828701610d05565b9350506020610e4586828701610d05565b9250506040610e5686828701610d38565b9150509250925092565b5f60ff82169050919050565b610e7581610e60565b82525050565b5f602082019050610e8e5f830184610e6c565b92915050565b5f8060408385031215610eaa57610ea9610cbb565b5b5f610eb785828601610d05565b9250506020610ec885828601610d05565b9150509250929050565b7f4e487b71000000000000000000000000000000000000000000000000000000005f52602260045260245ffd5b5f6002820490506001821680610f1657607f821691505b602082108103610f2957610f28610ed2565b5b50919050565b610f3881610cde565b82525050565b5f604082019050610f515f830185610f2f565b610f5e6020830184610de8565b9392505050565b610f6e81610d8a565b8114610f78575f80fd5b50565b5f81519050610f8981610f65565b92915050565b5f60208284031215610fa457610fa3610cbb565b5b5f610fb184828501610f7b565b91505092915050565b7f4e6f20746f6b656e7352656365697665640000000000000000000000000000005f82015250565b5f610fee601183610c35565b9150610ff982610fba565b602082019050919050565b5f6020820190508181035f83015261101b81610fe2565b9050919050565b5f6020820190506110355f830184610f2f565b92915050565b5f60608201905061104e5f830186610f2f565b61105b6020830185610de8565b6110686040830184610de8565b949350505050565b7f4e487b71000000000000000000000000000000000000000000000000000000005f52601160045260245ffd5b5f6110a782610d19565b91506110b283610d19565b92508282019050808211156110ca576110c9611070565b5b9291505056fea2646970667358221220ad47d71eaa509fd46d532c08109486ad2762620e4f6fa33e588fd6689f2539e664736f6c634300081a0033","linkReferences":{}},"methodIdentifiers":{"allowance(address,address)":"dd62ed3e","approve(address,uint256)":"095ea7b3","balanceOf(address)":"70a08231","decimals()":"313ce567","isContract(address)":"16279055","mint(address,uint256)":"40c10f19","name()":"06fdde03","symbol()":"95d89b41","totalSupply()":"18160ddd","transfer(address,uint256)":"a9059cbb","transferFrom(address,address,uint256)":"23b872dd","transferWithCallback(address,uint256)":"1a825b75"},"id":5}