{"abi":[{"type":"constructor","inputs":[{"name":"_tokenAddress","type":"address","internalType":"address"}],"stateMutability":"nonpayable"},{"type":"function","name":"deposit","inputs":[{"name":"_depositAmount","type":"uint256","internalType":"uint256"}],"outputs":[],"stateMutability":"nonpayable"},{"type":"function","name":"tokenAddress","inputs":[],"outputs":[{"name":"","type":"address","internalType":"address"}],"stateMutability":"view"},{"type":"function","name":"tokenBalances","inputs":[{"name":"","type":"address","internalType":"address"}],"outputs":[{"name":"","type":"uint256","internalType":"uint256"}],"stateMutability":"view"},{"type":"function","name":"tokensReceived","inputs":[{"name":"_sender","type":"address","internalType":"address"},{"name":"_amount","type":"uint256","internalType":"uint256"}],"outputs":[{"name":"","type":"bool","internalType":"bool"}],"stateMutability":"nonpayable"},{"type":"function","name":"withdraw","inputs":[{"name":"_withdrawAmount","type":"uint256","internalType":"uint256"}],"outputs":[],"stateMutability":"nonpayable"},{"type":"event","name":"depositLog","inputs":[{"name":"_addr","type":"address","indexed":false,"internalType":"address"},{"name":"balance","type":"uint256","indexed":false,"internalType":"uint256"}],"anonymous":false},{"type":"event","name":"withdrawLog","inputs":[{"name":"_addr","type":"address","indexed":false,"internalType":"address"},{"name":"balance","type":"uint256","indexed":false,"internalType":"uint256"}],"anonymous":false}],"bytecode":{"object":"0x608060405234801561000f575f80fd5b50604051610c92380380610c92833981810160405281019061003191906100d6565b80805f806101000a81548173ffffffffffffffffffffffffffffffffffffffff021916908373ffffffffffffffffffffffffffffffffffffffff1602179055505050610101565b5f80fd5b5f73ffffffffffffffffffffffffffffffffffffffff82169050919050565b5f6100a58261007c565b9050919050565b6100b58161009b565b81146100bf575f80fd5b50565b5f815190506100d0816100ac565b92915050565b5f602082840312156100eb576100ea610078565b5b5f6100f8848285016100c2565b91505092915050565b610b848061010e5f395ff3fe608060405234801561000f575f80fd5b5060043610610055575f3560e01c806324a756d1146100595780632e1a7d4d14610089578063523fba7f146100a55780639d76ea58146100d5578063b6b55f25146100f3575b5f80fd5b610073600480360381019061006e91906106db565b61010f565b6040516100809190610733565b60405180910390f35b6100a3600480360381019061009e919061074c565b61023c565b005b6100bf60048036038101906100ba9190610777565b610466565b6040516100cc91906107b1565b60405180910390f35b6100dd61047b565b6040516100ea91906107d9565b60405180910390f35b61010d6004803603810190610108919061074c565b61049e565b005b5f808211610152576040517f08c379a00000000000000000000000000000000000000000000000000000000081526004016101499061084c565b60405180910390fd5b5f8054906101000a900473ffffffffffffffffffffffffffffffffffffffff1673ffffffffffffffffffffffffffffffffffffffff163373ffffffffffffffffffffffffffffffffffffffff16146101df576040517f08c379a00000000000000000000000000000000000000000000000000000000081526004016101d6906108b4565b60405180910390fd5b8160015f8573ffffffffffffffffffffffffffffffffffffffff1673ffffffffffffffffffffffffffffffffffffffff1681526020019081526020015f205f82825461022b91906108ff565b925050819055506001905092915050565b5f811161027e576040517f08c379a00000000000000000000000000000000000000000000000000000000081526004016102759061084c565b60405180910390fd5b8060015f3373ffffffffffffffffffffffffffffffffffffffff1673ffffffffffffffffffffffffffffffffffffffff1681526020019081526020015f205410156102fe576040517f08c379a00000000000000000000000000000000000000000000000000000000081526004016102f59061097c565b60405180910390fd5b5f8054906101000a900473ffffffffffffffffffffffffffffffffffffffff1673ffffffffffffffffffffffffffffffffffffffff1663a9059cbb33836040518363ffffffff1660e01b815260040161035892919061099a565b6020604051808303815f875af1158015610374573d5f803e3d5ffd5b505050506040513d601f19601f8201168201806040525081019061039891906109eb565b6103d7576040517f08c379a00000000000000000000000000000000000000000000000000000000081526004016103ce90610a60565b60405180910390fd5b8060015f3373ffffffffffffffffffffffffffffffffffffffff1673ffffffffffffffffffffffffffffffffffffffff1681526020019081526020015f205f8282546104239190610a7e565b925050819055507ff74fad994845ef73476114306db4fb3ddeafc0141ecbc906ba670c6d1f037dc6338260405161045b92919061099a565b60405180910390a150565b6001602052805f5260405f205f915090505481565b5f8054906101000a900473ffffffffffffffffffffffffffffffffffffffff1681565b5f81116104e0576040517f08c379a00000000000000000000000000000000000000000000000000000000081526004016104d79061084c565b60405180910390fd5b5f8054906101000a900473ffffffffffffffffffffffffffffffffffffffff1673ffffffffffffffffffffffffffffffffffffffff166323b872dd3330846040518463ffffffff1660e01b815260040161053c93929190610ab1565b6020604051808303815f875af1158015610558573d5f803e3d5ffd5b505050506040513d601f19601f8201168201806040525081019061057c91906109eb565b6105bb576040517f08c379a00000000000000000000000000000000000000000000000000000000081526004016105b290610b30565b60405180910390fd5b8060015f3373ffffffffffffffffffffffffffffffffffffffff1673ffffffffffffffffffffffffffffffffffffffff1681526020019081526020015f205f82825461060791906108ff565b925050819055507fe0fbaffdb15cdfab5c685e516e471beb5234983e0f91c3330c780901fca28c82338260405161063f92919061099a565b60405180910390a150565b5f80fd5b5f73ffffffffffffffffffffffffffffffffffffffff82169050919050565b5f6106778261064e565b9050919050565b6106878161066d565b8114610691575f80fd5b50565b5f813590506106a28161067e565b92915050565b5f819050919050565b6106ba816106a8565b81146106c4575f80fd5b50565b5f813590506106d5816106b1565b92915050565b5f80604083850312156106f1576106f061064a565b5b5f6106fe85828601610694565b925050602061070f858286016106c7565b9150509250929050565b5f8115159050919050565b61072d81610719565b82525050565b5f6020820190506107465f830184610724565b92915050565b5f602082840312156107615761076061064a565b5b5f61076e848285016106c7565b91505092915050565b5f6020828403121561078c5761078b61064a565b5b5f61079984828501610694565b91505092915050565b6107ab816106a8565b82525050565b5f6020820190506107c45f8301846107a2565b92915050565b6107d38161066d565b82525050565b5f6020820190506107ec5f8301846107ca565b92915050565b5f82825260208201905092915050565b7f6d757374203e207a65726f20616d6f756e7400000000000000000000000000005f82015250565b5f6108366012836107f2565b915061084182610802565b602082019050919050565b5f6020820190508181035f8301526108638161082a565b9050919050565b7f63616e27742072656365697665210000000000000000000000000000000000005f82015250565b5f61089e600e836107f2565b91506108a98261086a565b602082019050919050565b5f6020820190508181035f8301526108cb81610892565b9050919050565b7f4e487b71000000000000000000000000000000000000000000000000000000005f52601160045260245ffd5b5f610909826106a8565b9150610914836106a8565b925082820190508082111561092c5761092b6108d2565b5b92915050565b7f6e6f7420656e6f75676820746f6b656e2062616c616e636521000000000000005f82015250565b5f6109666019836107f2565b915061097182610932565b602082019050919050565b5f6020820190508181035f8301526109938161095a565b9050919050565b5f6040820190506109ad5f8301856107ca565b6109ba60208301846107a2565b9392505050565b6109ca81610719565b81146109d4575f80fd5b50565b5f815190506109e5816109c1565b92915050565b5f60208284031215610a00576109ff61064a565b5b5f610a0d848285016109d7565b91505092915050565b7f7769746864726177206661696c656421000000000000000000000000000000005f82015250565b5f610a4a6010836107f2565b9150610a5582610a16565b602082019050919050565b5f6020820190508181035f830152610a7781610a3e565b9050919050565b5f610a88826106a8565b9150610a93836106a8565b9250828203905081811115610aab57610aaa6108d2565b5b92915050565b5f606082019050610ac45f8301866107ca565b610ad160208301856107ca565b610ade60408301846107a2565b949350505050565b7f7472616e73666572206661696c656421000000000000000000000000000000005f82015250565b5f610b1a6010836107f2565b9150610b2582610ae6565b602082019050919050565b5f6020820190508181035f830152610b4781610b0e565b905091905056fea264697066735822122078371dd39bcbf08f91b30fb10ecdf403fa9632b0f3c33ebda75927c3a9b44b1f64736f6c634300081a0033","linkReferences":{}},"methodIdentifiers":{"deposit(uint256)":"b6b55f25","tokenAddress()":"9d76ea58","tokenBalances(address)":"523fba7f","tokensReceived(address,uint256)":"24a756d1","withdraw(uint256)":"2e1a7d4d"},"id":7}