{"abi":[{"type":"constructor","inputs":[],"stateMutability":"nonpayable"},{"type":"receive","stateMutability":"payable"},{"type":"function","name":"FACTORY_FEE_PERCENTAGE","inputs":[],"outputs":[{"name":"","type":"uint256","internalType":"uint256"}],"stateMutability":"view"},{"type":"function","name":"FEE_PERCENTAGE","inputs":[],"outputs":[{"name":"","type":"uint256","internalType":"uint256"}],"stateMutability":"view"},{"type":"function","name":"buyAndAddLiquidity","inputs":[{"name":"symbol","type":"string","internalType":"string"},{"name":"totalEthAmount","type":"uint256","internalType":"uint256"}],"outputs":[],"stateMutability":"nonpayable"},{"type":"function","name":"buyMeme","inputs":[{"name":"symbol","type":"string","internalType":"string"},{"name":"amountOutMin","type":"uint256","internalType":"uint256"},{"name":"deadline","type":"uint256","internalType":"uint256"}],"outputs":[],"stateMutability":"payable"},{"type":"function","name":"deployInscription","inputs":[{"name":"symbol","type":"string","internalType":"string"},{"name":"totalSupply","type":"uint256","internalType":"uint256"},{"name":"perMint","type":"uint256","internalType":"uint256"},{"name":"price","type":"uint256","internalType":"uint256"}],"outputs":[],"stateMutability":"payable"},{"type":"function","name":"fee","inputs":[],"outputs":[{"name":"","type":"uint256","internalType":"uint256"}],"stateMutability":"view"},{"type":"function","name":"inscriptions","inputs":[{"name":"","type":"string","internalType":"string"}],"outputs":[{"name":"","type":"address","internalType":"address"}],"stateMutability":"view"},{"type":"function","name":"isInscriptionToken","inputs":[{"name":"","type":"address","internalType":"address"}],"outputs":[{"name":"","type":"bool","internalType":"bool"}],"stateMutability":"view"},{"type":"function","name":"liquidityAdded","inputs":[{"name":"","type":"address","internalType":"address"}],"outputs":[{"name":"","type":"bool","internalType":"bool"}],"stateMutability":"view"},{"type":"function","name":"mintInscription","inputs":[{"name":"symbol","type":"string","internalType":"string"}],"outputs":[],"stateMutability":"payable"},{"type":"function","name":"owner","inputs":[],"outputs":[{"name":"","type":"address","internalType":"address"}],"stateMutability":"view"},{"type":"function","name":"renounceOwnership","inputs":[],"outputs":[],"stateMutability":"nonpayable"},{"type":"function","name":"setFee","inputs":[{"name":"_fee","type":"uint256","internalType":"uint256"}],"outputs":[],"stateMutability":"nonpayable"},{"type":"function","name":"setUniswapRouter","inputs":[{"name":"_router","type":"address","internalType":"address"}],"outputs":[],"stateMutability":"nonpayable"},{"type":"function","name":"setUniswapRouterDirect","inputs":[{"name":"_router","type":"address","internalType":"address"}],"outputs":[],"stateMutability":"nonpayable"},{"type":"function","name":"setWeth","inputs":[{"name":"_weth","type":"address","internalType":"address"}],"outputs":[],"stateMutability":"nonpayable"},{"type":"function","name":"tokenImplementation","inputs":[],"outputs":[{"name":"","type":"address","internalType":"address"}],"stateMutability":"view"},{"type":"function","name":"transferOwnership","inputs":[{"name":"newOwner","type":"address","internalType":"address"}],"outputs":[],"stateMutability":"nonpayable"},{"type":"function","name":"uniswapRouter","inputs":[],"outputs":[{"name":"","type":"address","internalType":"address"}],"stateMutability":"view"},{"type":"function","name":"weth","inputs":[],"outputs":[{"name":"","type":"address","internalType":"address"}],"stateMutability":"view"},{"type":"function","name":"withdraw","inputs":[],"outputs":[],"stateMutability":"nonpayable"},{"type":"function","name":"withdrawLPTokens","inputs":[{"name":"token","type":"address","internalType":"address"}],"outputs":[],"stateMutability":"nonpayable"},{"type":"event","name":"InscriptionDeployed","inputs":[{"name":"symbol","type":"string","indexed":true,"internalType":"string"},{"name":"token","type":"address","indexed":true,"internalType":"address"}],"anonymous":false},{"type":"event","name":"InscriptionMinted","inputs":[{"name":"symbol","type":"string","indexed":true,"internalType":"string"},{"name":"to","type":"address","indexed":true,"internalType":"address"},{"name":"amount","type":"uint256","indexed":false,"internalType":"uint256"}],"anonymous":false},{"type":"event","name":"LiquidityAdded","inputs":[{"name":"token","type":"address","indexed":true,"internalType":"address"},{"name":"tokenAmount","type":"uint256","indexed":false,"internalType":"uint256"},{"name":"ethAmount","type":"uint256","indexed":false,"internalType":"uint256"},{"name":"liquidity","type":"uint256","indexed":false,"internalType":"uint256"}],"anonymous":false},{"type":"event","name":"OwnershipTransferred","inputs":[{"name":"previousOwner","type":"address","indexed":true,"internalType":"address"},{"name":"newOwner","type":"address","indexed":true,"internalType":"address"}],"anonymous":false},{"type":"error","name":"FailedDeployment","inputs":[]},{"type":"error","name":"InsufficientBalance","inputs":[{"name":"balance","type":"uint256","internalType":"uint256"},{"name":"needed","type":"uint256","internalType":"uint256"}]},{"type":"error","name":"OwnableInvalidOwner","inputs":[{"name":"owner","type":"address","internalType":"address"}]},{"type":"error","name":"OwnableUnauthorizedAccount","inputs":[{"name":"account","type":"address","internalType":"address"}]}],"bytecode":{"object":"0x60a080604052346100de5733156100c9575f8054336001600160a01b03198216811783556040516001600160a01b03939290919084167f8be0079c531659141344cd1fd0a4f28419497f9722a3daafe3b4186f6b6457e08480a361142a818101906001600160401b038211838310176100b5579082916120248339039082f09081156100a9575016608052604051611f4190816100e38239608051818181610f0701526114d20152f35b604051903d90823e3d90fd5b634e487b7160e01b84526041600452602484fd5b631e4fbdf760e01b81525f6004820152602490fd5b5f80fdfe6080604081815260049081361015610021575b505050361561001f575f80fd5b005b5f92833560e01c9081620b46f8146119315750806306b83ca9146118f25780630c677a6e146115015780632f3a3d5d146114bd5780633ac88c4f1461127e5780633ccfd60b146111c45780633ef8af4314610e585780633fc8cef314610e2f5780635dd8ba8814610df057806369fe0e2d14610dce578063715018a614610d75578063735de9f714610d4d5780637fecabce146106ab5780638da5cb5b14610683578063a1188d0014610637578063b8d1452f146105af578063bea9849e146104f1578063c59bddc814610257578063c6f487fd146101eb578063d2538628146101cf578063ddca3f43146101ac5763f2fde38b0361001257346101a85760203660031901126101a8576001600160a01b038235818116939192908490036101a45761014b611a35565b831561018e5750505f54826001600160601b0360a01b8216175f55167f8be0079c531659141344cd1fd0a4f28419497f9722a3daafe3b4186f6b6457e05f80a380f35b51631e4fbdf760e01b8152908101849052602490fd5b8480fd5b8280fd5b8382346101cb57816003193601126101cb576020906003549051908152f35b5080fd5b8382346101cb57816003193601126101cb576020905160058152f35b5082346102545760203660031901126102545782359067ffffffffffffffff82116102545750602092610220913691016119ce565b8261023383519283815193849201611a14565b6002908201908152819003830190205490516001600160a01b039091168152f35b80fd5b506020806003193601126104ed57823567ffffffffffffffff81116101a45761028390369085016119ce565b82516102cc8383516102bc8286019161029d818785611a14565b850160028152858460018060a01b039788930301902054161515611b70565b8651809381928751928391611a14565b8101600281520301902054168351631a05f1db60e21b815283818781855afa9081156104e35787916104b6575b50600a81028115828204600a148117156104a357600583029083820460051417156104a357906103326064806103379404920484611bf7565b611bf7565b90813410610469578790833b156101cb578160249188519283809263755edd1760e01b8252338d830152885af1801561045f57908694939291610442575b50506103819034611ae4565b8781610423575b5050845163663fc07b60e01b815295869182905afa9384156104195785946103e2575b50906103d77f2c00a34097ec0e58039e2abe0b22bad4d9936cde57e2c49c8a1a02980306ce8a92611ac4565b92519384523393a380f35b918091945082813d8311610412575b6103fb8183611990565b8101031261040e579051926103d76103ab565b5f80fd5b503d6103f1565b83513d87823e3d90fd5b80808061043b94335af1610435611b05565b50611b34565b5f87610388565b61044e9192945061194c565b61045b578391875f610375565b8680fd5b87513d84823e3d90fd5b855162461bcd60e51b81528088018690526014602482015273125b9cdd59999a58da595b9d081c185e5b595b9d60621b6044820152606490fd5b634e487b7160e01b895260118852602489fd5b90508381813d83116104dc575b6104cd8183611990565b8101031261040e57515f6102f9565b503d6104c3565b85513d89823e3d90fd5b8380fd5b50346101a85760203660031901126101a8576001600160a01b03908235828116908190036101a457610521611a35565b61052c811515611a60565b83546001600160a01b03198082168317865583516315ab88c960e31b81529095909260209284929183918a16175afa9182156105a657508491610578575b501690600554161760055580f35b610599915060203d811161059f575b6105918183611990565b810190611aa5565b5f61056a565b503d610587565b513d86823e3d90fd5b5090346101a85760203660031901126101a85780356001600160a01b03811692908390036104ed576105df611a35565b82156105fd5750506001600160601b0360a01b600554161760055580f35b906020606492519162461bcd60e51b83528201526014602482015273496e76616c69642057455448206164647265737360601b6044820152fd5b5050346101cb5760203660031901126101cb5780356001600160a01b038116908190036101a857610666611a35565b610671811515611a60565b81546001600160a01b03191617905580f35b8382346101cb57816003193601126101cb57905490516001600160a01b039091168152602090f35b5090346101a857816003193601126101a857803567ffffffffffffffff81116104ed576106db90369083016119ce565b60249283356106e8611a35565b81519483519260209361072285870191610703818b85611a14565b890160028152898760018060a01b039b8c930301902054161515611b70565b8787541695610732871515611c04565b478560011b9086820460021487151715610d3b5710610cd3578589610765828d958c958851938492839251928391611a14565b8101600281520301902054169784519283809263c45a015560e01b82525afa908115610cc9578291610cac575b50886005541690868860448b8d8851958694859363e6a4390560e01b8552840152878b840152165afa908115610ca257908a918491610c85575b50169889158015610c13575b8451631a05f1db60e21b8152999a98999890888a8d818e5afa998a15610c09579085949392918d969b610bd3575b50865163663fc07b60e01b81529c8a908e90818f5afa9c8d15610bc957859d610b96575b501561094357505050506108428460011c8095611ae4565b948415158061093a575b156108fa575090889291873b156104ed578390825193849163755edd1760e01b8352309083015281878b5af19081156108f157506108d5575b5050936108a86108c4926108b3856108a8856108ad836108a8836108ca9e611bc6565b611bd9565b94611bc6565b808210156108cd5750935b84611bc6565b91611d5e565b80f35b9050936108be565b6108e19096929661194c565b6108ed5793855f610885565b8580fd5b513d84823e3d90fd5b83601891606494519362461bcd60e51b85528401528201527f496e76616c69642045544820646973747269627574696f6e00000000000000006044820152fd5b5085151561084c565b85979a9b95999498995191630240bc6b60e21b83526060838b81855afa918215610b8c578b8b9187958895610b2f575b508b51630dfe168160e01b815292839182905afa908115610b25578691610b08575b5016928c8403610b015782935b6001600160701b03948516955003610afa57505b169080151580610af1575b15610abc578a9695949392916108a86109da928b611bc6565b84516370a0823160e01b81523087820152909790818186818e5afa918215610ab2578892610a81575b5050878110610a1d575b505050505050506108ca92611d5e565b610a349291610a2f6108a8928a611ae4565b611bc6565b92873b156101a457849183518095819363755edd1760e01b835230908301528a5af19081156108f15750610a6d575b8080808080610a0d565b610a769061194c565b6104ed57835f610a63565b8198508092503d8311610aab575b610a998183611990565b8101031261040e578995515f80610a03565b503d610a8f565b86513d8a823e3d90fd5b855162461bcd60e51b81528088018990526010818701526f496e76616c696420726573657276657360801b6044820152606490fd5b508115156109c1565b90506109b6565b81936109a2565b610b1f91508c8d3d1061059f576105918183611990565b5f610995565b8a513d88823e3d90fd5b9550935050506060833d8211610b84575b81610b4d60609383611990565b810103126101a457610b5e83611c49565b89610b6a8d8601611c49565b94015163ffffffff8116036108ed578b8b9194935f610973565b3d9150610b40565b89513d87823e3d90fd5b8a80929e508196503d8311610bc2575b610bb08183611990565b8101031261040e578c93519b5f61082a565b503d610ba6565b87513d87823e3d90fd5b9450995093508783813d8311610c02575b610bee8183611990565b8101031261040e578a938c9351995f610806565b503d610be4565b86513d87823e3d90fd5b5083516318160ddd60e01b815299878b8b81845afa8015610c7b578a9b859b9a9b91610c47575b5015909a509897986107d8565b94505097508683813d8311610c74575b610c618183611990565b8101031261040e5789978b93515f610c3a565b503d610c57565b85513d86823e3d90fd5b610c9c9150883d8a1161059f576105918183611990565b5f6107cc565b84513d85823e3d90fd5b610cc39150863d881161059f576105918183611990565b5f610792565b83513d84823e3d90fd5b825162461bcd60e51b81528089018790526038818601527f496e73756666696369656e74204554482062616c616e63652c206e656564206160448201527f74206c656173742074776963652074686520616d6f756e7400000000000000006064820152608490fd5b634e487b7160e01b8c5260118a52858cfd5b5090346101a857826003193601126101a8575490516001600160a01b03909116815260209150f35b8334610254578060031936011261025457610d8e611a35565b5f80546001600160a01b0319811682556001600160a01b03167f8be0079c531659141344cd1fd0a4f28419497f9722a3daafe3b4186f6b6457e08280a380f35b5050346101cb5760203660031901126101cb57610de9611a35565b3560035580f35b5090346101a85760203660031901126101a857356001600160a01b038116908190036101a857818360ff92602095526006855220541690519015158152f35b8382346101cb57816003193601126101cb5760055490516001600160a01b039091168152602090f35b509060803660031901126101a857803567ffffffffffffffff81116104ed57610e8490369083016119ce565b906024908135936044803590606496873594600354341061119157845196885196602098898b0198610eb781838c611a14565b60029082019081528190038a019020546001600160a01b03908116611159578415611119578615158061110f575b156110d657811561109d57603760098e6e5af43d82803e903d91602b57fd5bf37f0000000000000000000000000000000000000000000000000000000000000000763d602d80600a3d3981f3363d3d373d3d3d363d7300000062ffffff8260881c1617835260781b178d52f0169a8b1561108d57908c95949392918c3b1561045b578b9760a09660c4968c95610f9a8d519c8d9b8c9a63631831fb60e01b8c528b01525180988160a48c01528b8b0190611a14565b870152850152830152336084830152601f01601f19168101030181838a5af1801561108357611064575b5091610ff391611014949386885260018352808820600160ff1982541617905551809381928651928391611a14565b81016002815203019020836001600160601b0360a01b825416179055611ac4565b7fa334ec6a105bc6c7e5fc155a2e1a565c2194e0e5ba193b732e3bac18e7ce14468380a361104460035434611ae4565b818161104d5780f35b80808061105f94335af1610435611b05565b5f8180f35b9161101494939196611078610ff39461194c565b969193945091610fc4565b82513d89823e3d90fd5b875163b06ebf3d60e01b81528490fd5b875162461bcd60e51b81528085018b9052601681850152755072696365206d75737420626520706f73697469766560501b818801528c90fd5b875162461bcd60e51b81528085018b905260168185015275125b9d985b1a59081c195c935a5b9d08185b5bdd5b9d60521b818801528c90fd5b5084871115610ee5565b875162461bcd60e51b81528085018b9052601d818501527f546f74616c20737570706c79206d75737420626520706f736974697665000000818801528c90fd5b875162461bcd60e51b81528085018b90526015818501527453796d626f6c20616c72656164792065786973747360581b818801528c90fd5b88906f496e73756666696369656e742066656560801b8460108a60208a519562461bcd60e51b8752860152840152820152fd5b50346101a857826003193601126101a8576111dd611a35565b47801561124257835484918291829182916001600160a01b03165af1611201611b05565b501561120b578280f35b906020606492519162461bcd60e51b8352820152601160248201527015da5d1a191c985dd85b0819985a5b1959607a1b6044820152fd5b815162461bcd60e51b815260208185015260166024820152754e6f2062616c616e636520746f20776974686472617760501b6044820152606490fd5b508290346101cb57602090816003193601126101a8576001600160a01b03938035858116908190036101a45781906112b4611a35565b848783541685519384809263c45a015560e01b82525afa91821561143e57908591879361149e575b506044886005541691898751958694859363e6a4390560e01b8552898501526024840152165afa908115610419579086918691611481575b50169081156114485782516370a0823160e01b81523082820152958487602481865afa96871561143e57869761140f575b5086156113cc578554845163a9059cbb60e01b815291166001600160a01b0316918101918252602082018790529291849184919082908890829060400103925af19081156113c35750611396578280f35b816113b592903d106113bc575b6113ad8183611990565b810190611d46565b5081808280f35b503d6113a3565b513d85823e3d90fd5b835162461bcd60e51b8152808301869052601860248201527f4e6f204c5020746f6b656e7320746f20776974686472617700000000000000006044820152606490fd5b9096508481813d8311611437575b6114278183611990565b810103126108ed57519587611345565b503d61141d565b84513d88823e3d90fd5b825162461bcd60e51b8152908101849052601360248201527214185a5c88191bd95cc81b9bdd08195e1a5cdd606a1b6044820152606490fd5b6114989150853d871161059f576105918183611990565b87611314565b6114b6919350823d841161059f576105918183611990565b91886112dc565b8382346101cb57816003193601126101cb57517f00000000000000000000000000000000000000000000000000000000000000006001600160a01b03168152602090f35b5060603660031901126101a85781359167ffffffffffffffff83116104ed5761153061158f93369083016119ce565b9082519082519160209586809461156f8288019161154f818785611a14565b8501600281528560018060a01b0398899788930301902054161515611b70565b838554169661157f881515611c04565b8851938492839251928391611a14565b8101600281520301902054168087526006865260ff8588205416156118b6578451926115ba84611974565b6002845285368886013760055416806115d285611c5d565b52816115dd85611c7e565b528551631a05f1db60e21b815287818581865afa9081156118ac57899161187b575b50865163d06ca61f60e01b815234858201528981806116296024998c8b8401526044830190611d0a565b03818a5afa9081156118715790611647918b91611857575b50611c7e565b51875163663fc07b60e01b81529189838781885afa92831561184d578b9361181a575b50600a810290801591818104600a1483171561180857606461168d910482611bf7565b916005820291820460051417156117f6579060646116ac920490611bf7565b90670de0b6b3a764000090818102908082048314901517156117f6576116d3903490611bd9565b928181029181830414901517156117e457906116ee91611bd9565b1015611792579160809391889593878051996117098b611974565b60028b5236908b013761171b89611c5d565b5261172588611c7e565b5261174f865197889586948594637ff36ab560e01b86528135908601528401526084830190611d0a565b3360448301526044356064830152039134905af19081156108f15750611773575080f35b61178e903d8084833e6117868183611990565b810190611c8e565b5080f35b855162461bcd60e51b81528084018890526027818601527f4d696e7420707269636520697320626574746572207468616e20556e697377616044820152667020707269636560c81b6064820152608490fd5b634e487b7160e01b8b5260118652868bfd5b634e487b7160e01b8c5260118752878cfd5b634e487b7160e01b8d5260118852888dfd5b9092508981813d8311611846575b6118328183611990565b810103126118425751915f61166a565b8a80fd5b503d611828565b89513d8d823e3d90fd5b61186b91503d808d833e6117868183611990565b5f611641565b88513d8c823e3d90fd5b90508781813d83116118a5575b6118928183611990565b810103126118a157515f6115ff565b8880fd5b503d611888565b87513d8b823e3d90fd5b845162461bcd60e51b815280830187905260166024820152754e6f206c697175696469747920617661696c61626c6560501b6044820152606490fd5b5090346101a85760203660031901126101a857356001600160a01b038116908190036101a857818360ff92602095526001855220541690519015158152f35b8490346101cb57816003193601126101cb5780600a60209252f35b67ffffffffffffffff811161196057604052565b634e487b7160e01b5f52604160045260245ffd5b6060810190811067ffffffffffffffff82111761196057604052565b90601f8019910116810190811067ffffffffffffffff82111761196057604052565b67ffffffffffffffff811161196057601f01601f191660200190565b81601f8201121561040e578035906119e5826119b2565b926119f36040519485611990565b8284526020838301011161040e57815f926020809301838601378301015290565b5f5b838110611a255750505f910152565b8181015183820152602001611a16565b5f546001600160a01b03163303611a4857565b60405163118cdaa760e01b8152336004820152602490fd5b15611a6757565b60405162461bcd60e51b8152602060048201526016602482015275496e76616c696420726f75746572206164647265737360501b6044820152606490fd5b9081602091031261040e57516001600160a01b038116810361040e5790565b611adc90602060405192828480945193849201611a14565b810103902090565b91908203918211611af157565b634e487b7160e01b5f52601160045260245ffd5b3d15611b2f573d90611b16826119b2565b91611b246040519384611990565b82523d5f602084013e565b606090565b15611b3b57565b60405162461bcd60e51b815260206004820152600d60248201526c1499599d5b990819985a5b1959609a1b6044820152606490fd5b15611b7757565b60405162461bcd60e51b815260206004820152602160248201527f546f6b656e206e6f742063726561746564206279207468697320666163746f726044820152607960f81b6064820152608490fd5b81810292918115918404141715611af157565b8115611be3570490565b634e487b7160e01b5f52601260045260245ffd5b91908201809211611af157565b15611c0b57565b60405162461bcd60e51b8152602060048201526016602482015275155b9a5cddd85c081c9bdd5d195c881b9bdd081cd95d60521b6044820152606490fd5b51906001600160701b038216820361040e57565b805115611c6a5760200190565b634e487b7160e01b5f52603260045260245ffd5b805160011015611c6a5760400190565b90602090818382031261040e57825167ffffffffffffffff9384821161040e570181601f8201121561040e578051938411611960578360051b9060405194611cd885840187611990565b8552838086019282010192831161040e578301905b828210611cfb575050505090565b81518152908301908301611ced565b9081518082526020808093019301915f5b828110611d29575050505090565b83516001600160a01b031685529381019392810192600101611d1b565b9081602091031261040e5751801515810361040e5790565b60045491926001600160a01b03928316918390611d7c841515611c04565b6040805163095ea7b360e01b81526001600160a01b03959095166004860152602485018790529116945f946020949293919285816044818a8c5af180156104e357611eee575b506004541691610384420191824211611eda576060929160c4918651958694859363f305d71960e01b85528c600486015260248501528a60448501528a606485015230608485015260a48401525af1928315611ed0578480928195611e6b575b5086815260068252839020805460ff1916600117905582519485528401528201527f64b83944e79c3ce8d4c297411de637c3e102d064677aac0c163976ebdcd6f50e90606090a2565b9550935090506060843d8211611ec8575b81611e8960609383611990565b810103126101a85783518482015194830151909490939091907f64b83944e79c3ce8d4c297411de637c3e102d064677aac0c163976ebdcd6f50e611e22565b3d9150611e7c565b82513d86823e3d90fd5b634e487b7160e01b87526011600452602487fd5b611f0490863d88116113bc576113ad8183611990565b505f611dc256fea264697066735822122090b0fea55d824bdff008cd25f6240698b9e2c533d6914a18c2b1db5498e2879364736f6c6343000814003360a06040523462000343576200001462000347565b6200001e62000347565b8151906001600160401b03908183116200024e576003908154906001948583811c931696871562000338575b6020978885101462000324578190601f94858111620002d1575b5088908583116001146200026e575f9262000262575b50505f1982861b1c191690861b1783555b80519384116200024e5760049586548681811c9116801562000243575b828210146200023057838111620001e8575b50809285116001146200017e57509383949184925f9562000172575b50501b925f19911b1c19161781555b33156200015b5760058054336001600160a01b03198216811790925560405191906001600160a01b03167f8be0079c531659141344cd1fd0a4f28419497f9722a3daafe3b4186f6b6457e05f80a3336080526110bf90816200036b82396080518181816101c9015281816104f601526106900152f35b6024905f60405191631e4fbdf760e01b8352820152fd5b015193505f80620000d6565b92919084601f198116885f52855f20955f905b89838310620001cd5750505010620001b3575b50505050811b018155620000e5565b01519060f8845f19921b161c191690555f808080620001a4565b85870151895590970196948501948893509081019062000191565b875f52815f208480880160051c82019284891062000226575b0160051c019087905b8281106200021a575050620000ba565b5f81550187906200020a565b9250819262000201565b602288634e487b7160e01b5f525260245ffd5b90607f1690620000a8565b634e487b7160e01b5f52604160045260245ffd5b015190505f806200007a565b90889350601f19831691875f528a5f20925f5b8c828210620002ba5750508411620002a2575b505050811b0183556200008b565b01515f1983881b60f8161c191690555f808062000294565b8385015186558c9790950194938401930162000281565b909150855f52885f208580850160051c8201928b86106200031a575b918a91869594930160051c01915b8281106200030b57505062000064565b5f81558594508a9101620002fb565b92508192620002ed565b634e487b7160e01b5f52602260045260245ffd5b92607f16926200004a565b5f80fd5b60405190602082016001600160401b038111838210176200024e576040525f825256fe60806040818152600480361015610020575b505050361561001e575f80fd5b005b5f92833560e01c90816302d05d3f14610ded5750806306fdde0314610d43578063095ea7b314610c9a57806318160ddd14610c7b57806323b872dd14610b89578063313ce56714610b6d5780633ccfd60b14610a4c578063631831fb146105f6578063663fc07b146105d75780636817c76c146105b857806370a0823114610581578063715018a614610521578063755edd17146103715780638da5cb5b1461034857806395d89b4114610267578063a2309ff814610248578063a9059cbb14610217578063bac21a22146101f8578063c45a0155146101b4578063dd62ed3e146101675763f2fde38b03610011573461016357602036600319011261016357610128610e5f565b91610131610ee1565b6001600160a01b0383161561014d578361014a84610f0d565b80f35b51631e4fbdf760e01b8152908101839052602490fd5b8280fd5b5050346101b057806003193601126101b05780602092610185610e5f565b61018d610e79565b6001600160a01b0391821683526001865283832091168252845220549051908152f35b5080fd5b5050346101b057816003193601126101b057517f00000000000000000000000000000000000000000000000000000000000000006001600160a01b03168152602090f35b5050346101b057816003193601126101b0576020906006549051908152f35b5050346101b057806003193601126101b057602090610241610237610e5f565b6024359033610f55565b5160018152f35b5050346101b057816003193601126101b057602090600a549051908152f35b5050346101b057816003193601126101b05780519082600d5461028981611051565b8085529160019180831690811561032057506001146102c3575b5050506102b5826102bf940383610e8f565b5191829182610e33565b0390f35b9450600d85527fd7b6990105719101dabeb77144f2a3385c8033acd3af97e9423a695e81ad1eb55b828610610308575050506102b58260206102bf95820101946102a3565b805460208787018101919091529095019481016102eb565b6102bf9750869350602092506102b594915060ff191682840152151560051b820101946102a3565b5050346101b057816003193601126101b05760055490516001600160a01b039091168152602090f35b50906020908160031936011261051d57610389610e5f565b9060018060a01b038060095416331480156104f2575b156104b157600854341061047757600a5492600754936103bf8582611030565b6006541061043d57846103d191611030565b600a551693841561042857509181859361040e7fddf252ad1be2c89b69c2b068fc378daa952ba7f163c4a11628f55a4df523b3ef94600254611030565b60025585855284835280852082815401905551908152a380f35b85602492519163ec442f0560e01b8352820152fd5b835162461bcd60e51b815280880187905260146024820152734578636565647320746f74616c20737570706c7960601b6044820152606490fd5b815162461bcd60e51b81528086018590526014602482015273125b9cdd59999a58da595b9d081c185e5b595b9d60621b6044820152606490fd5b606485858085519262461bcd60e51b845283015260248201527f4f6e6c792063726561746f72206f7220666163746f72792063616e206d696e746044820152fd5b50807f000000000000000000000000000000000000000000000000000000000000000016331461039f565b8380fd5b833461057e578060031936011261057e5761053a610ee1565b600580546001600160a01b0319811690915581906001600160a01b03167f8be0079c531659141344cd1fd0a4f28419497f9722a3daafe3b4186f6b6457e08280a380f35b80fd5b5050346101b05760203660031901126101b05760209181906001600160a01b036105a9610e5f565b16815280845220549051908152f35b5050346101b057816003193601126101b0576020906008549051908152f35b5050346101b057816003193601126101b0576020906007549051908152f35b508290346101b05760a03660031901126101b05767ffffffffffffffff92813584811161051d573660238201121561051d57808301359261063684610ec5565b9361064384519586610e8f565b8085526020948581019160249436868383010111610a4857818992878a9301863783010152608435956001600160a01b0380881696909490878903610a4457600b549560ff8716610a0d577f00000000000000000000000000000000000000000000000000000000000000001633036109cd576001809660ff191617600b555180946b024b739b1b934b83a34b7b7160a51b848301526106ea85518092602c850190610e12565b810103610701602c600c9283810188520186610e8f565b84518b81116109bb57806107158354611051565b96601f9788811161094c575b5085908d8984116001146108d057926108c5575b50505f19600383901b1c191690871b1790555b8251998a116108b3575061075d600d54611051565b838111610851575b50809289116001146107cd57509680928192889961014a99946107c2575b50501b915f199060031b1c191617600d555b356006556044356007556064356008556bffffffffffffffffffffffff60a01b6009541617600955610f0d565b015192508980610783565b600d8852601f19891698927fd7b6990105719101dabeb77144f2a3385c8033acd3af97e9423a695e81ad1eb592909189905b8b821061083a5750508361014a999a10610822575b505050811b01600d55610795565b01515f1960f88460031b161c19169055878080610814565b8087859682949686015181550195019301906107ff565b600d89527fd7b6990105719101dabeb77144f2a3385c8033acd3af97e9423a695e81ad1eb584808c0160051c820192848d106108aa575b0160051c019085905b82811061089f575050610765565b8a8155018590610891565b92508192610888565b634e487b7160e01b8952604190528488fd5b015190508d80610735565b91908a9450601f1984168684527fdf6966c971051c3d54ec59162606531493a51404a002842f56009d7e5cf4a8c7935b89828210610936575050841161091e575b505050811b019055610748565b01515f1960f88460031b161c191690558d8080610911565b8385015186558d97909501949384019301610900565b909150838d527fdf6966c971051c3d54ec59162606531493a51404a002842f56009d7e5cf4a8c78880850160051c8201928886106109b2575b859493910160051c909101908a908f5b8382106109a457505050610721565b81558594508b91018f610995565b92508192610985565b634e487b7160e01b8b5260418352878bfd5b86606493601b92519362461bcd60e51b85528401528201527f4f6e6c7920666163746f72792063616e20696e697469616c697a6500000000006044820152fd5b5086606493601392519362461bcd60e51b855284015282015272105b1c9958591e481a5b9a5d1a585b1a5e9959606a1b6044820152fd5b8980fd5b8880fd5b5090346101635782600319360112610163576009546001600160a01b031633819003610b2a5747908115610aee578480809381935af13d15610ae9573d610a9281610ec5565b90610a9f84519283610e8f565b81528460203d92013e5b15610ab2578280f35b906020606492519162461bcd60e51b8352820152601160248201527015da5d1a191c985dd85b0819985a5b1959607a1b6044820152fd5b610aa9565b825162461bcd60e51b815260208186015260166024820152754e6f2062616c616e636520746f20776974686472617760501b6044820152606490fd5b815162461bcd60e51b8152602081850152601960248201527f4f6e6c792063726561746f722063616e207769746864726177000000000000006044820152606490fd5b5050346101b057816003193601126101b0576020905160128152f35b50823461057e57606036600319011261057e57610ba4610e5f565b610bac610e79565b916044359360018060a01b038316808352600160205286832033845260205286832054915f198310610be7575b602088610241898989610f55565b868310610c4f578115610c38573315610c215750825260016020908152868320338452815291869020908590039055829061024187610bd9565b8751634a1406b160e11b8152908101849052602490fd5b875163e602df0560e01b8152908101849052602490fd5b8751637dc7a0d960e11b8152339181019182526020820193909352604081018790528291506060010390fd5b5050346101b057816003193601126101b0576020906002549051908152f35b5034610163578160031936011261016357610cb3610e5f565b602435903315610d2c576001600160a01b0316918215610d1557508083602095338152600187528181208582528752205582519081527f8c5be1e5ebec7d5bd14f71427d1e84f3dd0314c0f7b2291e5b200ac8c7c3b925843392a35160018152f35b8351634a1406b160e11b8152908101859052602490fd5b835163e602df0560e01b8152808401869052602490fd5b5050346101b057816003193601126101b05780519082600c54610d6581611051565b808552916001918083169081156103205750600114610d90575050506102b5826102bf940383610e8f565b9450600c85527fdf6966c971051c3d54ec59162606531493a51404a002842f56009d7e5cf4a8c75b828610610dd5575050506102b58260206102bf95820101946102a3565b80546020878701810191909152909501948101610db8565b8490346101b057816003193601126101b0576009546001600160a01b03168152602090f35b5f5b838110610e235750505f910152565b8181015183820152602001610e14565b60409160208252610e538151809281602086015260208686019101610e12565b601f01601f1916010190565b600435906001600160a01b0382168203610e7557565b5f80fd5b602435906001600160a01b0382168203610e7557565b90601f8019910116810190811067ffffffffffffffff821117610eb157604052565b634e487b7160e01b5f52604160045260245ffd5b67ffffffffffffffff8111610eb157601f01601f191660200190565b6005546001600160a01b03163303610ef557565b60405163118cdaa760e01b8152336004820152602490fd5b600580546001600160a01b039283166001600160a01b0319821681179092559091167f8be0079c531659141344cd1fd0a4f28419497f9722a3daafe3b4186f6b6457e05f80a3565b916001600160a01b038084169283156110185716928315611000575f9083825281602052604082205490838210610fce575091604082827fddf252ad1be2c89b69c2b068fc378daa952ba7f163c4a11628f55a4df523b3ef958760209652828652038282205586815220818154019055604051908152a3565b60405163391434e360e21b81526001600160a01b03919091166004820152602481019190915260448101839052606490fd5b60405163ec442f0560e01b81525f6004820152602490fd5b604051634b637e8f60e11b81525f6004820152602490fd5b9190820180921161103d57565b634e487b7160e01b5f52601160045260245ffd5b90600182811c9216801561107f575b602083101461106b57565b634e487b7160e01b5f52602260045260245ffd5b91607f169161106056fea264697066735822122085a87831318b72799f5b77c5821dd9de0dac8efc30235f49f774e7a5e3c369a964736f6c63430008140033","linkReferences":{}},"methodIdentifiers":{"FACTORY_FEE_PERCENTAGE()":"d2538628","FEE_PERCENTAGE()":"000b46f8","buyAndAddLiquidity(string,uint256)":"7fecabce","buyMeme(string,uint256,uint256)":"0c677a6e","deployInscription(string,uint256,uint256,uint256)":"3ef8af43","fee()":"ddca3f43","inscriptions(string)":"c6f487fd","isInscriptionToken(address)":"06b83ca9","liquidityAdded(address)":"5dd8ba88","mintInscription(string)":"c59bddc8","owner()":"8da5cb5b","renounceOwnership()":"715018a6","setFee(uint256)":"69fe0e2d","setUniswapRouter(address)":"bea9849e","setUniswapRouterDirect(address)":"a1188d00","setWeth(address)":"b8d1452f","tokenImplementation()":"2f3a3d5d","transferOwnership(address)":"f2fde38b","uniswapRouter()":"735de9f7","weth()":"3fc8cef3","withdraw()":"3ccfd60b","withdrawLPTokens(address)":"3ac88c4f"},"id":40}