{"abi":[{"type":"constructor","inputs":[],"stateMutability":"nonpayable"},{"type":"receive","stateMutability":"payable"},{"type":"function","name":"FACTORY_FEE_PERCENTAGE","inputs":[],"outputs":[{"name":"","type":"uint256","internalType":"uint256"}],"stateMutability":"view"},{"type":"function","name":"FEE_PERCENTAGE","inputs":[],"outputs":[{"name":"","type":"uint256","internalType":"uint256"}],"stateMutability":"view"},{"type":"function","name":"buyAndAddLiquidity","inputs":[{"name":"symbol","type":"string","internalType":"string"},{"name":"totalEthAmount","type":"uint256","internalType":"uint256"}],"outputs":[],"stateMutability":"nonpayable"},{"type":"function","name":"buyMeme","inputs":[{"name":"symbol","type":"string","internalType":"string"},{"name":"amountOutMin","type":"uint256","internalType":"uint256"},{"name":"deadline","type":"uint256","internalType":"uint256"}],"outputs":[],"stateMutability":"payable"},{"type":"function","name":"deployInscription","inputs":[{"name":"symbol","type":"string","internalType":"string"},{"name":"totalSupply","type":"uint256","internalType":"uint256"},{"name":"perMint","type":"uint256","internalType":"uint256"},{"name":"price","type":"uint256","internalType":"uint256"}],"outputs":[],"stateMutability":"payable"},{"type":"function","name":"fee","inputs":[],"outputs":[{"name":"","type":"uint256","internalType":"uint256"}],"stateMutability":"view"},{"type":"function","name":"inscriptions","inputs":[{"name":"","type":"string","internalType":"string"}],"outputs":[{"name":"","type":"address","internalType":"address"}],"stateMutability":"view"},{"type":"function","name":"isInscriptionToken","inputs":[{"name":"","type":"address","internalType":"address"}],"outputs":[{"name":"","type":"bool","internalType":"bool"}],"stateMutability":"view"},{"type":"function","name":"liquidityAdded","inputs":[{"name":"","type":"address","internalType":"address"}],"outputs":[{"name":"","type":"bool","internalType":"bool"}],"stateMutability":"view"},{"type":"function","name":"mintInscription","inputs":[{"name":"symbol","type":"string","internalType":"string"}],"outputs":[],"stateMutability":"payable"},{"type":"function","name":"owner","inputs":[],"outputs":[{"name":"","type":"address","internalType":"address"}],"stateMutability":"view"},{"type":"function","name":"renounceOwnership","inputs":[],"outputs":[],"stateMutability":"nonpayable"},{"type":"function","name":"setFee","inputs":[{"name":"_fee","type":"uint256","internalType":"uint256"}],"outputs":[],"stateMutability":"nonpayable"},{"type":"function","name":"setUniswapRouter","inputs":[{"name":"_router","type":"address","internalType":"address"}],"outputs":[],"stateMutability":"nonpayable"},{"type":"function","name":"setUniswapRouterDirect","inputs":[{"name":"_router","type":"address","internalType":"address"}],"outputs":[],"stateMutability":"nonpayable"},{"type":"function","name":"setWeth","inputs":[{"name":"_weth","type":"address","internalType":"address"}],"outputs":[],"stateMutability":"nonpayable"},{"type":"function","name":"tokenImplementation","inputs":[],"outputs":[{"name":"","type":"address","internalType":"address"}],"stateMutability":"view"},{"type":"function","name":"transferOwnership","inputs":[{"name":"newOwner","type":"address","internalType":"address"}],"outputs":[],"stateMutability":"nonpayable"},{"type":"function","name":"uniswapRouter","inputs":[],"outputs":[{"name":"","type":"address","internalType":"address"}],"stateMutability":"view"},{"type":"function","name":"weth","inputs":[],"outputs":[{"name":"","type":"address","internalType":"address"}],"stateMutability":"view"},{"type":"function","name":"withdraw","inputs":[],"outputs":[],"stateMutability":"nonpayable"},{"type":"function","name":"withdrawLPTokens","inputs":[{"name":"token","type":"address","internalType":"address"}],"outputs":[],"stateMutability":"nonpayable"},{"type":"event","name":"InscriptionDeployed","inputs":[{"name":"symbol","type":"string","indexed":true,"internalType":"string"},{"name":"token","type":"address","indexed":true,"internalType":"address"}],"anonymous":false},{"type":"event","name":"InscriptionMinted","inputs":[{"name":"symbol","type":"string","indexed":true,"internalType":"string"},{"name":"to","type":"address","indexed":true,"internalType":"address"},{"name":"amount","type":"uint256","indexed":false,"internalType":"uint256"}],"anonymous":false},{"type":"event","name":"LiquidityAdded","inputs":[{"name":"token","type":"address","indexed":true,"internalType":"address"},{"name":"tokenAmount","type":"uint256","indexed":false,"internalType":"uint256"},{"name":"ethAmount","type":"uint256","indexed":false,"internalType":"uint256"},{"name":"liquidity","type":"uint256","indexed":false,"internalType":"uint256"}],"anonymous":false},{"type":"event","name":"OwnershipTransferred","inputs":[{"name":"previousOwner","type":"address","indexed":true,"internalType":"address"},{"name":"newOwner","type":"address","indexed":true,"internalType":"address"}],"anonymous":false},{"type":"error","name":"FailedDeployment","inputs":[]},{"type":"error","name":"InsufficientBalance","inputs":[{"name":"balance","type":"uint256","internalType":"uint256"},{"name":"needed","type":"uint256","internalType":"uint256"}]},{"type":"error","name":"OwnableInvalidOwner","inputs":[{"name":"owner","type":"address","internalType":"address"}]},{"type":"error","name":"OwnableUnauthorizedAccount","inputs":[{"name":"account","type":"address","internalType":"address"}]}],"bytecode":{"object":"0x60a080604052346100de5733156100c9575f8054336001600160a01b03198216811783556040516001600160a01b03939290919084167f8be0079c531659141344cd1fd0a4f28419497f9722a3daafe3b4186f6b6457e08480a361139c818101906001600160401b038211838310176100b5579082916120098339039082f09081156100a9575016608052604051611f2690816100e38239608051818181610ef701526114af0152f35b604051903d90823e3d90fd5b634e487b7160e01b84526041600452602484fd5b631e4fbdf760e01b81525f6004820152602490fd5b5f80fdfe6080604081815260049081361015610021575b505050361561001f575f80fd5b005b5f92833560e01c9081620b46f81461190d5750806306b83ca9146118ce5780630c677a6e146114de5780632f3a3d5d1461149a5780633ac88c4f1461126e5780633ccfd60b146111b45780633ef8af4314610e495780633fc8cef314610e205780635dd8ba8814610de157806369fe0e2d14610dbf578063715018a614610d66578063735de9f714610d3e5780637fecabce146106a75780638da5cb5b1461067f578063a1188d0014610633578063b8d1452f146105aa578063bea9849e146104ec578063c59bddc814610253578063c6f487fd146101e8578063d2538628146101cc578063ddca3f43146101a95763f2fde38b0361001257346101a55760203660031901126101a5576001600160a01b038235818116939192908490036101a15761014b611a0d565b831561018b5750505f548260018060a01b03198216175f55167f8be0079c531659141344cd1fd0a4f28419497f9722a3daafe3b4186f6b6457e05f80a380f35b51631e4fbdf760e01b8152908101849052602490fd5b8480fd5b8280fd5b8382346101c857816003193601126101c8576020906003549051908152f35b5080fd5b8382346101c857816003193601126101c8576020905160058152f35b508234610250576020366003190112610250578235906001600160401b038211610250575060209261021c913691016119a6565b8261022f835192838151938492016119ec565b6002908201908152819003830190205490516001600160a01b039091168152f35b80fd5b506020806003193601126104e85782356001600160401b0381116101a15761027e90369085016119a6565b82516102c78383516102b7828601916102988187856119ec565b850160028152858460018060a01b039788930301902054161515611b48565b86518093819287519283916119ec565b8101600281520301902054168351631a05f1db60e21b815283818781855afa9081156104de5787916104b1575b50600a81028115828204600a1481171561049e576005830290838204600514171561049e579061032d6064806103329404920484611bcf565b611bcf565b90813410610464578790833b156101c8578160249188519283809263755edd1760e01b8252338d830152885af1801561045a5790869493929161043d575b505061037c9034611abc565b878161041e575b5050845163663fc07b60e01b815295869182905afa9384156104145785946103dd575b50906103d27f2c00a34097ec0e58039e2abe0b22bad4d9936cde57e2c49c8a1a02980306ce8a92611a9c565b92519384523393a380f35b918091945082813d831161040d575b6103f6818361196a565b81010312610409579051926103d26103a6565b5f80fd5b503d6103ec565b83513d87823e3d90fd5b80808061043694335af1610430611add565b50611b0c565b5f87610383565b61044991929450611928565b610456578391875f610370565b8680fd5b87513d84823e3d90fd5b855162461bcd60e51b81528088018690526014602482015273125b9cdd59999a58da595b9d081c185e5b595b9d60621b6044820152606490fd5b634e487b7160e01b895260118852602489fd5b90508381813d83116104d7575b6104c8818361196a565b8101031261040957515f6102f4565b503d6104be565b85513d89823e3d90fd5b8380fd5b50346101a55760203660031901126101a5576001600160a01b03908235828116908190036101a15761051c611a0d565b610527811515611a38565b83546001600160a01b03198082168317865583516315ab88c960e31b81529095909260209284929183918a16175afa9182156105a157508491610573575b501690600554161760055580f35b610594915060203d811161059a575b61058c818361196a565b810190611a7d565b5f610565565b503d610582565b513d86823e3d90fd5b5090346101a55760203660031901126101a55780356001600160a01b03811692908390036104e8576105da611a0d565b82156105f9575050600580546001600160a01b03191691909117905580f35b906020606492519162461bcd60e51b83528201526014602482015273496e76616c69642057455448206164647265737360601b6044820152fd5b5050346101c85760203660031901126101c85780356001600160a01b038116908190036101a557610662611a0d565b61066d811515611a38565b81546001600160a01b03191617905580f35b8382346101c857816003193601126101c857905490516001600160a01b039091168152602090f35b5090346101a557816003193601126101a55780356001600160401b0381116104e8576106d690369083016119a6565b60249283356106e3611a0d565b81519483519260209361071d858701916106fe818b856119ec565b890160028152898760018060a01b039b8c930301902054161515611b48565b878754169561072d871515611bdc565b478560011b9086820460021487151715610d2c5710610cc9578589610760828d958c9588519384928392519283916119ec565b8101600281520301902054169784519283809263c45a015560e01b82525afa908115610cbf578291610ca2575b50886005541690868860448b8d8851958694859363e6a4390560e01b8552840152878b840152165afa908115610c9857908a918491610c7b575b50169889158015610c09575b8451631a05f1db60e21b8152999a98999890888a8d818e5afa998a15610bff579085949392918d969b610bc9575b50865163663fc07b60e01b81529c8a908e90818f5afa9c8d15610bbf57859d610b8c575b5015610939575050505061083d8460011c8095611abc565b9484151580610930575b156108f5575090889291873b156104e8578390825193849163755edd1760e01b8352309083015281878b5af19081156108ec57506108d0575b5050936108a36108bf926108ae856108a3856108a8836108a3836108c59e611b9e565b611bb1565b94611b9e565b808210156108c85750935b84611b9e565b91611d50565b80f35b9050936108b9565b6108dc90969296611928565b6108e85793855f610880565b8580fd5b513d84823e3d90fd5b83601891606494519362461bcd60e51b85528401528201527724b73b30b634b21022aa24103234b9ba3934b13aba34b7b760411b6044820152fd5b50851515610847565b85979a9b95999498995191630240bc6b60e21b83526060838b81855afa918215610b82578b8b9187958895610b25575b508b51630dfe168160e01b815292839182905afa908115610b1b578691610afe575b5016928c8403610af75782935b6001600160701b03948516955003610af057505b169080151580610ae7575b15610ab2578a9695949392916108a36109d0928b611b9e565b84516370a0823160e01b81523087820152909790818186818e5afa918215610aa8578892610a77575b5050878110610a13575b505050505050506108c592611d50565b610a2a9291610a256108a3928a611abc565b611b9e565b92873b156101a157849183518095819363755edd1760e01b835230908301528a5af19081156108ec5750610a63575b8080808080610a03565b610a6c90611928565b6104e857835f610a59565b8198508092503d8311610aa1575b610a8f818361196a565b81010312610409578995515f806109f9565b503d610a85565b86513d8a823e3d90fd5b855162461bcd60e51b81528088018990526010818701526f496e76616c696420726573657276657360801b6044820152606490fd5b508115156109b7565b90506109ac565b8193610998565b610b1591508c8d3d1061059a5761058c818361196a565b5f61098b565b8a513d88823e3d90fd5b9550935050506060833d8211610b7a575b81610b436060938361196a565b810103126101a157610b5483611c21565b89610b608d8601611c21565b94015163ffffffff8116036108e8578b8b9194935f610969565b3d9150610b36565b89513d87823e3d90fd5b8a80929e508196503d8311610bb8575b610ba6818361196a565b81010312610409578c93519b5f610825565b503d610b9c565b87513d87823e3d90fd5b9450995093508783813d8311610bf8575b610be4818361196a565b81010312610409578a938c9351995f610801565b503d610bda565b86513d87823e3d90fd5b5083516318160ddd60e01b815299878b8b81845afa8015610c71578a9b859b9a9b91610c3d575b5015909a509897986107d3565b94505097508683813d8311610c6a575b610c57818361196a565b810103126104095789978b93515f610c30565b503d610c4d565b85513d86823e3d90fd5b610c929150883d8a1161059a5761058c818361196a565b5f6107c7565b84513d85823e3d90fd5b610cb99150863d881161059a5761058c818361196a565b5f61078d565b83513d84823e3d90fd5b825162461bcd60e51b81528089018790526038818601527f496e73756666696369656e74204554482062616c616e63652c206e65656420616044820152771d081b19585cdd081d1dda58d9481d1a1948185b5bdd5b9d60421b6064820152608490fd5b634e487b7160e01b8c5260118a52858cfd5b5090346101a557826003193601126101a5575490516001600160a01b03909116815260209150f35b8334610250578060031936011261025057610d7f611a0d565b5f80546001600160a01b0319811682556001600160a01b03167f8be0079c531659141344cd1fd0a4f28419497f9722a3daafe3b4186f6b6457e08280a380f35b5050346101c85760203660031901126101c857610dda611a0d565b3560035580f35b5090346101a55760203660031901126101a557356001600160a01b038116908190036101a557818360ff92602095526006855220541690519015158152f35b8382346101c857816003193601126101c85760055490516001600160a01b039091168152602090f35b509060803660031901126101a55780356001600160401b0381116104e857610e7490369083016119a6565b906024908135936044803590606496873594600354341061118157845196885196602098898b0198610ea781838c6119ec565b60029082019081528190038a019020546001600160a01b0390811661114957841561110957861515806110ff575b156110c657811561108d57603760098e6e5af43d82803e903d91602b57fd5bf37f0000000000000000000000000000000000000000000000000000000000000000763d602d80600a3d3981f3363d3d373d3d3d363d7300000062ffffff8260881c1617835260781b178d52f0169a8b1561107d57908c95949392918c3b15610456578b9760a09660c4968c95610f8a8d519c8d9b8c9a63631831fb60e01b8c528b01525180988160a48c01528b8b01906119ec565b870152850152830152336084830152601f01601f19168101030181838a5af1801561107357611054575b5091610fe391611004949386885260018352808820600160ff19825416179055518093819286519283916119ec565b60029082019081520301902080546001600160a01b03191684179055611a9c565b7fa334ec6a105bc6c7e5fc155a2e1a565c2194e0e5ba193b732e3bac18e7ce14468380a361103460035434611abc565b818161103d5780f35b80808061104f94335af1610430611add565b5f8180f35b9161100494939196611068610fe394611928565b969193945091610fb4565b82513d89823e3d90fd5b875163b06ebf3d60e01b81528490fd5b875162461bcd60e51b81528085018b9052601681850152755072696365206d75737420626520706f73697469766560501b818801528c90fd5b875162461bcd60e51b81528085018b905260168185015275125b9d985b1a59081c195c935a5b9d08185b5bdd5b9d60521b818801528c90fd5b5084871115610ed5565b875162461bcd60e51b81528085018b9052601d818501527f546f74616c20737570706c79206d75737420626520706f736974697665000000818801528c90fd5b875162461bcd60e51b81528085018b90526015818501527453796d626f6c20616c72656164792065786973747360581b818801528c90fd5b88906f496e73756666696369656e742066656560801b8460108a60208a519562461bcd60e51b8752860152840152820152fd5b50346101a557826003193601126101a5576111cd611a0d565b47801561123257835484918291829182916001600160a01b03165af16111f1611add565b50156111fb578280f35b906020606492519162461bcd60e51b8352820152601160248201527015da5d1a191c985dd85b0819985a5b1959607a1b6044820152fd5b815162461bcd60e51b815260208185015260166024820152754e6f2062616c616e636520746f20776974686472617760501b6044820152606490fd5b508290346101c857602090816003193601126101a5576001600160a01b03938035858116908190036101a15781906112a4611a0d565b848783541685519384809263c45a015560e01b82525afa91821561141b57908591879361147b575b506044886005541691898751958694859363e6a4390560e01b8552898501526024840152165afa90811561041457908691869161145e575b50169081156114255782516370a0823160e01b81523082820152958487602481865afa96871561141b5786976113ec575b5086156113ae57611364939285928789938154169186519788958694859363a9059cbb60e01b85528401611d35565b03925af19081156113a55750611378578280f35b8161139792903d1061139e575b61138f818361196a565b810190611d1d565b5081808280f35b503d611385565b513d85823e3d90fd5b835162461bcd60e51b815280830186905260186024820152774e6f204c5020746f6b656e7320746f20776974686472617760401b6044820152606490fd5b9096508481813d8311611414575b611404818361196a565b810103126108e857519587611335565b503d6113fa565b84513d88823e3d90fd5b825162461bcd60e51b8152908101849052601360248201527214185a5c88191bd95cc81b9bdd08195e1a5cdd606a1b6044820152606490fd5b6114759150853d871161059a5761058c818361196a565b87611304565b611493919350823d841161059a5761058c818361196a565b91886112cc565b8382346101c857816003193601126101c857517f00000000000000000000000000000000000000000000000000000000000000006001600160a01b03168152602090f35b5060603660031901126101a5578135916001600160401b0383116104e85761150c61156b93369083016119a6565b9082519082519160209586809461154b8288019161152b8187856119ec565b8501600281528560018060a01b0398899788930301902054161515611b48565b838554169661155b881515611bdc565b88519384928392519283916119ec565b8101600281520301902054168087526006865260ff858820541615611892578451926115968461194f565b6002845285368886013760055416806115ae85611c35565b52816115b985611c56565b528551631a05f1db60e21b815287818581865afa908115611888578991611857575b50865163d06ca61f60e01b815234858201528981806116056024998c8b8401526044830190611ce1565b03818a5afa90811561184d5790611623918b91611833575b50611c56565b51875163663fc07b60e01b81529189838781885afa928315611829578b936117f6575b50600a810290801591818104600a148317156117e4576064611669910482611bcf565b916005820291820460051417156117d257906064611688920490611bcf565b90670de0b6b3a764000090818102908082048314901517156117d2576116af903490611bb1565b928181029181830414901517156117c057906116ca91611bb1565b101561176e579160809391889593878051996116e58b61194f565b60028b5236908b01376116f789611c35565b5261170188611c56565b5261172b865197889586948594637ff36ab560e01b86528135908601528401526084830190611ce1565b3360448301526044356064830152039134905af19081156108ec575061174f575080f35b61176a903d8084833e611762818361196a565b810190611c66565b5080f35b855162461bcd60e51b81528084018890526027818601527f4d696e7420707269636520697320626574746572207468616e20556e697377616044820152667020707269636560c81b6064820152608490fd5b634e487b7160e01b8b5260118652868bfd5b634e487b7160e01b8c5260118752878cfd5b634e487b7160e01b8d5260118852888dfd5b9092508981813d8311611822575b61180e818361196a565b8101031261181e5751915f611646565b8a80fd5b503d611804565b89513d8d823e3d90fd5b61184791503d808d833e611762818361196a565b5f61161d565b88513d8c823e3d90fd5b90508781813d8311611881575b61186e818361196a565b8101031261187d57515f6115db565b8880fd5b503d611864565b87513d8b823e3d90fd5b845162461bcd60e51b815280830187905260166024820152754e6f206c697175696469747920617661696c61626c6560501b6044820152606490fd5b5090346101a55760203660031901126101a557356001600160a01b038116908190036101a557818360ff92602095526001855220541690519015158152f35b8490346101c857816003193601126101c85780600a60209252f35b6001600160401b03811161193b57604052565b634e487b7160e01b5f52604160045260245ffd5b606081019081106001600160401b0382111761193b57604052565b90601f801991011681019081106001600160401b0382111761193b57604052565b6001600160401b03811161193b57601f01601f191660200190565b81601f82011215610409578035906119bd8261198b565b926119cb604051948561196a565b8284526020838301011161040957815f926020809301838601378301015290565b5f5b8381106119fd5750505f910152565b81810151838201526020016119ee565b5f546001600160a01b03163303611a2057565b60405163118cdaa760e01b8152336004820152602490fd5b15611a3f57565b60405162461bcd60e51b8152602060048201526016602482015275496e76616c696420726f75746572206164647265737360501b6044820152606490fd5b9081602091031261040957516001600160a01b03811681036104095790565b611ab4906020604051928284809451938492016119ec565b810103902090565b91908203918211611ac957565b634e487b7160e01b5f52601160045260245ffd5b3d15611b07573d90611aee8261198b565b91611afc604051938461196a565b82523d5f602084013e565b606090565b15611b1357565b60405162461bcd60e51b815260206004820152600d60248201526c1499599d5b990819985a5b1959609a1b6044820152606490fd5b15611b4f57565b60405162461bcd60e51b815260206004820152602160248201527f546f6b656e206e6f742063726561746564206279207468697320666163746f726044820152607960f81b6064820152608490fd5b81810292918115918404141715611ac957565b8115611bbb570490565b634e487b7160e01b5f52601260045260245ffd5b91908201809211611ac957565b15611be357565b60405162461bcd60e51b8152602060048201526016602482015275155b9a5cddd85c081c9bdd5d195c881b9bdd081cd95d60521b6044820152606490fd5b51906001600160701b038216820361040957565b805115611c425760200190565b634e487b7160e01b5f52603260045260245ffd5b805160011015611c425760400190565b9060209081838203126104095782516001600160401b0393848211610409570181601f8201121561040957805193841161193b578360051b9060405194611caf8584018761196a565b85528380860192820101928311610409578301905b828210611cd2575050505090565b81518152908301908301611cc4565b9081518082526020808093019301915f5b828110611d00575050505090565b83516001600160a01b031685529381019392810192600101611cf2565b90816020910312610409575180151581036104095790565b6001600160a01b039091168152602081019190915260400190565b60045491926001600160a01b03928316918390611d6e841515611bdc565b169360409182519463095ea7b360e01b865285611d918460209760048401611d35565b039585815f98818a8c5af180156104de57611ed3575b506004541691610384420191824211611ebf576060929160c4918651958694859363f305d71960e01b85528c600486015260248501528a60448501528a606485015230608485015260a48401525af1928315611eb5578480928195611e50575b5086815260068252839020805460ff1916600117905582519485528401528201527f64b83944e79c3ce8d4c297411de637c3e102d064677aac0c163976ebdcd6f50e90606090a2565b9550935090506060843d8211611ead575b81611e6e6060938361196a565b810103126101a55783518482015194830151909490939091907f64b83944e79c3ce8d4c297411de637c3e102d064677aac0c163976ebdcd6f50e611e07565b3d9150611e61565b82513d86823e3d90fd5b634e487b7160e01b87526011600452602487fd5b611ee990863d881161139e5761138f818361196a565b505f611da756fea2646970667358221220c0778ed5f3cc925c1c446bc1b730d1697c86ed5eb3351b634deab69d74e8dd1f64736f6c6343000814003360a06040523462000343576200001462000347565b6200001e62000347565b8151906001600160401b03908183116200024e576003908154906001948583811c931696871562000338575b6020978885101462000324578190601f94858111620002d1575b5088908583116001146200026e575f9262000262575b50505f1982861b1c191690861b1783555b80519384116200024e5760049586548681811c9116801562000243575b828210146200023057838111620001e8575b50809285116001146200017e57509383949184925f9562000172575b50501b925f19911b1c19161781555b33156200015b5760058054336001600160a01b03198216811790925560405191906001600160a01b03167f8be0079c531659141344cd1fd0a4f28419497f9722a3daafe3b4186f6b6457e05f80a33360805261103190816200036b82396080518181816101c9015281816104f2015261068b0152f35b6024905f60405191631e4fbdf760e01b8352820152fd5b015193505f80620000d6565b92919084601f198116885f52855f20955f905b89838310620001cd5750505010620001b3575b50505050811b018155620000e5565b01519060f8845f19921b161c191690555f808080620001a4565b85870151895590970196948501948893509081019062000191565b875f52815f208480880160051c82019284891062000226575b0160051c019087905b8281106200021a575050620000ba565b5f81550187906200020a565b9250819262000201565b602288634e487b7160e01b5f525260245ffd5b90607f1690620000a8565b634e487b7160e01b5f52604160045260245ffd5b015190505f806200007a565b90889350601f19831691875f528a5f20925f5b8c828210620002ba5750508411620002a2575b505050811b0183556200008b565b01515f1983881b60f8161c191690555f808062000294565b8385015186558c9790950194938401930162000281565b909150855f52885f208580850160051c8201928b86106200031a575b918a91869594930160051c01915b8281106200030b57505062000064565b5f81558594508a9101620002fb565b92508192620002ed565b634e487b7160e01b5f52602260045260245ffd5b92607f16926200004a565b5f80fd5b60405190602082016001600160401b038111838210176200024e576040525f825256fe60806040818152600480361015610020575b505050361561001e575f80fd5b005b5f92833560e01c90816302d05d3f14610d585750806306fdde0314610cb2578063095ea7b314610c0957806318160ddd14610bea57806323b872dd14610b02578063313ce56714610ae65780633ccfd60b146109c9578063631831fb146105f2578063663fc07b146105d35780636817c76c146105b457806370a082311461057d578063715018a61461051d578063755edd171461036d5780638da5cb5b1461034457806395d89b4114610267578063a2309ff814610248578063a9059cbb14610217578063bac21a22146101f8578063c45a0155146101b4578063dd62ed3e146101675763f2fde38b03610011573461016357602036600319011261016357610128610dca565b91610131610e4a565b6001600160a01b0383161561014d578361014a84610e76565b80f35b51631e4fbdf760e01b8152908101839052602490fd5b8280fd5b5050346101b057806003193601126101b05780602092610185610dca565b61018d610de4565b6001600160a01b0391821683526001865283832091168252845220549051908152f35b5080fd5b5050346101b057816003193601126101b057517f00000000000000000000000000000000000000000000000000000000000000006001600160a01b03168152602090f35b5050346101b057816003193601126101b0576020906006549051908152f35b5050346101b057806003193601126101b057602090610241610237610dca565b6024359033610ebe565b5160018152f35b5050346101b057816003193601126101b057602090600a549051908152f35b5050346101b057816003193601126101b05780519082600d5461028981610fc3565b8085529060019081811690811561031c57506001146102c3575b5050506102b5826102bf940383610dfa565b5191829182610d9e565b0390f35b600d8352602095507fd7b6990105719101dabeb77144f2a3385c8033acd3af97e9423a695e81ad1eb55b82841061030957505050826102bf946102b592820101946102a3565b80548685018801529286019281016102ed565b6102bf97506102b59450602092508693915060ff191682840152151560051b820101946102a3565b5050346101b057816003193601126101b05760055490516001600160a01b039091168152602090f35b50906020908160031936011261051957610385610dca565b9060018060a01b038060095416331480156104ee575b156104ad57600854341061047357600a5492600754936103bb8582610fa2565b6006541061043957846103cd91610fa2565b600a551693841561042457509181859361040a7fddf252ad1be2c89b69c2b068fc378daa952ba7f163c4a11628f55a4df523b3ef94600254610fa2565b60025585855284835280852082815401905551908152a380f35b85602492519163ec442f0560e01b8352820152fd5b835162461bcd60e51b815280880187905260146024820152734578636565647320746f74616c20737570706c7960601b6044820152606490fd5b815162461bcd60e51b81528086018590526014602482015273125b9cdd59999a58da595b9d081c185e5b595b9d60621b6044820152606490fd5b606485858085519262461bcd60e51b845283015260248201527f4f6e6c792063726561746f72206f7220666163746f72792063616e206d696e746044820152fd5b50807f000000000000000000000000000000000000000000000000000000000000000016331461039b565b8380fd5b833461057a578060031936011261057a57610536610e4a565b600580546001600160a01b0319811690915581906001600160a01b03167f8be0079c531659141344cd1fd0a4f28419497f9722a3daafe3b4186f6b6457e08280a380f35b80fd5b5050346101b05760203660031901126101b05760209181906001600160a01b036105a5610dca565b16815280845220549051908152f35b5050346101b057816003193601126101b0576020906008549051908152f35b5050346101b057816003193601126101b0576020906007549051908152f35b508290346101b05760a03660031901126101b0576001600160401b03928135848111610519573660238201121561051957808301359261063184610e2f565b9361063e84519586610dfa565b80855260209485810191602494368683830101116109c557818992878a9301863783010152608435956001600160a01b03808816969094908789036109c157600b549560ff871661098a577f000000000000000000000000000000000000000000000000000000000000000016330361094c576001809660ff191617600b555180946b024b739b1b934b83a34b7b7160a51b848301526106e585518092602c850190610d7d565b8101036106fc602c600c9283810188520186610dfa565b84518b811161093a57806107108354610fc3565b96601f978881116108e9575b5085908d89841160011461088b5792610880575b50505f19600383901b1c191690871b1790555b8251998a1161086e5750610758600d54610fc3565b83811161082a575b50809289116001146107c457509680928192889961014a99946107b9575b50501b915f199060031b1c191617600d555b35600655604435600755606435600855600980546001600160a01b031916919091179055610e76565b01519250898061077e565b909791601f19831698600d89528289209289905b8b82106108135750508361014a999a106107fb575b505050811b01600d55610790565b01515f1960f88460031b161c191690558780806107ed565b8087859682949686015181550195019301906107d8565b600d895281892084808c0160051c820192848d10610865575b0160051c019085905b82811061085a575050610760565b8a815501859061084c565b92508192610843565b634e487b7160e01b8952604190528488fd5b015190508d80610730565b91908a9450601f198416868452888420935b898282106108d357505084116108bb575b505050811b019055610743565b01515f1960f88460031b161c191690558d80806108ae565b8385015186558d9790950194938401930161089d565b909150838d52858d208880850160051c820192888610610931575b859493910160051c909101908a908f5b8382106109235750505061071c565b81558594508b91018f610914565b92508192610904565b634e487b7160e01b8b5260418352878bfd5b86606493601b92519362461bcd60e51b85528401528201527a4f6e6c7920666163746f72792063616e20696e697469616c697a6560281b6044820152fd5b5086606493601392519362461bcd60e51b855284015282015272105b1c9958591e481a5b9a5d1a585b1a5e9959606a1b6044820152fd5b8980fd5b8880fd5b5090346101635782600319360112610163576009546001600160a01b031633819003610aa75747908115610a6b578480809381935af13d15610a66573d610a0f81610e2f565b90610a1c84519283610dfa565b81528460203d92013e5b15610a2f578280f35b906020606492519162461bcd60e51b8352820152601160248201527015da5d1a191c985dd85b0819985a5b1959607a1b6044820152fd5b610a26565b825162461bcd60e51b815260208186015260166024820152754e6f2062616c616e636520746f20776974686472617760501b6044820152606490fd5b815162461bcd60e51b815260208185015260196024820152784f6e6c792063726561746f722063616e20776974686472617760381b6044820152606490fd5b5050346101b057816003193601126101b0576020905160128152f35b50823461057a57606036600319011261057a57610b1d610dca565b610b25610de4565b916044359360018060a01b038316808352600160205286832033845260205286832054915f198310610b60575b602088610241898989610ebe565b868310610bc8578115610bb1573315610b9a5750825260016020908152868320338452815291869020908590039055829061024187610b52565b8751634a1406b160e11b8152908101849052602490fd5b875163e602df0560e01b8152908101849052602490fd5b9050610be6868851938493637dc7a0d960e11b855233908501610f84565b0390fd5b5050346101b057816003193601126101b0576020906002549051908152f35b5034610163578160031936011261016357610c22610dca565b602435903315610c9b576001600160a01b0316918215610c8457508083602095338152600187528181208582528752205582519081527f8c5be1e5ebec7d5bd14f71427d1e84f3dd0314c0f7b2291e5b200ac8c7c3b925843392a35160018152f35b8351634a1406b160e11b8152908101859052602490fd5b835163e602df0560e01b8152808401869052602490fd5b5050346101b057816003193601126101b05780519082600c54610cd481610fc3565b8085529060019081811690811561031c5750600114610cff575050506102b5826102bf940383610dfa565b600c8352602095507fdf6966c971051c3d54ec59162606531493a51404a002842f56009d7e5cf4a8c75b828410610d4557505050826102bf946102b592820101946102a3565b8054868501880152928601928101610d29565b8490346101b057816003193601126101b0576009546001600160a01b03168152602090f35b5f5b838110610d8e5750505f910152565b8181015183820152602001610d7f565b60409160208252610dbe8151809281602086015260208686019101610d7d565b601f01601f1916010190565b600435906001600160a01b0382168203610de057565b5f80fd5b602435906001600160a01b0382168203610de057565b90601f801991011681019081106001600160401b03821117610e1b57604052565b634e487b7160e01b5f52604160045260245ffd5b6001600160401b038111610e1b57601f01601f191660200190565b6005546001600160a01b03163303610e5e57565b60405163118cdaa760e01b8152336004820152602490fd5b600580546001600160a01b039283166001600160a01b0319821681179092559091167f8be0079c531659141344cd1fd0a4f28419497f9722a3daafe3b4186f6b6457e05f80a3565b916001600160a01b03808416928315610f6c5716928315610f54575f9083825281602052604082205490838210610f37575091604082827fddf252ad1be2c89b69c2b068fc378daa952ba7f163c4a11628f55a4df523b3ef958760209652828652038282205586815220818154019055604051908152a3565b610be68460405193849363391434e360e21b855260048501610f84565b60405163ec442f0560e01b81525f6004820152602490fd5b604051634b637e8f60e11b81525f6004820152602490fd5b604091949392606082019560018060a01b0316825260208201520152565b91908201809211610faf57565b634e487b7160e01b5f52601160045260245ffd5b90600182811c92168015610ff1575b6020831014610fdd57565b634e487b7160e01b5f52602260045260245ffd5b91607f1691610fd256fea2646970667358221220ed3327b0b17a40cdf21f03ce16173d11107b7f289311d22fbbc3f2046ed9ff1264736f6c63430008140033","linkReferences":{}},"methodIdentifiers":{"FACTORY_FEE_PERCENTAGE()":"d2538628","FEE_PERCENTAGE()":"000b46f8","buyAndAddLiquidity(string,uint256)":"7fecabce","buyMeme(string,uint256,uint256)":"0c677a6e","deployInscription(string,uint256,uint256,uint256)":"3ef8af43","fee()":"ddca3f43","inscriptions(string)":"c6f487fd","isInscriptionToken(address)":"06b83ca9","liquidityAdded(address)":"5dd8ba88","mintInscription(string)":"c59bddc8","owner()":"8da5cb5b","renounceOwnership()":"715018a6","setFee(uint256)":"69fe0e2d","setUniswapRouter(address)":"bea9849e","setUniswapRouterDirect(address)":"a1188d00","setWeth(address)":"b8d1452f","tokenImplementation()":"2f3a3d5d","transferOwnership(address)":"f2fde38b","uniswapRouter()":"735de9f7","weth()":"3fc8cef3","withdraw()":"3ccfd60b","withdrawLPTokens(address)":"3ac88c4f"},"id":29}